:400000000080002011000000D1060000D106000008B5044B1A6803F53F5302331A6000F077FB00BFFA46004010B5054C237833B9044B13B10448AFF300800123237010BD57
:400040006081FF1F00000000D81E0000084B10B51BB108490848AFF300800848036803B910BD074B002BFBD0BDE81040184700BF000000006481FF1FD81E0000C880FF1FE6
:400080000000000010B500F0E3FD044600F0F6FD204600F083FD0D2C05D10A2000F0EEFD0A2000F07BFD10BD08B5002001F098F8034B1870012001F093F8024B187008BDCA
:4000C000B481FF1FB581FF1F00B585B001F0F0F9C043C0B201F0E0F901F0EAF90246064901A801F0CDFA01A800F064FD01A800F0D1FD05B05DF804FBDC1E000008B562B651
:40010000254800F00FFE254800F034FE00F058FF00F0E6FC00F080FB00F08CFD00F022FD01F028FA1E4801F04DFA01F041F801F053F81C4801F07EF81B4801F09FF90120CB
:4001400000F0EEFE00F0A6F820B100F0ADF808B100F0F8F80021084600F040FF134800F0D1FE0221002000F039FF114B187800F053FF0521002000F031FF0E4800F0C2FE59
:400180000721002000F02AFF0B4B187800F044FFC82000F031FCD2E78500000059020000F9020000A9000000C9000000E41E0000B481FF1FE81E0000B581FF1F38B50446D4
:4001C00001F082FAC0B2421E0020012514E0A35CA3F13001C9B2092904D8303B05FB03002D0108E0A3F14101C9B2052903D8373B05FB03002D01013A002AE8DAC0B238BD2A
:400200002DE9F04182B007460D469046002417E00B21012000F0E2FE2B19DB7802A800F8043D00F06FFE2B5DBB4207D135446B7888F80030AB7888F8013007E00134E4B2D1
:400240002646284601F040FA8442E1D34046FFF7B5FF02B0BDE8F08110B511E000F090FC044600F00BFD094B1A68511C196014701A68074B9A4203D3A3F18002034B1A60EF
:4002800000F084FC10F0200FE8D110BDCC80FF1F7C82FF1F034B18685B68C01A18BF0120704700BFCC80FF1F10494B685A1C4A601B780F498A4202D380390C4A51600D2BA0
:4002C00001D00A2B09D1094A936800211970094B93601B7843B90846704704498A68501C886013700020704701207047CC80FF1F7C82FF1FA081FF1F00B585B00D4B1A78ED
:400300000D4901A801F0BCF901A800F053FC01A800F0C0FC094B1A78094901A801F0B0F901A800F047FC01A800F0B4FC05B05DF804FB00BFB481FF1FEC1E0000B581FF1FC2
:40034000F41E000010B582B00F4B1B78492B10D101AA0E492F20FFF753FF02460C4B18700C4C0D49204601F08BF9204600F092FC08E0542B06D101AA04492F20FFF740FF4B
:40038000064B187002B010BDA081FF1FA181FF1FF981FF1FB881FF1FFC1E00009C81FF1FFEE700BFF0B40022174611E050F82760F3B226F0FF0608E001EB420511F8124065
:4003C0006D78A5550132013BDBB2002BF4D10137252FEBD9F0BC704708B50A46002101F046F908BD38B517222E4B1A8018232E4A13704D222D490A8002310B7002310A8013
:400400002B4A137040F23F11023211800232137047F22F52274B1A80192502331D70022203F26E231A7008224FF040231A70032103F500731970204B1B78DBB21F490B70F0
:400440001F4B1A8041F25122023B1A8000240CE01C4B1B7803F0010343EA440404F003044FF4F07001F0BCF8013D0DB1032CEFD115B90320FFF794FF134B4FF480721A80B0
:4004800007221A70002211490A704820023108701A700222033B1A700D4A137843F01F03137038BD8040004082400040844000408A4000409040004008010049A1460040C2
:4004C00022420040254200400440004006400040A2430040F8B51F4B1B78DBB21E4E3478E4B21E4F3D78EDB203F007011C4A11701B090132137044F00303337045F0030308
:400500003B70E022174B1A708023174A1370042190321170402215490A7002310A70202201F295110A7090206831087060202031087003310A7022210D4A1170123213705D
:400540000A2000F06FFA3D7034704422094B1A70F8BD00BFCF010049F8460040F94600406E5800400D5100403D51004001590040465B00407658004008B501F06DF808BD06
:4005800038B572B63C4A137843F00403137000240CE03A4D630019194A0011462A44084691882858FFF718FF0134E4B2072CF0D900240BE03149A3001819420088180622FB
:4005C000416B006BFFF7D8FF0134E4B2002CF1D02B494FF09040FFF7E5FE04212948FFF7FBFE042228492948FFF7C6FF284A137843F0020313701032137843F0020313707B
:40060000244C237843F040032370A2F58632513A137843F0100313700A221F491F48FFF7ABFF0A221E491F48FFF7A6FF05221E491E48FFF7A1FF0A221D491E48FFF79CFF35
:4006400008221D491D48FFF797FF1D4A137843F0080313701B4D61232B70FFF7C3FE81232B700122184B1A70FFF734FF0E2221461648FFF781FF38BDE84600400C1F000097
:4006800098000048007600404C0B00480876004003500140A0430040180B004800510040240B0048C0510040300B0048CB510040380B004810510040440B00482251004077
:4006C000224300400048004004000840B043004008B500F095FF03680C2B00D1FEE7FEE708B5094B1A681044084BC31A802B02DC054B186005E000F083FF0C2303604FF040
:40070000FF32104608BD00BFD880FF1F9082FF1F08B5104E104D16E029686B68AC68002204E051F8040B43F8040B0432A242F8D1E868002203E0002143F8041B04328242CD
:40074000F9D11035013E002EE6D100F05FFFFFF7D5FCFEE701000000E41F000008B5114A114B1A60114A136843F40073136000230AE0032B03D80E4A52F8231000E00D4946
:400780000D4A42F8231001332F2BF2D90B4B1A780B4B1A70084A0B4B1A60FFF7F1FE00F049F808BD0004FA050CED00E014ED00E000000000D10600000080FF1FBC760040B3
:4007C000C080FF1F08ED00E0084A137843F060031370A2F5A652133A137843F0080313701032137843F008031370704777580040054B1A7802F0FC021A701A7800F0030073
:4008000010431870704700BF5E58004008B50320FFF7EEFF08BD00BF08B5054B1B7823B90122034B1A70FFF7F1FFFFF7CDFF08BD7C81FF1F0B4A7F2313708021517007E068
:40084000DA0002F1804202F5F042013BDBB21370002BF5D1DB0003F1804303F5F04300221A707047DC80FF1F172815D831B103010A495A5C42F020025A5405E00301074993
:400880005A5C02F0DF025A540001044A835C43F00103835400207047012070471070004017280CD80001074BC1180A7942F004020A71C25C42F00102C25400207047012070
:4008C000704700BF1070004017280BD80001064A835C03F0F103490001F00E011943815400207047012070471070004041F6FF73994201D14FF4005141F6FF739A4201D15F
:400900004FF40052172808D8C00000F1804000F5EC408180C280002070470120704700BF172805D8034B03EB0010417200207047012070471070004017281BD810B4C00080
:4009400000F1804404F5EC44D201D2B201F07F01114321709DF804201201D2B203F00F03134363709DF8083003F00F03A3700020E07001E00120704710BC704710B500F028
:4009800037FE0A4B5B78182B0BD9084A1478013B5370E30003F1804303F5F0431B78137000E0FF2400F028FE204610BDDC80FF1F10F0800F0CD111F4704F0BD1C00000F178
:4009C000804000F5F04001808270C37000207047012070470120704710F0800F08D1C00000F1804000F5F0408180C280002070470120704701BE704710B5044605E0084B38
:400A0000186800F0EDFDA4F50044B4F5004FF6D8034B586800FB04F000F0E2FD10BD00BFE480FF1F08B5034B1B7A00FB03F000F0D7FD08BDE480FF1F054A137843F008032E
:400A400013701032137843F008031370704700BFA8430040054B1A7802F0FD021A701A7800F0020010431870704700BF2C580040014B1870704700BF835B0040064B1B7882
:400A8000C3F3810303F19243063393F83831DBB2024A1370704700BF2C5800400B46004008B5064B1A7802F0F3021A701A7800F00C0010431870FFF7E1FF08BD2C58004006
:400AC00008B50023054A1370013213700420FFF7E7FF0220FFF7BEFF08BD00BF2C58004008B5074B1B7823B9FFF7EAFF0122044B1A70FFF7A1FFD020FFF7BAFF08BD00BF5F
:400B00007D81FF1F7222084B1A702022A3F580731A700622663B1A70472210331A70002250331A70704700BF8965004010B500F05FFD04460A4A137843F020031370A2F5CB
:400B40008072137843F010031370063A137843F01003137000F0B0F8204600F04DFD10BD9965004008B5054B1B7823B9FFF7CAFF0122024B1A70FFF7D9FF08BD7E81FF1F73
:400B8000014B1878704700BF4A650040024B187800F07F00704700BF69640040034B1B7813F0040FFAD1024B18707047636400404764004038B5074B1B782BB938BDFFF744
:400BC000EDFF0134A4B201E005460024285D0028F5D138BD7E81FF1F7222074B1A70202203331A7006229C331A70472210331A7000224D331A7070478864004010B500F0BC
:400C0000F7FC04460A4A137843F0200313700332137843F010031370F932137843F01003137000F057F8204600F0E6FC10BD00BF9864004008B5054B1B7823B9FFF7CCFF3B
:400C40000122024B1A70FFF7D9FF08BD8081FF1F084B1B78DBB213F0200F06D0064A1078C0B213F01E0F02D17047002070470020704700BF6B6400404B650040034B1B78FC
:400C800013F0040FFAD1024B18707047646500404465004038B5074B1B782BB938BDFFF7EDFF0134A4B201E005460024285D0028F5D138BD8081FF1F054A137843F00203D4
:400CC00013701032137843F002031370704700BFA2430040054A137843F0040313701032137843F004031370704700BFA2430040014B1B681865704708ED00E04001C0B207
:400D0000014B1870704700BF04E400E01022014B1A60704700E100E01022014B1A60704780E100E010B50446FFF7F6FF2046FFF7DFFF0720FFF7E2FFFFF7E8FF10BD00BFA6
:400D4000014B1B68D864704708ED00E04001C0B2014B1870704700BF03E400E00822014B1A60704700E100E00822014B1A60704780E100E010B50446FFF7F6FF2046FFF772
:400D8000DFFF0720FFF7E2FFFFF7E8FF10BD00BF10B50B4C237803F09F032370237803F0F00323702378184340F0100020700120FFF738FE237803F0EF03237010BD00BF49
:400DC0002051004038B505460E4C237843F020032370237803F0BF0323700020FFF722FE237803F0F003237023781D4345F0100525700120FFF716FE237803F0EF032370E7
:400E000038BD00BF2051004070B5354B1A7802F08002D2B21A7033490A7802F0F00242F00F020A7001310A7802F0F0020A7001310A7802F0F0020A701A7802F0DF021A70E2
:400E40001A7842F040021A704FF4CA760020FFF7E9FD234D2B7843F010032B700120FFF7E1FD214B1C78E4B22B7803F0EF032B700020FFF7D7FD04F00804E4B22B7843F06B
:400E800010032B700120FFF7CDFD2B7803F0EF032B7014B90A20FFF7C5FD013E0CB1002ED4D10F4A137803F0BF031370137803F08003DBB213700232137803F0F0031370AD
:400EC0000132137803F0F00343F00F0313700132137803F0F00343F00F03137070BD00BF20510040225100402151004010B50446FFF78AFF2009FFF765FF04F00F00FFF70E
:400F000061FF10BD38B505460078012404E0FFF7EDFF285D0134E4B20028F8D138BD00BF10B50446FFF770FF2009FFF731FF04F00F00FFF72DFF10BD08B52820FFF75CFDEB
:400F40000320FFF725FF0520FFF756FD0320FFF71FFF0F20FFF750FD0320FFF719FF0120FFF74AFD0220FFF713FF0520FFF744FD0620FFF7D5FF0E20FFF7D2FF2C20FFF7E1
:400F8000CFFF0820FFF7CCFF0120FFF7C9FF0C20FFF7C6FF0320FFF7C3FF0520FFF72CFD014800F06BF808BD481F000008B50C20FFF7B6FF0122014B1A7008BD8281FF1F5A
:400FC00008B5054B5B7823B9FFF7B6FF0122024B5A70FFF7EBFF08BD8281FF1F08B5032819D8DFE800F002070D1381F08000FFF797FF08BDA1F14000C0B2FFF791FF08BD00
:40100000A1F16C00C0B2FFF78BFF08BDA1F12C00C0B2FFF785FF08BD10B584B000238DF80E30092211E0144BA3FB0013DB081C4603EB83035900431ADBB2303304A9114420
:4010400001F80C3C2046013AD2B20928EBD80A4BA3FB0013DB0803EB83035900431ADBB2303304A9114401F80C3C01AB9818FFF749FF04B010BD00BFCDCCCCCC38B505468D
:40108000FFF7C2FE4020FFF74BFF002404E0285DFFF72CFF0134E4B23F2CF8D9FFF7B4FE8020FFF73DFF38BD10B541F6FF734FF480420121022000F07DF9084C207041F67E
:4010C000FF731A460121042000F092F96070044800F0ACF9002000F0AFF910BD8481FF1FFD11000070B52C4C2078FFF7D9FB6078FFF7D6FB294B1B78FF2B03D1FFF73EFC23
:40110000264B1870254D2878062302460421FFF74FFC214E341DA4B2224645F6A0312878FFF75AFC29783078FFF7FAFB6B78FF2B02D1FFF723FC6870184D6878072302469F
:401140000421FFF735FC164A92B221466878FFF743FC114C69786078FFF7E2FB01212078FFF782FB01216078FFF77EFB00F040FA0C4A137843F02003137000F03DFA0A4B24
:401180001A7842F001021A701A7842F002021A700122064B1A6070BD8481FF1FF480FF1F7C82FF1F946400407765004080E200E008B5074B9B6823B9FFF776FF0122044B3F
:4011C0009A6000F0E1F8FFF78DFF024B1B7808BD8481FF1F6764004008B500F0E3F808BDC0F10100034B33F91030034A1088181A00B270477C82FF1F8282FF1F704700BFEA
:40120000014B1B685864704708ED00E04001C0B2014B1870704700BF01E400E00222014B1A60704700E100E00222014B1A60704780E100E010B50446FFF7F6FF2046FFF73B
:40124000DFFF0720FFF7E2FFFFF7E8FF10BD00BF08B50A280FD00C2802D0082806D102E04FF4805209E04FF4807206E00020FFF7C1FB002201E04FF480620021094B19804B
:4012800042F2107303FB02F303F6C413064A82FB0302DB17C3EBE223044A1360044B198008BD00BF8482FF1FAD8BDB688882FF1F8282FF1F10B500F09BF90446184A1378A7
:4012C00043F0010313701032137843F00103137002F5AA520832137843F0030313701822104B1A70013B1A7842F040021A701A7802F0FC021A70C822053B1A700222A3F5D2
:4013000097530C3B1A70084A137843F0080313700A20FFF787FB204600F06EF910BD00BFAB43004006590040275B004010B504460A280DD00C2802D0082804D101E0C222EC
:4013400007E0422205E00020FFF754FBC22200E08222034B1A702046FFF77AFF10BD00BF0259004008B5064A137843F0060313700820FFF7DBFF0022024B1A8008BD00BFC0
:40138000015900408082FF1F08B5054B1B7823B9FFF7E8FF0122024B1A70FFF78BFF08BD9081FF1F024A137843F001031370704700590040F0B583B016461F460B4C0125B5
:4013C00025700023019300932B460A4601462846FFF7B2FA3A4631462078FFF787FA02212078FFF771FA207803B0F0BDF680FF1FF0B583B016461F460B4D00242C70019402
:40140000009423460A4601462046FFF795FA3A4631462878FFF76AFA02212878FFF754FA287803B0F0BD00BFF780FF1F014B1B681864704708ED00E04001C0B2014B187083
:40144000704700BF00E400E0014B1B689864704708ED00E04001C0B2014B1870704700BF02E400E00422014B1A60704700E100E00422014B1A60704780E100E010B50446C1
:40148000FFF7F6FF2046FFF7DFFF0720FFF7E2FFFFF7E8FF10BD00BF044A137803F0F703C00000F0080018431070704700510040024B1878C0F3C000704700BF01510040A7
:4014C000084A137843F0010313701032137843F00103137002F64D32137843F001031370704700BFA3430040014B1870704700BF034F0040014B1880704700BF044F0040AD
:40150000014B1880704700BF064F004008B5164A137803F0010313700232137803F0FC031370124B1A7802F0CF021A701A7842F030021A701A7802F0F0021A701A7842F0E6
:401540000F021A700A4A137843F0010313704FF6FF70FFF7CFFF4FF6FF70FFF7D1FF0820FFF7C2FF08BD00BF004F00400B4F0040014F004008B5054B1B7823B9FFF7C6FFF2
:401580000122024B1A70FFF79BFF08BD9181FF1F014B1B685865704708ED00E04001C0B2014B1870704700BF05E400E02022014B1A60704700E100E02022014B1A6070478F
:4015C00080E100E010B50446FFF7F6FF2046FFF7DFFF0720FFF7E2FFFFF7E8FF10BD00BF0230800803D000BF01380046FCD17047EFF3108072B6704780F31088704700BFEE
:40160000014B1868704700BF5881FF1F0E4B70B51E460E4C0025E41AA410A54204D056F8253098470135F8E700F0CAFC084B094C1E46E41AA4100025A54204D056F8253015
:4016400098470135F8E770BDCC1F0000CC1F0000CC1F0000D41F000010B5431E0A44914204D011F8014B03F8014FF8E710BD03460244934202D003F8011BFAE77047000049
:401680000EB400B54FF402719CB0ADF814106FF00041049107914FF6FF711DAB02900690084853F8042BADF81610006802A9019300F06CF8029B00221A701CB05DF804EB8D
:4016C00003B070475881FF1F034613F8012B002AFBD1181A013870472DE9F0478E6882469E420C46914698463ED88A8912F4906F3AD02568096902236F1A656905EB450512
:4017000095FBF3F57B1C43449D4238BF1D4653050FD5294600F040FB064698B13A462169FFF79AFFA38923F4906343F08003A38113E02A4600F08EFB064670B92169504655
:4017400000F0DEFA0C23CAF80030A3894FF0FF3043F04003A381BDE8F08726613E44266046466561ED1BA560464528BF464649463246206800F0A8FAA36800209B1BA3603F
:4017800023681E442660BDE8F08700002DE9F04F9DB003938B8980461C060D4616460DD50B695BB9402100F0F7FA2860286118B90C23C8F80030CDE040236B61002309936F
:4017C00020238DF82930DFF89CB130238DF82A3037463C4614F8013B1BB9B7EB060910D003E0252BF9D02746F3E74B46324629464046FFF771FF013000F0A780099B4B44A4
:4018000009933B78002B00F0A08000234FF0FF3204930793059206938DF853301A930126052221784E4800F041FA671C049B38B14B4A3C46801A06FA00F018430490EFE75C
:40184000D90644BF20228DF853201A0744BF2B228DF8532022782A2A03D0079A00210A200BE0039A111D12680391002A10DA524243F00200079204900BE027463B78013428
:40188000303B092B03D800FB02320121F5E701B107923B782E2B1ED17B782A2B0AD1039B02371A1D1B680392002BB8BF4FF0FF33059310E0002319460593781C0A2407462E
:4018C0003A780130303A092A03D804FB01210123F5E703B1059103223978224800F0E6F940B14023CBEB000003FA00F0049B013718430490397806221B487E1C8DF82810C3
:4019000000F0D4F988B1194B33B9039B073323F007030833039314E003AB00932A46144B04A94046AFF3008007E003AB00932A460F4B04A9404600F093F8B0F1FF3F8246FB
:4019400003D0099B5344099342E7AB895B0601D4099801E04FF0FF301DB0BDE8F08F00BF8A1F0000901F0000941F000000000000D91600002DE9F04791461F460A698B68A1
:4019800006469342B8BF1346C9F8003091F843200C46DDF8208012B10133C9F800302368990642BFD9F800300233C9F80030256815F0060510D104F1190A07E0012352461F
:4019C00039463046C04701301AD00135E368D9F800209B1A9D42F1DB94F843302268003318BF012392060FD5E118302081F843005A1C94F845102244023382F8431003E024
:401A00004FF0FF30BDE8F08704F1430239463046C0470130F4D02268D9F80050E36802F00602042A08BF5D1B2269A3680CBF25EAE57500259342C4BF9B1AED184FF000094B
:401A40001A344D4509D00123224639463046C0470130D5D009F10109F3E70020BDE8F0872DE9F04317460A7E85B06E2A984606460C460C9B01F1430E00F0AE8011D8632A40
:401A800022D009D8002A00F0BB80582A40F0CA8081F84520834955E0642A1ED0692A1CD0C0E0732A00F0B08009D86F2A2ED0702A40F0B8800A6842F020020A603EE0752A64
:401AC00024D0782A3AD0ADE01A6801F14205111D1960136884F84230A8E021681A6811F0800F02D0111D196008E011F0400F02F10401196002D0B2F9003000E01368002B76
:401B00003CDA2D225B4284F8432037E021681A6811F0800F02D0111D196007E011F0400F02F10401196001D0138800E01368227E5C496F2A14BF0A2208221BE078225A49EB
:401B400084F845202268186812F0800F00F104051D6003D1550601D5038800E00368D00744BF42F0200222601BB9226822F0200222601022002084F8430001E049490A2223
:401B80006568002DA56008DB206820F0040020602BB9002D7DD175460CE0002B79D07546B3FBF2F002FB1033CB5C05F8013D03460028F5D1082A0BD12368DA0708D52369A6
:401BC00062689A42DEBF302305F8013C05F1FF35C5EB0E0323612EE008681A6810F0800F496903D0101D1860136808E010F0400F02F104001860136801D0198000E019608E
:401C000000232361754616E01A68111D1960156800216268284600F049F808B1401B6060636804E004F1420584F8422001232361002384F84330CDF800803B4603AA2146EB
:401C40003046FFF797FE013002D14FF0FF3026E023692A4639463046C0470130F5D023689B0710D5002504F1190907E001234A4639463046C0470130E7D00135E368039A12
:401C80009B1A9D42F2DBE068039B9842B8BF184605E00B7804F1420584F842308AE705B0BDE8F0839B1F0000AC1F000010B5C9B202449042034605D01C7801308C42F8D107
:401CC000184610BD002010BD884210B501EB020301D8421E0BE09842FBD28118D21AD34204D013F8014D01F8014DF8E710BD994204D011F8014B02F8014FF8E710BD0000CD
:401D000038B50546002944D051F8043C0C1F002BB8BFE41800F0D4F81E4A1368114613B96360146030E0A3420DD92268A018834201BF18685B681218226063600C6023E020
:401D4000A24203D813465A68002AF9D118681918A1420BD12168014458188242196013D110685268014419605A600DE002D90C232B6009E021686018824201BF10685268FA
:401D80000918216062605C602846BDE8384000F098B838BD9881FF1F70B5CD1C25F0030508350C2D38BF0C25002D064601DBA94202D90C23336046E000F082F8234B1C68E4
:401DC0001A462146A1B10B685B1B0ED40B2B03D90B60CC18CD501EE08C420BBF63684B681360636018BF0C4615E00C464968E9E7174C23681BB9304600F052F820602946E5
:401E0000304600F04DF8431C18D0C41C24F00304A0420DD12560304600F053F804F10B00231D20F00700C31A0ED05A42E25070BD211A304600F034F80130EBD10C23336036
:401E4000304600F03EF8002070BD00BF9881FF1F9481FF1FF8B5074615460E4621B91146BDE8F840FFF798BF1AB9FFF749FF2846F8BD00F027F885420ED929463846FFF778
:401E80008BFF044650B131462A46FFF7E5FB31463846FFF735FF01E03046F8BD2046F8BD38B5064C0023054608462360FEF718FC431C02D1236803B12B6038BD8C82FF1FA6
:401EC0007047704751F8040C0028BEBF091851F8043CC01804387047000000004D2F25582F0D0A00583A0000593A0000582F25582F0D0A00592F25582F0D0A0049525761B5
:401F0000617264653D25750D00000000004F00400C00405100403000F0510040100000000140001000140140000800400140000A004C014000020050014020006052004089
:401F4000100B004806000000000E0808080E0000000A0A0404040000000E0A0E08080000000E0A0C0A0A0000000E080C080E0000000E080E020E0000000E080E020E000096
:401F800000040404000400004300232D302B2000686C4C006566674546470030313233343536373839414243444546003031323334353637383961626364656600000000DB
:401FC000F8B500BFF8BC08BC9E4670474D0000005D070000F8B500BFF8BC08BC9E46704729000000F81F0000C880FF1F98000000300100000000000000000000FC81FF1F28
:40200000FC81FF1FA081FF1F9082FF1F7F800000030000000000E02EC05D00001800000000366E01FFFFFFFF000000000000000000000000000000000000000000000000B0
:402040000000000000000000881F000000000000000000000000000000000000000000000000000000000000000000000000000000000000000000000000000000000000B9
:402080000000000000000000F880FF1F000000000000000000000000000000000000000000000000000000000000000000000000000000000000000000000000000000008A
:4020C00000000000000000000000000000000000000000000000000000000000000000000000000000000000000000000000000000000000000000000000000000000000E0
:40210000000000000000000000000000000000000000000000000000000000000000000000000000000000000000000000000000000000000000000000000000000000009F
:40214000000000000000000000000000000000000000000000000000000000000000000000000000000000000000000000000000000000000000000000000000000000005F
:40218000000000000000000000000000000000000000000000000000000000000000000000000000000000000000000000000000000000000000000000000000000000001F
:020000040003F7
:0200000480007A
:40000000024F004003520040015B004005640040026500402200014029010140350201404D030140170401404A05014040060140510701404408014044090140180A01404D
:40004000370B0140030D01402B140140451501403F1601405017014044180140491901405D1A01404F1B01400A400140114101400D4201400B43014004460140044701405C
:400080000548014001490140044C01400B4D01400A5001400351014001300A1B004001400C402784830F8401887289388B38840F8972000106010A080C800E401040128006
:4000C000142016101A021B041C101E202002230224082A042C042F0131043302350136FF3A023E40580459045C015F018E01B601D804D904DF01002801110240030504088C
:40010000070508400A660B800C400D100E4010A0120D13801502160419021B801F40200C2110220B29102A412E042F4030403218360A380439123B803C283F40C0EFC2DFD3
:40014000C45FCACDCCCECE7F050309030F031103150321012302250331013702580459045F01830185018D40930497209B089F10A201A302A504A902AD08B11FB340B40159
:40018000B720B902BF05C003C640C9FFCA07CBFFCC40CD20CEF0CF05D008D401D804D904DA04DB04DC40DD11DF01E040E1A8E240E3200040032004800512064007020908F9
:4001C0000B800D180E010F601080110412061604180819101A041B2020402101224423402680274029902A062B042C402D042E012F403020320133883502360A38843905FE
:400200003C203E043F40401049015310581059405A085B028240841085808E808F4090049120938094089503962497409A049D109F81A20AA380A4B0B502C055C2FCC44F64
:40024000CACFCCCFCE7BD002D60FE25000011001130115021601260129032D032E013303360139083E403F0456025735580459045B0C5F01D804D904DF01006001080280BB
:40028000050A0604084109080B040D100F6410121264144019402010280129122B112C402D082F2030423109332035023720384039203A043C203F445B10600468206A22C9
:4002C0006B81708071207202794081108280881089108D088E048F24904091209360949095019622984099039A449C109D409E029F81A304A4B0A710AF08C07FC27FC41F79
:40030000CACFCCAFCE7ED604D804DE08E2080C0134013E105608580459045B045D905F01841085098710882189108A068C109140920C951C972298219A0E9C0C9E239F0318
:40034000A040A114A203A608A930AB0CAD2CAF11B060B360B410B60FB71FB822B908BA80BE10C065C104C5BCC60EC807C9FFCAFFCBFFCEF0CF44D00CD401D804D904DA04C5
:40038000DB0CDC12DD01DF01E6C0EA40EB02008803180502060407020A820B080C400F70129015341704180419401A821E0821842204230229112B012C402D102E08300222
:4003C0003188350239083B203D043F584040460C480249114A204B8050405A405F806640794080048A408E809120936094849540984099229A049D109F10A062A304A410AF
:40040000A508A620A711A920AC40B040B121B340B502C0D7C2BBC46CCAEDCC8BCE76D001D20CD618D810DE08E203E401EA02EE0500E70106021803080501060409010AC3CC
:400440000C100D060F1810FF1101141C16E1189C19061A621B082004211423082418270A28082B10309832583301341F3620371E38803A283B8256025711580459045B04DD
:400480005C225D205F018501870289038D028F019202940199039A01A304AF04B103B403B704B802BE01BF40D418D604D804D904DB04DC19DD10DF01042806020740090C1F
:4004C0000A080B800D020E2816681A881B101E281F922180234024202543264829422C402D082F0830203620370139203B483D903E0559015F206004618062026D106E043C
:400500006F157440762A822385088B408D08922095059C409D08A6C1A782AB08B004B160B304B540B602C0F0C27EC470CAE9CCA4CEFED621D80DE040E480E8E0EA02EE04FF
:40054000580459045F01860190039C039F02A002A301A701AF02B102B203B301B808BE04BF05D418D604D804D904DB04DD20DF01000801400304050A0602070408080B0837
:400580000C200E820F1010A0110814611F0825082602280129622D042F8630A03304342035223680370439403D483F10450846204D804E025D01658066206780874088A0AD
:4005C0008B108C088D028F049220C0F7C2F6C4BCCAFDCCFECE78D680D8B0E040E4B09220B610E84000DC0222040C06710E03100912D0141016AC18141B011E202410264067
:40060000301F330134E03A204031410245E046BC480E49FF4AFF4BFF4EF04F44500C5401580459045A045B045C025D225F0166C06A406B02D804D904DF0100040240030267
:40064000050209A80A800C500D100F50121016241704180C1B022020231028502A202C5030213401350837243A043B503F5040044188430849014B025080512059055B9008
:400680008108820483208410851088418B408C808F1091209280934094089712984199069A549B84A020A180A308A490A702C01DC2FFC464CAC7CCE5CE3ED00ED60FE00B95
:4006C000E404E810580459045F01832084038520862C8B088C038E648F0391109225950C9640970399019A489B069C109F20A101A30EA403A604A70CA84AA920AA24AF203A
:40070000B068B120B210B30FB40FB510BA22BB08BE04BF11C006C640C9FFCA07CBFFCC40CD20CEF0CF05D008D203D302D804D904DA04DB04DC11DD02DF01E040E1A8E2406A
:40074000E3200044050208100A080BA20C400D100F50122816041704184419151B01210822082384281029412A402B082C402D1030803118330234013502370438083A0244
:400780003BA83E083F5041804202492051805290680469406B0287048B029130928893E0944895409718984099629A0C9B049D109E10A020A220A308A494A508A680A701C5
:4007C000AA44AB80AC80AF08B140B640C015C2FFC466CAAFCCCFCE7FD204E002E808EA04EE0300090246041F0B030C040D010E3818121A45241F301C330134033660370236
:400800003E405804590E5C025F018110844188C389088D398EF38F44901C92E3930194FF9518980F997F9AF09CF39E0CA008A101A380A404A539A742A80CA967AB18AC8265
:40084000AF06B0C0B180B22CB320B40FB540B61CB71FB920BA28BB80BF04D602D712D804D904DB04DC11DD10DF0100080180030804420640071008900AA00E0810801358BB
:40088000170419651C401D801E08216022462548281829A42B81300831103212382039803B013D803F205A0868206970709873197E20808081208A208E048F019220936044
:4008C000940C952597089A289B149D439E409F60A040A101A218A312A420A508A680A904AA40AE41B040B708C0B7C24FC42FCA0FCC07CE3DD602DE40E022E890000102125D
:4009000006080C4010041212140216251A082447284730403207340836303E50402441064205440145C046E0480A49FF4AFF4BFF4C624DA04EF04F41500C58045A045C0194
:400940005D015F016640670269106A306B106D106E106F1281EF85048D0891C397C3992F9BC09DE39F0CA141A310A52CA7C3A90CAD82B10FB320B510B7C0BB02BF04C056FD
:40098000C104C202C401C5CEC803C9FFCAFFCBFFCC62CDA0CEF0CF41D00CD804D904DA04DC20DD02DF01E640E702E910EA30EB10ED10EE10EF1200020140022005200610E0
:4009C00009200A200B400D400E080F10102011101420152018051A601B092408264227602E202F913501361837403C803D023E08400942404581471049524D044E8A5220DF
:400A00006040610179017A4081408204831286108710882089308C018F80904091509362940E9505980899509A289D029F60A061A1A1A218A302A680A709B005B384C06D1E
:400A4000C2EEC466CAF0CCF0CED0D0BDD23CE0A0E420E810130116803020331837143B823E80C430CCF0CE70012032805908660883088D088E08930197829F04A420A7085D
:400A8000C040CC10D640D880E680128057048740930197829F04A420A680AD20C410D440E210EC4063208304842093019F04A420A704AB01D840E2C0EE201B042720C608C9
:400AC000C8014402AB04AF20D0042408AB15C820E880EEA0B404085087809C02C202128077808E809B80B050B402C408DE04E202E808EA050017010108130A070B010C0715
:400B00000D0110071A071C0700FF010F100A000084840000400000000400181C00000060E000000080004084840084000004000000080004000000004000400B0B00000071
:400B400000010000007F7F00000000000001000000000000000000000000000000000000000000000000000000000000000000000000000000000000000000000000000075
:400B80000000000000000000000000000000000000000000000000000000000000000000000000000000000000000000000000000000000000000000000000000000000035
:400BC00000000000000000000000000000000000000000000000000000000000000000000000000000000000000000000000000000000000000000000000000000000000F5
:400C000000000000000000000000000000000000000000000000000000000000000000000000000000000000000000000000000000000000000000000000000000000000B4
:400C40000000000000000000000000000000000000000000000000000000000000000000000000000000000000000000000000000000000000000000000000000000000074
:0200000490006A
:0400000000004005B7
:0200000490105A
:04000000BC90ACAF55
:0200000490303A
:0200000096FA6E
:0200000490402A
:4000000000000000000000000000000000000000000000000000000000000000000000000000000000000000000000000000000000000000000000000000000000000000C0
:400040000000000000000000000000000000000000000000000000000000000000000000000000000000000000000000000000000000000000000000000000000000000080
:400080000000000000000000000000000000000000000000000000000000000000000000000000000000000000000000000000000000000000000000000000000000000040
:4000C0000000000000000000000000000000000000000000000000000000000000000000000000000000000000000000000000000000000000000000000000000000000000
:0200000490501A
:0C00000000012E15606900012E24F7633A
:00000001FF