:400000000080002011000000D5070000D507000008B5044B1A6803F53F5302331A6000F0E1FB00BFFA46004010B5054C237833B9044B13B10448AFF300800123237010BDE3
:400040006081FF1F00000000E8170000084B10B51BB108490848AFF300800848036803B910BD074B002BFBD0BDE81040184700BF000000006481FF1FE8170000C880FF1FD4
:4000800000000000704700BF08B500F08BFC00F09DFC00F017FE00F093FF00F003FF01F019F801F051F801F08DF801F029F90023024A1370024A137008BD00BF1682FF1FD4
:4000C000C581FF1F08B5012000F0CCFC4FF47A7001F010FB012000F0B9FC4FF47A7001F009FB012000F0A6FC4FF47A7001F002FB012000F093FC4FF47A7001F0FBFA012053
:4001000000F078FC4FF47A7001F0F4FA08BD00BF08B562B66422284B1A70FFF7B5FF274800F046FE264800F073FF264801F080F8002000F0F1FE002000F0F4FE002000F06E
:40014000CBFE002000F0BCFE00F098FC0128FBD01D4B187800F0E0FE1C4B187800F0E2FEFFF7B0FF012000F0B7FE012000F0A8FE00F056F820B100F05DF808B100F0C0F810
:400180000021084600F0ACFD0F4D287800F0D6FD0021012000F0A4FD0C4C207800F0CEFD0B4B187800F076F9287800F0B5FE207800F0B8FEDCE700BFC681FF1F7D030000CD
:4001C00085000000ED0100001682FF1FC581FF1F1282FF1F02460023012003E002FB00F0C0B201338B42F9DB704700BF38B50DE0094C25686B1C236000F0F2FF28702268DE
:40020000064B9A4202D3A3F18002226000F0EEFF10F0200FECD138BDCC80FF1FA482FF1F034B18685B68C01A18BF0120704700BFCC80FF1F10494B685A1C4A601B780F495E
:400240008A4202D380390C4A51600D2B01D00A2B09D1094A936800211970094B93601B7843B90846704704498A68501C886013700020704701207047CC80FF1FA482FF1FBF
:40028000B081FF1F38B5044601F0A5FAC0B2421E0020012514E0A35CA3F13001C9B2092904D8303B05FB03002D0108E0A3F14101C9B2052903D8373B05FB03002D01013A13
:4002C000002AE8DAC0B238BDF8B506460D46174600240CE02B5DB34208D1E31CEB5C9E4204D12B195A783A709B787B700134284601F071FA8442EDD33846FFF7C3FFF8BD73
:4003000010B582B0184B1B78522B0DD100F07EFBC043C0B200F06EFB01AA14492F20FFF7D3FF134B18701DE04C2B07D101AA0F492F20FFF7C9FF0F4B187013E04D2B11D1AE
:400340000A21002000F0CCFC0B4800F059FC01AA06492F20FFF7B8FF044600F0BDFD204600F0AEFD02B010BDB081FF1FB181FF1F1682FF1FC581FF1FFC17000010B50024C3
:400380000B4B1C7010E0A0B200F024FB094B1B78984208DD21460220FFF71CFFC0B2044A1378184310700134072CECDD10BD00BF1282FF1FC681FF1F00231FE0234AD25C13
:4003C000012A1AD1224AD15C224A11701BB9FF22214B1A7014E0012B03D1F0221E4B1A700EE0022B03D1E1221B4B1A7008E0032B06D1FF22184B1A7002E00133032BDDDDA2
:40040000072320E0114AD25C012A1BD1104AD15C114A1170072B03D1FF220E4B1A707047062B03D1F0220B4B1A707047052B03D1E122084B1A707047042B06D1FF22054B0E
:400440001A707047013B032BDCDC7047A882FF1FD880FF1F1682FF1FC581FF1F10B5002411E021460220FFF7B5FEC0B2074B1B7830EA030303D10122054B1A5502E000224D
:40048000034B1A550134072CEBDD10BDA482FF1FA882FF1F08B5034B1870FFF7DFFFFFF78BFF08BDA482FF1FFEE700BFF0B40022174611E050F82760F3B226F0FF0608E0D7
:4004C00001EB420511F812406D78A5550132013BDBB2002BF4D10137242FEBD9F0BC704708B50A46002101F06EF908BD38B517222E4B1A8018232E4A13704D210232118004
:4005000002321370EF21023211800232137040F2AF41023211800232137040F65F1102321180023213700222224B1A7008224FF040231A70032103F5007319701E4B1B7833
:40054000DBB21E490B701E4B1A8041F25122023B1A80002419250CE01A4B1B7803F0010343EA440404F003044FF4F07001F0E4F8013D0DB1032CEFD115B90320FFF794FF0A
:40058000114B4FF480721A8007221A7000220F490A704820023108701A700222033B1A700B4A137843F01F03137038BD80400040824000400043004008010049A146004035
:4005C00022420040254200400440004006400040A2430040F8B5204B1B78DBB21F4E3478E4B21F4F3D78EDB203F007011D4A11701B090132137044F00303337045F0030303
:400600003B70FF22184B1A7080222F331A7041F2100220331A80502271331A704023134A137002321370202302F295121370F02188321170033213704FF481720C4B1A801B
:40064000012212331A700A2001F06AF83D7034704422084B1A70F8BDCF010049F8460040F94600406E5800400D51004001590040465B00407658004008B501F099F808BD7B
:4006800038B572B600240CE03B4D630019194A0011462A44084691882858FFF721FF0134E4B2072CF0D900240BE03349A3001819420088180622416B006BFFF7DDFF01349E
:4006C000E4B2002CF1D02D494FF09040FFF7EEFE04212B48FFF704FF04222A492A48FFF7CBFF2A4A137843F0020313701032137843F002031370264C237843F0400323705C
:40070000A2F58632513A137843F010031370082220492148FFF7B0FF082220492048FFF7ABFF05221F492048FFF7A6FF0A221F491F48FFF7A1FF08221E491F48FFF79CFFA3
:400740000A221E491E48FFF797FF1E4A137843F0080313701C4D61232B70FFF7C7FE81232B700122194B1A70FFF734FF0E2221461748FFF781FF38BD00180000940000482F
:4007800000760040C80800480876004003500140A0430040900800480251004098080048C2510040A0080048CB510040A808004810510040B408004822510040BC080048A0
:4007C00030510040224300400048004004000840B043004008B500F0BFFF03680C2B00D1FEE7FEE708B5104E104D16E029686B68AC68002204E051F8040B43F8040B043220
:40080000A242F8D1E868002203E0002143F8041B04328242F9D11035013E002EE6D100F0A1FFFFF775FCFEE701000000B418000008B5114A114B1A60114A136843F40073F7
:40084000136000230AE0032B03D80E4A52F8231000E00D490D4A42F8231001332F2BF2D90B4B1A780B4B1A70084A0B4B1A60FFF707FF00F05DFE08BD0004FA050CED00E0F5
:4008800014ED00E000000000D50700000080FF1FBC760040C080FF1F08ED00E010B541F6FF734FF480420121022000F0E9FD084C207041F6FF731A460121102000F0FEFD81
:4008C0006070044800F018FE042000F01BFE10BD7C81FF1FF109000070B52C4C207800F05DFE607800F05AFE294B1B78FF2B03D100F0C2FE264B1870254D287806230246F6
:40090000102100F0D3FE214E341DA4B2224645F6A031287800F0DEFE2978307800F07EFE6B78FF2B02D100F0A7FE6870184D687807230246102100F0B9FE164A92B2214633
:40094000687800F0C7FE114C6978607800F066FE0121207800F006FE0121607800F002FE00F0F2FE0C4A137843F02003137000F0EFFE0A4B1A7842F001021A701A7842F0FF
:4009800002021A701022064B1A6070BD7C81FF1FE080FF1FB082FF1F976400407464004080E200E008B5074B5B6923B9FFF776FF0122044B5A6100F04DFDFFF78DFF024BB1
:4009C0001B7808BD7C81FF1F6864004008B500F04FFD08BDC0F10700034B33F91030034A1088181A00B27047B082FF1FC282FF1F704700BF044A137803F0EF03000100F0F1
:400A0000100018431070704730510040024B1878C0F30010704700BF31510040044A137803F0F703C00000F0080018431070704730510040044A137803F0FB03800000F070
:400A4000040018431070704730510040044A137803F0FD03400000F0020018431070704730510040044A137803F0FE0300F0010018431070704700BF30510040024B187821
:400A8000C0F34010704700BF3151004010B50B4C237803F09F032370237803F0F00323702378184340F010002070012000F038FE237803F0EF03237010BD00BF20510040AB
:400AC00038B505460E4C237843F020032370237803F0BF032370002000F022FE237803F0F003237023781D4345F010052570012000F016FE237803F0EF03237038BD00BFF3
:400B00002051004070B5354B1A7802F08002D2B21A7033490A7802F0F00242F00F020A7001310A7802F0F0020A7001310A7802F0F0020A701A7802F0DF021A701A7842F0D5
:400B400040021A704FF4CA76002000F0E9FD234D2B7843F010032B70012000F0E1FD214B1C78E4B22B7803F0EF032B70002000F0D7FD04F00804E4B22B7843F010032B7096
:400B8000012000F0CDFD2B7803F0EF032B7014B90A2000F0C5FD013E0CB1002ED4D10F4A137803F0BF031370137803F08003DBB213700232137803F0F003137001321378AC
:400BC00003F0F00343F00F0313700132137803F0F00343F00F03137070BD00BF20510040225100402151004010B50446FFF78AFF2009FFF765FF04F00F00FFF761FF10BDA2
:400C000038B505460078012404E0FFF7EDFF285D0134E4B20028F8D138BD00BF08B5FFF7E3FF08BD10B50446FFF76CFF2009FFF72DFF04F00F00FFF729FF10BD08B528201C
:400C400000F058FD0320FFF721FF052000F052FD0320FFF71BFF0F2000F04CFD0320FFF715FF012000F046FD0220FFF70FFF052000F040FD0620FFF7D5FF0E20FFF7D2FF19
:400C80002C20FFF7CFFF0820FFF7CCFF0120FFF7C9FF0C20FFF7C6FF0320FFF7C3FF052000F028FD014800F053F808BD4C18000008B50C20FFF7B6FF0122014B1A7008BD61
:400CC0009481FF1F08B5054B5B7823B9FFF7B6FF0122024B5A70FFF7EBFF08BD9481FF1F08B5032819D8DFE800F002070D1381F08000FFF797FF08BDA1F14000C0B2FFF713
:400D000091FF08BDA1F16C00C0B2FFF78BFF08BDA1F12C00C0B2FFF785FF08BD38B504460309054DE85CFFF779FF04F00F04285DFFF774FF38BD00BF3C18000010B50446E7
:400D4000000AFFF7EBFFE0B2FFF7E8FF10BD00BF38B50546FFF7D6FE4020FFF763FF002404E0285DFFF740FF0134E4B23F2CF8D9FFF7C8FE8020FFF755FF38BD014B1B68A1
:400D80005865704708ED00E04001C0B2014B1870704700BF05E400E02022014B1A60704700E100E02022014B1A60704780E100E010B50446FFF7F6FF2046FFF7DFFF072049
:400DC000FFF7E2FFFFF7E8FF10BD00BF084A137843F0010313701032137843F00103137002F64D32137843F001031370704700BFA3430040014B1870704700BF034F004061
:400E0000014B1880704700BF044F0040014B1880704700BF064F004008B51F4A137803F0010313701D4B1A7802F0FC021A701A7802F0F3021A701A7842F00C021A701A7846
:400E400002F07F021A701A7842F080021A701A78D2B21A7009331A7802F0CF021A701A7842F030021A701A7802F0F0021A701A7842F00F021A700A4A137843F00103137072
:400E80004FF6FF70FFF7BCFF4FF6FF70FFF7BEFF0420FFF7AFFF08BD004F0040024F0040014F004008B5054B1B7823B9FFF7B4FF0122024B1A70FFF789FF08BD9681FF1F92
:400EC000044A137803F07F03C001C0B218431070704700BF10510040044A137803F0FB03800000F0040018431070704710510040024A137843F0800313707047746500402E
:400F0000014B1870704700BF04650040014B1870704700BF44650040014B1870704700BF24650040014B1870704700BF34650040014B1870704700BF84650040014B187806
:400F4000704700BF64650040014B1878704700BF5465004008B501E0FFF7F6FFFFF7EEFF10F0100FF8D108BD10B5134A137803F0C00343F009031370104C237843F001033B
:400F80002370FF20FFF7BCFFFF20FFF7BFFF0020FFF7C2FF0020FFF7C5FF0020FFF7C8FF00F0D2FB237843F01003237000F0D0FBFFF7D0FF10BD00BF7465004094650040DE
:400FC00008B5054B1B7823B9FFF7CEFF0122024B1A70FFF78DFF08BD9781FF1F014B1B689864704708ED00E04001C0B2014B1870704700BF02E400E00422014B1A6070477E
:4010000000E100E00422014B1A60704780E100E010B50446FFF7F6FF2046FFF7DFFF0720FFF7E2FFFFF7E8FF10BD00BF054A137843F0080313701032137843F00803137047
:40104000704700BFA8430040054B1A7802F0FD021A701A7800F0020010431870704700BF2C580040014B1870704700BF835B0040064B1B78C3F3810303F19243063393F8C6
:401080003831DBB2024A1370704700BF2C5800400B46004008B5064B1A7802F0F3021A701A7800F00C0010431870FFF7E1FF08BD2C58004008B50023054A1370013213705F
:4010C0000420FFF7E7FF0220FFF7BEFF08BD00BF2C58004008B5074B1B7823B9FFF7EAFF0122044B1A70FFF7A1FFD020FFF7BAFF08BD00BF9881FF1F084A137843F0600317
:401100001370A2F5A652133A137843F0080313701032137843F008031370704777580040054B1A7802F0FC021A701A7800F0030010431870704700BF5E58004008B50320A8
:40114000FFF7EEFF08BD00BF08B5054B1B7823B90122034B1A70FFF7F1FFFFF7CDFF08BD9981FF1F7222084B1A702022FF331A700622A3F267131A70472210331A70002264
:4011800052331A70704700BF8964004010B500F0DBFA04460A4A137843F020031370FF32137843F010031370A2F20512137843F01003137000F0AEF9204600F0C9FA10BDF0
:4011C0009964004008B5054B1B7823B9FFF7CAFF0122024B1A70FFF7D9FF08BD9A81FF1F014B1878704700BF49640040024B187800F07F00704700BF68650040014B1B68D4
:401200001864704708ED00E04001C0B2014B1870704700BF00E400E00122014B1A60704700E100E00122014B1A60704780E100E010B50446FFF7F6FF2046FFF7DFFF072048
:40124000FFF7E2FFFFF7E8FF10BD00BF084A137843F0020313701032137843F00203137002F65932137843F001031370704700BFA3430040014B1870704700BF0F4F0040C2
:40128000014B1880704700BF104F0040014B1880704700BF124F004008B5164A137803F0010313700232137803F0FC031370124B1A7802F0CF021A701A7842F030021A7028
:4012C0001A7802F0F0021A701A7842F00F021A700A4A137843F0010313704FF6FF70FFF7CFFF4FF6FF70FFF7D1FF0820FFF7C2FF08BD00BF0C4F0040174F00400D4F0040C4
:4013000008B5054B1B7823B9FFF7C6FF0122024B1A70FFF79BFF08BD9C81FF1F08B50A280FD00C2802D0082806D102E04FF4805209E04FF4807206E0002000F0D9F9002212
:4013400001E04FF480620021094B198042F2107303FB02F303F6C413064A82FB0302DB17C3EBE223044A1360044B198008BD00BFC082FF1FAD8BDB68C882FF1FC282FF1F96
:4013800010B500F0E1F90446184A137843F0010313701032137843F00103137002F5AA520832137843F0030313701822104B1A70013B1A7842F040021A701A7802F0FC0245
:4013C0001A70C822053B1A700222A3F597530C3B1A70084A137843F0080313700A2000F09FF9204600F0B4F910BD00BFAB43004006590040275B004010B504460A280DD0AC
:401400000C2802D0082804D101E0C22207E0422205E0002000F06CF9C22200E08222034B1A702046FFF77AFF10BD00BF0259004008B5064A137843F0060313700820FFF786
:40144000DBFF0022024B1A8008BD00BF01590040C482FF1F08B5054B1B7823B9FFF7E8FF0122024B1A70FFF78BFF08BD9D81FF1F024A137843F00103137070470059004052
:40148000F0B583B016461F460B4C012525700023019300932B460A460146284600F0CAF83A463146207800F09FF80221207800F089F8207803B0F0BDE280FF1FF0B583B07D
:4014C00016461F460B4D00242C700194009423460A460146204600F0ADF83A463146287800F082F80221287800F06CF8287803B0F0BD00BFE380FF1F014B1B681865704794
:4015000008ED00E04001C0B2014B1870704700BF04E400E0054A137843F0020313701032137843F002031370704700BFA24300400B4A7F2313708021517007E0DA0002F1C9
:40154000804202F5F042013BDBB21370002BF5D1DB0003F1804303F5F04300221A707047E480FF1F172815D831B103010A495A5C42F020025A5405E0030107495A5C02F0A3
:40158000DF025A540001044A835C43F00103835400207047012070471070004017280CD80001074BC1180A7942F004020A71C25C42F00102C254002070470120704700BF95
:4015C0001070004017280BD80001064A835C03F0F103490001F00E011943815400207047012070471070004041F6FF73994201D14FF4005141F6FF739A4201D14FF4005233
:40160000172808D8C00000F1804000F5EC408180C280002070470120704700BF172805D8034B03EB0010417200207047012070471070004017281BD810B4C00000F1804453
:4016400004F5EC44D201D2B201F07F01114321709DF804201201D2B203F00F03134363709DF8083003F00F03A3700020E07001E00120704710BC704710B500F065F80A4B1E
:401680005B78182B0BD9084A1478013B5370E30003F1804303F5F0431B78137000E0FF2400F056F8204610BDE480FF1F10F0800F0CD111F4704F0BD1C00000F1804000F510
:4016C000F04001808270C37000207047012070470120704710F0800F08D1C00000F1804000F5F0408180C280002070470120704701BE704710B5044605E0084B186800F070
:401700001BF8A4F50044B4F5004FF6D8034B586800FB04F000F010F810BD00BFEC80FF1F08B5034B1B7A00FB03F000F005F808BDEC80FF1F000000000230800803D000BFD2
:4017400001380046FCD17047EFF3108072B6704780F31088704700BF014B1868704700BF5C81FF1F0E4B70B51E460E4C0025E41AA410A54204D056F8253098470135F8E7F2
:4017800000F086F8084B094C1E46E41AA4100025A54204D056F8253098470135F8E770BD9C1800009C1800009C180000A418000010B5431E0A44914204D011F8014B03F816
:4017C000014FF8E710BD03460244934202D003F8011BFAE77047034613F8012B002AFBD1181A01387047000000000000492F25732F0D0000542F25732F0D0000677564008D
:40180000004F00401800405100403000F0510040100000000140001000140140000800400140000A004C014000020050014020006052004088080048060000003031323360
:40184000343536373839414243444546000E0808080E0000000A0A0404040000000E0A0E08080000000E0A0C0A0A0000000E080C080E0000000E080E020E0000000E080E3A
:40188000020E0000000404040004000043000000F8B500BFF8BC08BC9E4670474D00000031080000F8B500BFF8BC08BC9E46704729000000C8180000C880FF1F980000003A
:4018C0007001000000000000000000002482FF1F2482FF1FB081FF1F0096B4DCDCB49600FFFFFFFF7F800000030000000000E02EC05D00001800000000366E01000000006E
:40190000000000000000000000000000000000000000000000000000000000008C180000000000000000000000000000000000000000000000000000000000000000000003
:4019400000000000000000000000000000000000000000000000000000000000FC80FF1F0000000000000000000000000000000000000000000000000000000000000000CD
:401980000000000000000000000000000000000000000000000000000000000000000000000000000000000000000000000000000000000000000000000000000000000027
:4019C00000000000000000000000000000000000000000000000000000000000000000000000000000000000000000000000000000000000000000000000000000000000E7
:401A000000000000000000000000000000000000000000000000000000000000000000000000000000000000000000000000000000000000000000000000000000000000A6
:401A40000000000000000000000000000000000000000000000000000000000000000000000000000000000000000000000000000000000000000000000000000000000066
:020000040003F7
:0200000480007A
:40000000044F004003520040015B00400364004002650040560001403101014028020140380301402D040140400501401206014045070140330801403F090140040A01408B
:40004000060B0140321401403515014012160140361701404418014045190140031A01400A1B01400A40014019410140174201400743014006460140034701400A4801402F
:4000800007490140054C01400F4D01400D5001400451014001800A720D20164B0059019A09202784830F87078972840F8838072008130A6C0B200CCA0E3412C81303141379
:4000C000152C16E4171119101A802109231024032514260429302A352B0C2D1C2F2230F0311F340F35203A223F104062410345EB46C0480B49FF4AFF4BFF4EF04F44500C40
:40010000580459045A045C115D015F0166C06A406B02860288688A058C468E09920694689603A810AA21B018B207B460B822BA08BE10C002C640C9FFCA07CBFFCC40CD20FD
:40014000CEF0CF05D008D804D904DA04DC01DD01DF01E040E1A8E240E32000400120044005200610071009180A400E600F801030120414081604184019201B011D281E60BA
:4001800020082102220129282B412F08310A3310368A38203A043D013E103F0440084108452049284B01503055105614C0E3C23EC446CA2FCCD7CEE6D026D204010903065C
:4001C0000402060D070F09020B0D0C0F110F140E150F1601180F1D0F20062209260F29072B082C0F30083101320233083404350436013702580459045F018601B201D401BC
:40020000D604D804D904DB04DD10DF01000802020309062007010A100B040E1812891501174819041A101D201EA01F8024082504278229042B082F08328A3340368E390137
:400240003A013B043D013E103F0458915A08638064016701800483408650920293019501961097049890A68AA708AC84C0A7C266C4BBCA26CCDBCEE3D60FD8010040014052
:4002800002800420061007020A080B100C040F201102120214101508162018011B081C021D04208022402304240829102A042E012F0130FF31013340353E39203A803E0140
:4002C0003F1452035302580459045B045C415F01D804D904DF0100880101038A0624084009840A940B080C800E100F041124121E13821501178018401A0121012204230C3E
:4003000028412A202B082F08308032CA33103682370838403A103B093D29680269508312880289018F20921293019501960897049E209F08A404A68AA708A920AF80B5042F
:40034000B782C06FC2EFC49FCA2DCCDFCEEFE22AE640EA50EE40580459045F0188049E01A602A804B001B202B404B820BE10D602D736D804D904DB0CDF010110021203849C
:400380000602070809900A100E100F081106120113601484178019101A801B0E2A102B862E022F88320A3480360A39803A013E103F405B046110684469046B427180720CBE
:4003C000794088048A0A8B888D408E1091509212950496849A019B289F02A110A444A580A60AA788AA01AB08AE01B001C0CFC267C4DFCAADCCD3CE39D602D804DE08E80C0E
:40040000EC20EE045401580459045B0D5F01800A8251840186268C148E49A49FA89FAC80B018B280B407B660BE40C023C106C204C401C6C0C7E0C828C9FFCAFFCBFFCC6289
:40044000CDA0CEF0CF41D00CD602D712D804D904DA04DB04DC01DD11DF01E640E702E910EA30EB10ED10EE10EF1200420320048005140D2010021114144016081709184119
:400480001A141B2029142C502F083010312033013510370838803A283D203E084005410142104B10511052025A085D8068026914708073247E088A288B098C408D1093106F
:4004C0009A409D81A120A208A920AE40AF10C0EDC240C477CAE6CC65CE6ED00FD204D612DE20E020E4B0EE04B902BF01D904DF01250285828A088D01E480E65000010707CC
:40050000110417011A081E072A0C2F08300131023204330834083504360237013E104060410245D046214705481E49FF4AFF4BFF4DA04F04501852805407580459045A04FA
:400540005B045C335D335F01604062C06440654066C068C06AC06CC06EC0D804D904DF01038004020580074809A00E100F481208150816201A441B8822992A802D802E20DE
:400580002F02320937483B083E103F48412049024A0851A0530459025A6472808E808F0890029108921093409B089E20A306AC04B002C0D8C273C422CA38CC53CE72D0044E
:4005C000D204D60FE202E810EC02580459045F01870291019F04A201B102B304B501B601BF10D608D804D904DB04DD90DF010210038004020580062007080AB00E100F480F
:40060000120A130A18021B8020082104220A234029842A102B862E202F8232193340350437083A083B403E103F485A4060026B0182408B0192929A089B4AA306A60AA780B0
:40064000B480B501B640B780C0FCC27CC40FCABFCC4FCE7AD608D808E620070412041304140117012101260327022A04300432023304350336013E013F0454185604580D24
:4006800059045B045C905D105F01804184F38518860C89088C828D7F900F92F09304953C96F3974198C39B039C1C9D3C9EE39F42A008A110A404A80CA967AB18ACFFAD04F9
:4006C000AF80B0C0B180B22CB320B40FB540B61CB71FB920BA28BB80BF04D804D904DC11DF010046080209800A340D010E200F8010C01140121413241520170818041926CB
:400700001B401E201F4120082180220525082708284029602F50318432113602370839403A543C084508462049804B805D026501662067027E088C028D0490409120921483
:4007400093049404950296089A409B209D81A080A20AA401B514B708C00DC23FC46FCACDCCCFCE4ED680D8B0DE20E8503F1059045F0123048704880189409D40A401B310B1
:40078000E050E830EC02110816803120330837183B823E80C430CCF0CE70314049404B80500857205A025B405C1460086601801083108601872097829F18A104A520A7080C
:4007C000CC10D4E0D6E0D8C0E220E6D017081B043F086680868087408B088D2097829F08A104A520A708AA01AC08B40CB740C420C610CE80D680E250EA6063049604A1047C
:40080000AB01B204D840EE201B0427208F20C608C801E6084402AB04D0042408661081048B0496049704A104C820D880E0200A04861096049E10B404C240E2405220611052
:400840009C02D404D8021440740488408D108E209D10A004A620AC04B402C404DE04E00AE201E80800130101080309010A130C030D01100B11011A091B011C031D0100FF59
:40088000010F040C100A000040400000800000000000000000FFFF00A05050004000005000A0005050000000840000FCFC00280000000000007F7F00000000006000007F6F
:4008C0001F000000000000000001000000000000000000000000000000000000000000000000000000000000000000000000000000000000000000000000000000000000D8
:4009000000000000000000000000000000000000000000000000000000000000000000000000000000000000000000000000000000000000000000000000000000000000B7
:400940000000000000000000000000000000000000000000000000000000000000000000000000000000000000000000000000000000000000000000000000000000000077
:400980000000000000000000000000000000000000000000000000000000000000000000000000000000000000000000000000000000000000000000000000000000000037
:4009C00000000000000000000000000000000000000000000000000000000000000000000000000000000000000000000000000000000000000000000000000000000000F7
:0200000490006A
:0400000000004007B5
:0200000490105A
:04000000BC90ACAF55
:0200000490303A
:02000000E2819B
:0200000490402A
:4000000000000000000000000000000000000000000000000000000000000000000000000000000000000000000000000000000000000000000000000000000000000000C0
:400040000000000000000000000000000000000000000000000000000000000000000000000000000000000000000000000000000000000000000000000000000000000080
:400080000000000000000000000000000000000000000000000000000000000000000000000000000000000000000000000000000000000000000000000000000000000040
:4000C0000000000000000000000000000000000000000000000000000000000000000000000000000000000000000000000000000000000000000000000000000000000000
:0200000490501A
:0C00000000012E16106900012E21F2EA0A
:00000001FF