:400000000080002011000000FD080000FD08000008B5044B1A6803F53F5302331A6000F08DFC00BFFA46004010B5054C237833B9044B13B10448AFF300800123237010BDE4
:400040006881FF1F0000000008220000084B10B51BB108490848AFF300800848036803B910BD074B002BFBD0BDE81040184700BF000000006C81FF1F08220000C880FF1F6E
:4000800000000000704700BF08B500F039FE00F04BFE01F031F901F013F801F01DFA01F06BFB01F007FB01F095FA01F0F9FB08BD08B5012000F04CFE4FF47A7000F07CFD6C
:4000C000012000F059FE4FF47A7000F075FD012000F05EFE4FF47A7000F06EFD012000F063FE4FF47A7000F067FD012000F068FE4FF47A7000F060FD08BD00BF08B50120CE
:4001000000F026FE4FF47A7000F056FD002000F01FFE4FF47A7000F04FFD012000F02CFE4FF47A7000F048FD002000F025FE4FF47A7000F041FD012000F02AFE4FF47A7014
:4001400000F03AFD002000F023FE4FF47A7000F033FD012000F028FE4FF47A7000F02CFD002000F021FE4FF47A7000F025FD012000F026FE4FF47A7000F01EFD002000F072
:400180001FFE4FF47A7000F017FD08BD08B562B66422344B1A70FFF777FF334801F022F9324801F0D9F9324801F012FB314801F09FFB002000F030FF002000F033FF00207B
:4001C00001F098F9002001F0A1F901E0FFF796FF00F0FEFE0128F9D000F002FF01280BD1254B1B781BB90122234B1A7004E0012B02D10022204B1A70204B187800F00CFFB0
:400200001F4B187800F00EFFFFF752FF00F062F820B100F069F808B100F01AF90021084601F078F8154B187801F0A2F80021012001F070F8124B187801F09AF80A2000F0E8
:40024000BBFC0D4B1B78012B03D10E4B187800F0B5F90A4B187800F0DFFE094B187800F0E1FED3E7DB81FF1FA504000085000000A102000075030000B081FF1F2A82FF1F5A
:40028000DA81FF1F2682FF1F02460023012003E002FB00F0C0B201338B42F9DB704700BF38B50DE0094C25686B1C236001F0A0F928702268064B9A4202D3A3F180022260DA
:4002C00001F09CF910F0200FECD138BDCC80FF1FB882FF1F034B18685B68C01A18BF0120704700BFCC80FF1F10494B685A1C4A601B780F498A4202D380390C4A51600D2BE2
:4003000001D00A2B09D1094A936800211970094B93601B7843B90846704704498A68501C886013700020704701207047CC80FF1FB882FF1FC081FF1F014618B90C4B302263
:400340001A705A7001230FE001F00F02092A05D830320748C254013BDBB204E037320448C254013BDBB209090029EDD1704700BFD881FF1F10B584B000F0F6FCC043C0B2C6
:4003800000F0E6FC0E4B1878FFF7D6FF0D4C22460D4901A801F00CFB01A801F043F9002000F0C6FCC0B2FFF7C7FF2246074901A801F0FEFA01A801F035F904B010BD00BFD7
:4003C0002682FF1FD881FF1F0C2200001422000038B5044601F010FBC0B2421E0020012514E0A35CA3F13001C9B2092904D8303B05FB03002D0108E0A3F14101C9B20529CD
:4004000003D8373B05FB03002D01013A002AE8DAC0B238BD70B506460D4600240DE02B5DB34209D1E31CEB5C9E4205D12A195178064B197092785A700134284601F0DCFA64
:400440008442ECD30148FFF7C3FF70BDD881FF1F10B5104B1B78522B06D10F492F20FFF7D9FF0E4B187010BD4C2B06D10A492F20FFF7D0FF0A4B187010BD4D2B09D1064928
:400480002F20FFF7C7FF044601F034F8204601F03DF810BDC081FF1FC181FF1F2A82FF1FDA81FF1F10B500240B4B1C7010E0A0B200F03EFC094B1B78984208DD2146022009
:4004C000FFF7E2FEC0B2044A1378184310700134072CECDD10BD00BF2682FF1FDB81FF1F00231FE0234AD25C012A1AD1224AD15C224A11701BB9FF22214B1A7014E0012B9F
:4005000003D1F0221E4B1A700EE0022B03D1E1221B4B1A7008E0032B06D1FF22184B1A7002E00133032BDDDD072320E0114AD25C012A1BD1104AD15C114A1170072B03D1D4
:40054000FF220E4B1A707047062B03D1F0220B4B1A707047052B03D1E122084B1A707047042B06D1FF22054B1A707047013B032BDCDC7047BC82FF1FD880FF1F2A82FF1F4A
:40058000DA81FF1F10B5002411E021460220FFF77BFEC0B2074B1B7830EA030303D10122054B1A5502E00022034B1A550134072CEBDD10BDB882FF1FBC82FF1F08B5034B46
:4005C0001870FFF7DFFFFFF78BFF08BDB882FF1FFEE700BFF0B40022174611E050F82760F3B226F0FF0608E001EB420511F812406D78A5550132013BDBB2002BF4D1013742
:40060000272FEBD9F0BC704708B50A46002101F0C6F908BD38B517222E4B1A8018232E4A13704D210232118002321370EF21023211800232137040F2AF410232118002329A
:40064000137040F65F1102321180023213700222224B1A7008224FF040231A70032103F5007319701E4B1B78DBB21E490B701E4B1A8041F25122023B1A80002419250CE013
:400680001A4B1B7803F0010343EA440404F003044FF4F07001F03CF9013D0DB1032CEFD115B90320FFF794FF114B4FF480721A8007221A7000220F490A70482002310870C8
:4006C0001A700222033B1A700B4A137843F01F03137038BD80400040824000400043004008010049A146004022420040254200400440004006400040A2430040F8B5204B47
:400700001B78DBB21F4E3478E4B21F4F3D78EDB203F007011D4A11701B090132137044F00303337045F003033B70FF22184B1A7080222F331A7041F2100220331A80502268
:4007400071331A704023134A137002321370202302F295121370F02188321170033213704FF481720C4B1A80012212331A700A2000F038FA3D7034704422084B1A70F8BD3E
:40078000CF010049F8460040F94600406E5800400D51004001590040465B00407658004008B501F0F1F808BD38B572B600240CE03B4D630019194A0011462A4408469188E2
:4007C0002858FFF721FF0134E4B2072CF0D900240BE03349A3001819420088181022416B006BFFF7DDFF0134E4B2002CF1D02D494FF09040FFF7EEFE04212B48FFF704FF90
:4008000004222A492A48FFF7CBFF2A4A137843F0020313701032137843F002031370264C237843F040032370A2F58632513A137843F010031370082220492148FFF7B0FFC6
:40084000082220492048FFF7ABFF05221F492048FFF7A6FF0A221F491F48FFF7A1FF08221E491F48FFF79CFF0A221E491E48FFF797FF1E4A137843F0080313701C4D61230B
:400880002B70FFF7C7FE81232B700122194B1A70FFF734FF0E2221461748FFF781FF38BD1C220000A000004800760040200A00480876004003500140A0430040E80900480C
:4008C00002510040F0090048C2510040F8090048CB510040000A0048105100400C0A004822510040140A004830510040224300400048004004000840B043004008B501F0A7
:4009000017F803680C2B00D1FEE7FEE708B5094B1A681044084BC31A802B02DC054B186005E001F005F80C2303604FF0FF32104608BD00BFE080FF1FE882FF1F08B5104E33
:40094000104D16E029686B68AC68002204E051F8040B43F8040B0432A242F8D1E868002203E0002143F8041B04328242F9D11035013E002EE6D100F0E1FFFFF707FCFEE776
:40098000010000000423000008B5114A114B1A60114A136843F40073136000230AE0032B03D80E4A52F8231000E00D490D4A42F8231001332F2BF2D90B4B1A780B4B1A7028
:4009C000084A0B4B1A60FFF7EFFE00F013F808BD0004FA050CED00E014ED00E000000000FD0800000080FF1FBC760040C080FF1F08ED00E00B4A7F2313708021517007E06A
:400A0000DA0002F1804202F5F042013BDBB21370002BF5D1DB0003F1804303F5F04300221A707047E480FF1F172815D831B103010A495A5C42F020025A5405E003010749C9
:400A40005A5C02F0DF025A540001044A835C43F00103835400207047012070471070004017280CD80001074BC1180A7942F004020A71C25C42F00102C254002070470120AE
:400A8000704700BF1070004017280BD80001064A835C03F0F103490001F00E011943815400207047012070471070004041F6FF73994201D14FF4005141F6FF739A4201D19D
:400AC0004FF40052172808D8C00000F1804000F5EC408180C280002070470120704700BF172805D8034B03EB0010417200207047012070471070004017281BD810B4C000BF
:400B000000F1804404F5EC44D201D2B201F07F01114321709DF804201201D2B203F00F03134363709DF8083003F00F03A3700020E07001E00120704710BC704710B500F066
:400B4000EFFE0A4B5B78182B0BD9084A1478013B5370E30003F1804303F5F0431B78137000E0FF2400F0E0FE204610BDE480FF1F10F0800F0CD111F4704F0BD1C00000F13E
:400B8000804000F5F04001808270C37000207047012070470120704710F0800F08D1C00000F1804000F5F0408180C280002070470120704701BE704710B5044605E0084B76
:400BC000186800F0A5FEA4F50044B4F5004FF6D8034B586800FB04F000F09AFE10BD00BFEC80FF1F08B5034B1B7A00FB03F000F08FFE08BDEC80FF1F10B541F6FF734FF499
:400C000080420121022000F099F9084C207041F6FF731A460121102000F0AEF96070044800F0C8F9042000F0CBF910BD8481FF1F4D0D000070B52C4C2078FFF711FF607854
:400C4000FFF70EFF294B1B78FF2B03D1FFF776FF264B1870254D2878062302461021FFF787FF214E341DA4B2224645F6A0312878FFF792FF29783078FFF732FF6B78FF2BAA
:400C800002D1FFF75BFF6870184D6878072302461021FFF76DFF164A92B221466878FFF77BFF114C69786078FFF71AFF01212078FFF7BAFE01216078FFF7B6FE00F030FE45
:400CC0000C4A137843F02003137000F02DFE0A4B1A7842F001021A701A7842F002021A701022064B1A6070BD8481FF1FFC80FF1FC482FF1F976500407465004080E200E045
:400D000008B5074B5B6923B9FFF776FF0122044B5A6100F0FDF8FFF78DFF024B1B7808BD8481FF1F6965004008B500F0FFF808BDC0F10700034B33F91030034A1088181A3D
:400D400000B27047C482FF1FD682FF1F704700BF044A137803F0FE0300F0010018431070704700BF30510040024B187800F00100704700BF31510040044A137803F0FD0318
:400D8000400000F0020018431070704730510040044A137803F0FB03800000F0040018431070704730510040044A137803F0F703C00000F00800184310707047305100404C
:400DC000044A137803F0EF03000100F010001843107070473051004008B50A280FD00C2802D0082806D102E04FF4805209E04FF4807206E00020FFF7DDFE002201E04FF4D4
:400E000080620021094B198042F2107303FB02F303F6C413064A82FB0302DB17C3EBE223044A1360044B198008BD00BFD482FF1FAD8BDB68DC82FF1FD682FF1F10B500F00E
:400E40006FFD0446184A137843F0010313701032137843F00103137002F5AA520832137843F0030313701822104B1A70013B1A7842F040021A701A7802F0FC021A70C82239
:400E8000053B1A700222A3F597530C3B1A70084A137843F0080313700A20FFF7A3FE204600F042FD10BD00BFAB43004006590040275B004010B504460A280DD00C2802D0BE
:400EC000082804D101E0C22207E0422205E00020FFF770FEC22200E08222034B1A702046FFF77AFF10BD00BF0259004008B5064A137843F0060313700820FFF7DBFF0022C7
:400F0000024B1A8008BD00BF01590040D882FF1F08B5054B1B7823B9FFF7E8FF0122024B1A70FFF78BFF08BD9C81FF1F024A137843F001031370704700590040F0B583B0A8
:400F400016461F460B4C012525700023019300932B460A4601462846FFF7CEFD3A4631462078FFF7A3FD02212078FFF78DFD207803B0F0BDFE80FF1FF0B583B016461F4690
:400F80000B4D00242C700194009423460A4601462046FFF7B1FD3A4631462878FFF786FD02212878FFF770FD287803B0F0BD00BFFF80FF1F014B1B681865704708ED00E07C
:400FC0004001C0B2014B1870704700BF04E400E0024B1878C0F34010704700BF31510040024B1878C0F38010704700BF31510040024A137843F080031370704778650040D8
:40100000014B1870704700BF08650040014B1870704700BF48650040014B1870704700BF28650040014B1870704700BF38650040014B1870704700BF88640040014B1878F2
:40104000704700BF68640040014B1878704700BF5865004008B501E0FFF7F6FFFFF7EEFF10F0100FF8D108BD08B5134A137803F0C00343F0090313702032137843F0010355
:401080001370FF20FFF7BCFFFF20FFF7BFFF0020FFF7C2FF0020FFF7C5FF0020FFF7C8FF00F03EFC054A137843F01003137000F03BFCFFF7CFFF08BD7865004098640040A6
:4010C00008B5054B1B7823B9FFF7CEFF0122024B1A70FFF78DFF08BD9D81FF1F10B50B4C237803F09F032370237803F0F00323702378184340F0100020700120FFF772FDF5
:40110000237803F0EF03237010BD00BF2051004038B505460E4C237843F020032370237803F0BF0323700020FFF75CFD237803F0F003237023781D4345F0100525700120E8
:40114000FFF750FD237803F0EF03237038BD00BF2051004070B5354B1A7802F08002D2B21A7033490A7802F0F00242F00F020A7001310A7802F0F0020A7001310A7802F0A4
:40118000F0020A701A7802F0DF021A701A7842F040021A704FF4CA760020FFF723FD234D2B7843F010032B700120FFF71BFD214B1C78E4B22B7803F0EF032B700020FFF799
:4011C00011FD04F00804E4B22B7843F010032B700120FFF707FD2B7803F0EF032B7014B90A20FFF7FFFC013E0CB1002ED4D10F4A137803F0BF031370137803F08003DBB228
:4012000013700232137803F0F00313700132137803F0F00343F00F0313700132137803F0F00343F00F03137070BD00BF20510040225100402151004010B50446FFF78AFF9B
:401240002009FFF765FF04F00F00FFF761FF10BD08B5FFF7F1FF08BD10B50446FFF77AFF2009FFF73BFF04F00F00FFF737FF10BD08B52820FFF7A0FC0320FFF72FFF052087
:40128000FFF79AFC0320FFF729FF0F20FFF794FC0320FFF723FF0120FFF78EFC0220FFF71DFF0520FFF788FC0620FFF7D5FF0E20FFF7D2FF2C20FFF7CFFF0820FFF7CCFF1F
:4012C0000120FFF7C9FF0C20FFF7C6FF0320FFF7C3FF0520FFF770FC014800F053F808BD6822000008B50C20FFF7B6FF0122014B1A7008BD9E81FF1F08B5054B5B7823B9A8
:40130000FFF7B6FF0122024B5A70FFF7EBFF08BD9E81FF1F08B5032819D8DFE800F002070D1381F08000FFF797FF08BDA1F14000C0B2FFF791FF08BDA1F16C00C0B2FFF7F6
:401340008BFF08BDA1F12C00C0B2FFF785FF08BD38B504460309054DE85CFFF779FF04F00F04285DFFF774FF38BD00BF5822000010B50446000AFFF7EBFFE0B2FFF7E8FFDD
:4013800010BD00BF38B50546FFF7E4FE4020FFF763FF002404E0285DFFF74EFF0134E4B23F2CF8D9FFF7D6FE8020FFF755FF38BD014B1B685865704708ED00E04001C0B28E
:4013C000014B1870704700BF05E400E02022014B1A60704700E100E02022014B1A60704780E100E010B50446FFF7F6FF2046FFF7DFFF0720FFF7E2FFFFF7E8FF10BD00BFBF
:40140000084A137843F0010313701032137843F00103137002F64D32137843F001031370704700BFA3430040014B1870704700BF034F0040014B1880704700BF044F00406D
:40144000014B1880704700BF064F004008B51F4A137803F0010313701D4B1A7802F0FC021A701A7802F0F3021A701A7842F00C021A701A7802F07F021A701A7842F08002AA
:401480001A701A78D2B21A7009331A7802F0CF021A701A7842F030021A701A7802F0F0021A701A7842F00F021A700A4A137843F0010313704FF6FF70FFF7BCFF4FF6FF7056
:4014C000FFF7BEFF0420FFF7AFFF08BD004F0040024F0040014F004008B5054B1B7823B9FFF7B4FF0122024B1A70FFF789FF08BDA081FF1F044A137803F0FB03800000F021
:40150000040018431070704710510040044A137803F07F03C001C0B218431070704700BF10510040014B1B689864704708ED00E04001C0B2014B1870704700BF02E400E0E7
:401540000422014B1A60704700E100E00422014B1A60704780E100E010B50446FFF7F6FF2046FFF7DFFF0720FFF7E2FFFFF7E8FF10BD00BF7222084B1A702022A3F201132C
:401580001A700622693B1A70472210331A70002254331A70704700BF8A65004010B500F0BFF904460A4A137843F020031370A2F20112137843F010031370053A137843F0D6
:4015C0001003137000F040F8204600F0ADF910BD9A65004008B5054B1B7823B9FFF7CAFF0122024B1A70FFF7D9FF08BDA181FF1F014B1878704700BF49650040024B187800
:4016000000F07F00704700BF69640040034B1B7813F0040FFAD1024B18707047646400404464004038B5074B1B782BB938BDFFF7EDFF0134A4B201E005460024285D002865
:40164000F5D138BDA181FF1F054A137843F0020313701032137843F002031370704700BFA2430040084A137843F060031370A2F5A652133A137843F00803137010321378CC
:4016800043F008031370704777580040054B1A7802F0FC021A701A7800F0030010431870704700BF5E58004008B50320FFF7EEFF08BD00BF08B5054B1B7823B90122034B47
:4016C0001A70FFF7F1FFFFF7CDFF08BDA381FF1F054A137843F0080313701032137843F008031370704700BFA8430040054B1A7802F0FD021A701A7800F00200104318702B
:40170000704700BF2C580040014B1870704700BF835B0040064B1B78C3F3810303F19243063393F83831DBB2024A1370704700BF2C5800400B46004008B5064B1A7802F03A
:40174000F3021A701A7800F00C0010431870FFF7E1FF08BD2C58004008B50023054A1370013213700420FFF7E7FF0220FFF7BEFF08BD00BF2C58004008B5074B1B7823B91F
:40178000FFF7EAFF0122044B1A70FFF7A1FFD020FFF7BAFF08BD00BFA481FF1F014B1B681864704708ED00E04001C0B2014B1870704700BF00E400E00122014B1A6070471A
:4017C00000E100E00122014B1A60704780E100E010B50446FFF7F6FF2046FFF7DFFF0720FFF7E2FFFFF7E8FF10BD00BF084A137843F0020313701032137843F0020313708C
:4018000002F65932137843F001031370704700BFA3430040014B1870704700BF0F4F0040014B1880704700BF104F0040014B1880704700BF124F004008B5164A137803F0CD
:40184000010313700232137803F0FC031370124B1A7802F0CF021A701A7842F030021A701A7802F0F0021A701A7842F00F021A700A4A137843F0010313704FF6FF70FFF74F
:40188000CFFF4FF6FF70FFF7D1FF0820FFF7C2FF08BD00BF0C4F0040174F00400D4F004008B5054B1B7823B9FFF7C6FF0122024B1A70FFF79BFF08BDA581FF1F014B1B6807
:4018C000D864704708ED00E04001C0B2014B1870704700BF03E400E00822014B1A60704700E100E00822014B1A60704780E100E010B50446FFF7F6FF2046FFF7DFFF0720B1
:40190000FFF7E2FFFFF7E8FF10BD00BF000000000230800803D000BF01380046FCD17047EFF3108072B6704780F31088704700BF014B1868704700BF6081FF1F0E4B70B587
:401940001E460E4C0025E41AA410A54204D056F8253098470135F8E700F0C2FC084B094C1E46E41AA4100025A54204D056F8253098470135F8E770BDEC220000EC22000054
:40198000EC220000F422000010B5431E0A44914204D011F8014B03F8014FF8E710BD03460244934202D003F8011BFAE7704700000EB400B54FF402719CB0ADF814106FF016
:4019C0000041049107914FF6FF711DAB02900690084853F8042BADF81610006802A9019300F06CF8029B00221A701CB05DF804EB03B070476081FF1F034613F8012B002AD8
:401A0000FBD1181A013870472DE9F0478E6882469E420C46914698463ED88A8912F4906F3AD02568096902236F1A656905EB450595FBF3F57B1C43449D4238BF1D465305B2
:401A40000FD5294600F040FB064698B13A462169FFF79AFFA38923F4906343F08003A38113E02A4600F08EFB064670B92169504600F0DEFA0C23CAF80030A3894FF0FF30B6
:401A800043F04003A381BDE8F08726613E44266046466561ED1BA560464528BF464649463246206800F0A8FAA36800209B1BA36023681E442660BDE8F08700002DE9F04F9B
:401AC0009DB003938B8980461C060D4616460DD50B695BB9402100F0F7FA2860286118B90C23C8F80030CDE040236B610023099320238DF82930DFF89CB130238DF82A3099
:401B000037463C4614F8013B1BB9B7EB060910D003E0252BF9D02746F3E74B46324629464046FFF771FF013000F0A780099B4B4409933B78002B00F0A08000234FF0FF32BA
:401B400004930793059206938DF853301A930126052221784E4800F041FA671C049B38B14B4A3C46801A06FA00F018430490EFE7D90644BF20228DF853201A0744BF2B22A9
:401B80008DF8532022782A2A03D0079A00210A200BE0039A111D12680391002A10DA524243F00200079204900BE027463B780134303B092B03D800FB02320121F5E701B119
:401BC00007923B782E2B1ED17B782A2B0AD1039B02371A1D1B680392002BB8BF4FF0FF33059310E0002319460593781C0A2407463A780130303A092A03D804FB01210123A4
:401C0000F5E703B1059103223978224800F0E6F940B14023CBEB000003FA00F0049B013718430490397806221B487E1C8DF8281000F0D4F988B1194B33B9039B073323F0EE
:401C400007030833039314E003AB00932A46144B04A94046AFF3008007E003AB00932A460F4B04A9404600F093F8B0F1FF3F824603D0099B5344099342E7AB895B0601D4AC
:401C8000099801E04FF0FF301DB0BDE8F08F00BFAA220000B0220000B422000000000000091A00002DE9F04791461F460A698B6806469342B8BF1346C9F8003091F8432030
:401CC0000C46DDF8208012B10133C9F800302368990642BFD9F800300233C9F80030256815F0060510D104F1190A07E00123524639463046C04701301AD00135E368D9F841
:401D000000209B1A9D42F1DB94F843302268003318BF012392060FD5E118302081F843005A1C94F845102244023382F8431003E04FF0FF30BDE8F08704F143023946304690
:401D4000C0470130F4D02268D9F80050E36802F00602042A08BF5D1B2269A3680CBF25EAE57500259342C4BF9B1AED184FF000091A344D4509D00123224639463046C04780
:401D80000130D5D009F10109F3E70020BDE8F0872DE9F04317460A7E85B06E2A984606460C460C9B01F1430E00F0AE8011D8632A22D009D8002A00F0BB80582A40F0CA801A
:401DC00081F84520834955E0642A1ED0692A1CD0C0E0732A00F0B08009D86F2A2ED0702A40F0B8800A6842F020020A603EE0752A24D0782A3AD0ADE01A6801F14205111D2F
:401E00001960136884F84230A8E021681A6811F0800F02D0111D196008E011F0400F02F10401196002D0B2F9003000E01368002B3CDA2D225B4284F8432037E021681A6845
:401E400011F0800F02D0111D196007E011F0400F02F10401196001D0138800E01368227E5C496F2A14BF0A2208221BE078225A4984F845202268186812F0800F00F1040535
:401E80001D6003D1550601D5038800E00368D00744BF42F0200222601BB9226822F0200222601022002084F8430001E049490A226568002DA56008DB206820F00400206058
:401EC0002BB9002D7DD175460CE0002B79D07546B3FBF2F002FB1033CB5C05F8013D03460028F5D1082A0BD12368DA0708D5236962689A42DEBF302305F8013C05F1FF3567
:401F0000C5EB0E0323612EE008681A6810F0800F496903D0101D1860136808E010F0400F02F104001860136801D0198000E0196000232361754616E01A68111D1960156846
:401F400000216268284600F049F808B1401B6060636804E004F1420584F8422001232361002384F84330CDF800803B4603AA21463046FFF797FE013002D14FF0FF3026E02D
:401F800023692A4639463046C0470130F5D023689B0710D5002504F1190907E001234A4639463046C0470130E7D00135E368039A9B1A9D42F2DBE068039B9842B8BF184652
:401FC00005E00B7804F1420584F842308AE705B0BDE8F083BB220000CC22000010B5C9B202449042034605D01C7801308C42F8D1184610BD002010BD884210B501EB0203DC
:4020000001D8421E0BE09842FBD28118D21AD34204D013F8014D01F8014DF8E710BD994204D011F8014B02F8014FF8E710BD000038B50546002944D051F8043C0C1F002BCD
:40204000B8BFE41800F0D4F81E4A1368114613B96360146030E0A3420DD92268A018834201BF18685B681218226063600C6023E0A24203D813465A68002AF9D118681918B2
:40208000A1420BD12168014458188242196013D110685268014419605A600DE002D90C232B6009E021686018824201BF106852680918216062605C602846BDE8384000F09B
:4020C00098B838BDAC81FF1F70B5CD1C25F0030508350C2D38BF0C25002D064601DBA94202D90C23336046E000F082F8234B1C681A462146A1B10B685B1B0ED40B2B03D932
:402100000B60CC18CD501EE08C420BBF63684B681360636018BF0C4615E00C464968E9E7174C23681BB9304600F052F820602946304600F04DF8431C18D0C41C24F00304AA
:40214000A0420DD12560304600F053F804F10B00231D20F00700C31A0ED05A42E25070BD211A304600F034F80130EBD10C233360304600F03EF8002070BD00BFAC81FF1FED
:40218000A881FF1FF8B5074615460E4621B91146BDE8F840FFF798BF1AB9FFF749FF2846F8BD00F027F885420ED929463846FFF78BFF044650B131462A46FFF7E5FB3146F7
:4021C0003846FFF735FF01E03046F8BD2046F8BD38B5064C0023054608462360FEF796FB431C02D1236803B12B6038BDE082FF1F7047704751F8040C0028BEBF091851F8C5
:40220000043CC0180438704700000000492F25732F0D0000542F25732F0D0000004F00401800405100403000F0510040100000000140001000140140000800400140000A7E
:40224000004C0140000210500140100000500140D80900481000000030313233343536373839414243444546000E0808080E0000000A0A0404040000000E0A0E0808000028
:40228000000E0A0C0A0A0000000E080C080E0000000E080E020E0000000E080E020E000000040404000400004300232D302B2000686C4C006566674546470030313233340A
:4022C0003536373839414243444546003031323334353637383961626364656600000000F8B500BFF8BC08BC9E4670474D00000089090000F8B500BFF8BC08BC9E467047F7
:402300002900000018230000C880FF1FA00000008001000000000000000000003882FF1F3882FF1FC081FF1F000F233C3C230F00E882FF1F7F800000030000000000E02E2F
:40234000C05D00001800000000366E01FFFFFFFF0000000000000000000000000000000000000000000000000000000000000000A8220000000000000000000000000000BD
:402380000000000000000000000000000000000000000000000000000000000000000000000000000000000000000000000000000081FF1F0000000000000000000000007E
:4023C00000000000000000000000000000000000000000000000000000000000000000000000000000000000000000000000000000000000000000000000000000000000DD
:40240000000000000000000000000000000000000000000000000000000000000000000000000000000000000000000000000000000000000000000000000000000000009C
:40244000000000000000000000000000000000000000000000000000000000000000000000000000000000000000000000000000000000000000000000000000000000005C
:40248000000000000000000000000000000000000000000000000000000000000000000000000000000000000000000000000000000000000000000000000000000000001C
:020000040003F7
:0200000480007A
:40000000044F004006520040015B00400364004002650040240001403701014044020140450301402E040140440501400A0701402908014040090140080B01400E0D0140C2
:400040000D0E0140260F01401D14014048150140291601403D1701406018014042190140331A0140491B01400D4001401E4101401842014009430140044401400445014098
:4000800005460140084701400C480140044901400D4C0140094D0140055001400451014001800A360D20164B003901A508280960604064802784840F880F893887078A7239
:4000C00003010A01150216011C01200121032D032E013001370339883E013F444005470449FF4A074BFF4C404D204EF04F055008580459045A045D015F01604061A862409E
:400100006320D804D904DF01006003500610088009280A800BC00E080F421104124113101581160817501A4020022320288829802A422B202E082F423108324033103685A0
:40014000380439823A113B113F0448014B0150085C085D0480448204832284088521869087078F20C02FC2DFC4DFCADFCCDECE4FD208E20AE61C09030A0F0B040F071402BD
:400180001501160D170618071A081C0F1D07240F2507280129052A0E2B022C0F2D073002310232013404350136083704580459045F0181118306841485408B0C8C0C8E7191
:4001C00094DC950C962297139A039C109EACA120A303A409A6D0A810AA40AB08AD11AE20AF0EB140B30FB41FB530B6E0B920BA80BB08BF01D804D904DB04DC11DF01018054
:4002000002100420088009080A040C400D400E0A0F10100C1201130415541710180819801A041C801D101F48211C238426422708280429802A012D542F02310834403684A0
:40024000380839203A023FD06B02830887028B808D108F089106924093109580974098809A019D809E029F10A008A204A302A410A508A601B601B710C045C2E7C4E7CA7DAA
:40028000CC52CE37E250E801050A07040B080F05100111031304151019031B042103230C2D10310F3201331039083B023E043F0440144105450C46BE480D49FF4AFF4BFFBB
:4002C0004EF04F44500C54015604580459045A045B045C105D115F0166C06A406B02D804D904DF0100480120031004600520071008410B800C400F10114413101544190453
:400300002010238028022A022D6430283212368039283A803C483F104101428246024780483049804A0252105340580159045A6063408740916E9240931094209840998039
:400340009E129F10A410A680AA02B040B240B340B410B740C0E7C2A9C4A7CA79CC17CE7ED009D208D60FD801EA20EEA08A808C4090109460A40CA680B402E210E601EE044F
:4003800007010A050B011808260428012E0A300832013402350136043F105407580459045B045C035D305F018A028E02920196049F01A201A701B002B204B401B501BE117A
:4003C000BF10D418D604D804D904DB04DC04DD10DF010020018006080A800B200D20108016211710180419041B011D601E602008270828202B042C022D102F8030223140A9
:4004000033043401370439303A023B083D603E223F044104430459015D015E605F0860846302810488048B848C808D408F0495289C209D409E02A280A704C043C24CC4E82F
:40044000CAB6CCCFCEF7D6F1D80DE0C0E210EA10EE0495289C209D409E02A280A704B710EC4095289C209D409E029F10A280A704AB80B410B580B742E420E810EC401F01E5
:40048000250131013F015608580459045B045D905F01D804D904DF0101A0046007320B100F1811441322154C16022201282029202B442D04314033103580371238403928E6
:4004C0003A023B103E023F185B8062808304851486028A01C0E3C264C4AFCA47CCBCCEEFD608D8080002040107040E10120118041E021F012204230226082C083104321FCC
:400500003302370138083E0452035302580459045B045F019201B401D804D904DF0102C4032205140780082109800A200C110F101040110512021320164017201820190497
:400540001A201D101F202040228A2390285029202A442B102F20318433203520368A3720384039043B103FA060206208680869406A908010824083408E809105946095408B
:40058000961098119B20A180A302A408A688A760AB04B108B208B320B520C07FC27FC45FCA4FCCFECE3EE004E401E810EC0400010801120118012201240128013601580443
:4005C00059045F01820286018A048B018E0890019440968098109A209C029F02A004A408A820AA10AC80AE40B0FFB302B501BA08BE11D602D739D804D904DB0CDC01DF018B
:40060000004001020298032505020704081109A80D210E400F8010021115161017211A041B061E012008212C2330281029022E402F203248332036883840391A3C483F10C9
:400640005A106010680269156A80718073047940840187048A04901094609601A40CA680B201C05FC25FC47FCA53CC5ECE7FD604D802DE08E624EC02EE80060407020B0125
:400680000E0414011F0422032F013202330234043504360137013E104020410345D24715483349FF4AFF4BFF4DA04F0450185280580C59045A045B045C305D335F01604083
:4006C00062C06440654066C068C06AC06CC06EC0800A825183018C80900192269304949F98149A499F02A49FA504AD01B007B103B280B418B504B660BE40BF10C063C10406
:40070000C205C401C50CC60EC805C9FFCAFFCBFFCC62CDA0CEF0CF41D00CD401D804D904DA04DB0CDC91DD01DF01E640E702E910EA30EB10ED10EE10EF1200020140050834
:4007400007010A640E101104150218111A441D401E101F90212125102711282029402F0232803301374039023C083D20405145104708481049904D014F04508054045609A0
:40078000570259405F0C77407A037E02838089209529968097049C219D819E0B9F10A280A304A492A510AF10B021C0A9C22EC414CA1ACC19CE61D06BD20CD608DE1800413F
:4007C00004F30518060C09080AF30CFF0D7F10C31304140F153C16F017411882193C1B421C1C1D101EE3200824042703280C29672B182D042F8030C03180322C3320340FCA
:40080000351F361C374039803A283B203F0456025712580459045B045C115D105F01D804D904DF01005602040402062208800A540C080F0810A013101508171418041991BA
:400840001A101B0820082120224629502A042C092E022F0230803120320233083420370438683E203F085A0869446A2070B4731082018312888589408C21905091089244AF
:40088000954496A09A229C019D91A008A304A401A601A840B008B114B202B310B422B508B620C0BFC26FC46ECABECC6FCE6ED602E040E890ECE010201680324033083640BC
:4008C000370839403B023E808C01C430CCF0CE7033105004520257045E40620863016410664069406B10824086018C048F0490019540968097029F08A640A708A820CC1079
:40090000D4E0D6E0D8C0E220E640E88017081B043F085A025C018640900192029540968097029E409F08A640A708AB01B010B20AC420C610CE80D6C0E640EA8083088E40AF
:40094000954096809E40A708AB01E680EE207D808B10DE04E00489409320A540E4041B0424109320C608C80144028B409320AB04B410D004E004EA082408661081408A10BD
:4009800095409C80AC80B240C820D880E620EC4008809C80B404C240010256206180634067208A2093609C02C008D402D602D803E40114408840B180B402B502C404E201FE
:4009C000E80CEA02100B11011A031C0B1D0100FF010F040C100A00001B01000000000000030003011B0001010000000000FFFF00A05050004000005000A000505000000001
:400A0000840001FCFC00780000000000007F7F00000000006000007F1F000000000000000001000000000000000000000000000000000000000000000000000000000000C4
:400A40000000000000000000000000000000000000000000000000000000000000000000000000000000000000000000000000000000000000000000000000000000000076
:400A80000000000000000000000000000000000000000000000000000000000000000000000000000000000000000000000000000000000000000000000000000000000036
:400AC00000000000000000000000000000000000000000000000000000000000000000000000000000000000000000000000000000000000000000000000000000000000F6
:400B000000000000000000000000000000000000000000000000000000000000000000000000000000000000000000000000000000000000000000000000000000000000B5
:0200000490006A
:0400000000004007B5
:0200000490105A
:04000000BC90ACAF55
:0200000490303A
:020000003F18A7
:0200000490402A
:4000000000000000000000000000000000000000000000000000000000000000000000000000000000000000000000000000000000000000000000000000000000000000C0
:400040000000000000000000000000000000000000000000000000000000000000000000000000000000000000000000000000000000000000000000000000000000000080
:400080000000000000000000000000000000000000000000000000000000000000000000000000000000000000000000000000000000000000000000000000000000000040
:4000C0000000000000000000000000000000000000000000000000000000000000000000000000000000000000000000000000000000000000000000000000000000000000
:0200000490501A
:0C00000000012E16106900012E264F8111
:00000001FF