:400000000080002011000000590800005908000008B5044B1A6803F53F5302331A6000F03BFC00BFFA46004010B5054C237833B9044B13B10448AFF300800123237010BD7E
:400040006881FF1F0000000038210000084B10B51BB108490848AFF300800848036803B910BD074B002BFBD0BDE81040184700BF000000006C81FF1F38210000C880FF1F10
:4000800000000000704700BF08B500F0E7FD00F0F9FD01F0B1F800F089FF01F0B5F901F003FB01F09FFA01F02DFA01F091FBFF23024A1370024A137008BD00BFBE81FF1FF3
:4000C000B081FF1F38B505460C460021084601F0A1F8094801F032F80921002001F09AF8A8B201F0B5F80921012001F093F8A0B201F0AEF838BD00BF3C210000884205D39A
:40010000013A904204DC411CC8B27047084670470846704702460023012003E002FB00F0C0B201338B42F9DB704700BF70B506460D46002413E0E1B2E8B201F06BF821465E
:400140000220FFF7E7FFC0B230EA060303D1012001F07EF802E0002001F07AF80134072CE9DD70BD08B562B664222E4B1A70FFF78BFF2D4801F0CEF82C4801F085F92C486F
:4001800001F0BEFA2B4801F04BFB0021084601F041F8294800F0D2FF002000F0B3FE002000F0B6FE002001F03DF9002001F046F900F08CFE0128FBD0204B187800F0A2FE0C
:4001C0001F4B187800F0A4FE012001F02BF9012001F034F9012000F0BFFF00F051F820B100F058F808B100F009F9164C022200212078FFF783FF2070114C104D2178287800
:40020000FFF760FF104E01213078FFF78FFF307800F082F9287800F075FE207800F078FEDBE700BFDA81FF1F51040000850000004D0200002103000048210000BE81FF1F9C
:40024000B081FF1FD481FF1F2682FF1F38B50DE0094C25686B1C236001F062F928702268064B9A4202D3A3F18002226001F05EF910F0200FECD138BDCC80FF1FB882FF1F3D
:40028000034B18685B68C01A18BF0120704700BFCC80FF1F10494B685A1C4A601B780F498A4202D380390C4A51600D2B01D00A2B09D1094A936800211970094B93601B7899
:4002C00043B90846704704498A68501C886013700020704701207047CC80FF1FB882FF1FC081FF1F014618B90C4B30221A705A7001230FE001F00F02092A05D8303207482C
:40030000C254013BDBB204E037320448C254013BDBB209090029EDD1704700BFD881FF1F10B584B000F0CEFCC043C0B200F0BEFC0E4B1878FFF7D6FF0D4C22460D4901A83A
:4003400001F0CEFA01A801F005F9002000F09EFCC0B2FFF7C7FF2246074901A801F0C0FA01A801F0F7F804B010BD00BF2682FF1FD881FF1F5C2100006421000038B5044609
:4003800001F0D2FAC0B2421E0020012514E0A35CA3F13001C9B2092904D8303B05FB03002D0108E0A3F14101C9B2052903D8373B05FB03002D01013A002AE8DAC0B238BD18
:4003C00070B506460D4600240DE02B5DB34209D1E31CEB5C9E4205D12A195178064B197092785A700134284601F09EFA8442ECD30148FFF7C3FF70BDD881FF1F10B5104BA5
:400400001B78522B06D10F492F20FFF7D9FF0E4B187010BD4C2B06D10A492F20FFF7D0FF0A4B187010BD4D2B09D106492F20FFF7C7FF044600F0F6FF204600F0FFFF10BD57
:40044000C081FF1FC181FF1FBE81FF1FB081FF1F10B500240D4B1C7010E0A0B200F016FC0B4B1B78984208DD21460220FFF752FEC0B2064A1378184310700134072CECDD30
:40048000024A1378DB43137010BD00BF2682FF1FDA81FF1F002309E00D4AD25C012A04D10C4AD25C0C4B1A7002E00133032BF3DD072309E0064AD25C012A04D1054AD25CE1
:4004C000064B1A707047013B032BF3DC704700BFBC82FF1FD880FF1FBE81FF1FB081FF1F10B5002411E021460220FFF713FEC0B2074B1B7830EA030303D10122054B1A55A6
:4005000002E00022034B1A550134072CEBDD10BDB882FF1FBC82FF1F08B5034B1870FFF7DFFFFFF7B7FF08BDB882FF1FFEE700BFF0B40022174611E050F82760F3B226F0D7
:40054000FF0608E001EB420511F812406D78A5550132013BDBB2002BF4D10137242FEBD9F0BC704708B50A46002101F0B0F908BD38B517222E4B1A8018232E4A13704D2119
:400580000232118002321370EF21023211800232137040F2AF41023211800232137040F65F1102321180023213700222224B1A7008224FF040231A70032103F500731970EA
:4005C0001E4B1B78DBB21E490B701E4B1A8041F25122023B1A80002419250CE01A4B1B7803F0010343EA440404F003044FF4F07001F026F9013D0DB1032CEFD115B90320D4
:40060000FFF794FF114B4FF480721A8007221A7000220F490A704820023108701A700222033B1A700B4A137843F01F03137038BD8040004082400040004300400801004952
:40064000A146004022420040254200400440004006400040A2430040F8B5204B1B78DBB21F4E3478E4B21F4F3D78EDB203F007011D4A11701B090132137044F00303337096
:4006800045F003033B70FF22184B1A7080222F331A7041F2100220331A80502271331A704023134A137002321370202302F295121370F02188321170033213704FF4817251
:4006C0000C4B1A80012212331A700A2000F038FA3D7034704422084B1A70F8BDCF010049F8460040F94600406E5800400D51004001590040465B00407658004008B501F091
:40070000DBF808BD38B572B600240CE03B4D630019194A0011462A44084691882858FFF721FF0134E4B2072CF0D900240BE03349A3001819420088180622416B006BFFF796
:40074000DDFF0134E4B2002CF1D02D494FF09040FFF7EEFE04212B48FFF704FF04222A492A48FFF7CBFF2A4A137843F0020313701032137843F002031370264C237843F0A0
:4007800040032370A2F58632513A137843F010031370082220492148FFF7B0FF082220492048FFF7ABFF05221F492048FFF7A6FF0A221F491F48FFF7A1FF08221E491F48DE
:4007C000FFF79CFF0A221E491E48FFF797FF1E4A137843F0080313701C4D61232B70FFF7C7FE81232B700122194B1A70FFF734FF0E2221461748FFF781FF38BD6C21000085
:400800009400004800760040C00800480876004003500140A0430040880800480251004090080048C251004098080048CB510040A008004810510040AC080048225100407F
:40084000B408004830510040224300400048004004000840B043004008B501F001F803680C2B00D1FEE7FEE708B5094B1A681044084BC31A802B02DC054B186005E000F0E6
:40088000EFFF0C2303604FF0FF32104608BD00BFE080FF1FE882FF1F08B5104E104D16E029686B68AC68002204E051F8040B43F8040B0432A242F8D1E868002203E0002181
:4008C00043F8041B04328242F9D11035013E002EE6D100F0CBFFFFF745FCFEE7010000004422000008B5114A114B1A60114A136843F40073136000230AE0032B03D80E4AE5
:4009000052F8231000E00D490D4A42F8231001332F2BF2D90B4B1A780B4B1A70084A0B4B1A60FFF7EFFE00F013F808BD0004FA050CED00E014ED00E000000000590800003C
:400940000080FF1FBC760040C080FF1F08ED00E00B4A7F2313708021517007E0DA0002F1804202F5F042013BDBB21370002BF5D1DB0003F1804303F5F04300221A7070475C
:40098000E480FF1F172815D831B103010A495A5C42F020025A5405E0030107495A5C02F0DF025A540001044A835C43F00103835400207047012070471070004017280CD85A
:4009C0000001074BC1180A7942F004020A71C25C42F00102C254002070470120704700BF1070004017280BD80001064A835C03F0F103490001F00E01194381540020704774
:400A0000012070471070004041F6FF73994201D14FF4005141F6FF739A4201D14FF40052172808D8C00000F1804000F5EC408180C280002070470120704700BF172805D8CA
:400A4000034B03EB0010417200207047012070471070004017281BD810B4C00000F1804404F5EC44D201D2B201F07F01114321709DF804201201D2B203F00F031343637049
:400A80009DF8083003F00F03A3700020E07001E00120704710BC704710B500F0D9FE0A4B5B78182B0BD9084A1478013B5370E30003F1804303F5F0431B78137000E0FF240F
:400AC00000F0CAFE204610BDE480FF1F10F0800F0CD111F4704F0BD1C00000F1804000F5F04001808270C37000207047012070470120704710F0800F08D1C00000F18040E1
:400B000000F5F0408180C280002070470120704701BE704710B5044605E0084B186800F08FFEA4F50044B4F5004FF6D8034B586800FB04F000F084FE10BD00BFEC80FF1FBC
:400B400008B5034B1B7A00FB03F000F079FE08BDEC80FF1F10B541F6FF734FF480420121022000F069F9084C207041F6FF731A460121102000F07EF96070044800F098F9E5
:400B8000042000F09BF910BD8481FF1FA90C000070B52C4C2078FFF711FF6078FFF70EFF294B1B78FF2B03D1FFF776FF264B1870254D2878062302461021FFF787FF214ECA
:400BC000341DA4B2224645F6A0312878FFF792FF29783078FFF732FF6B78FF2B02D1FFF75BFF6870184D6878072302461021FFF76DFF164A92B221466878FFF77BFF114C39
:400C000069786078FFF71AFF01212078FFF7BAFE01216078FFF7B6FE00F01AFE0C4A137843F02003137000F017FE0A4B1A7842F001021A701A7842F002021A701022064B9E
:400C40001A6070BD8481FF1FFC80FF1FC482FF1F976400407464004080E200E008B5074B5B6923B9FFF776FF0122044B5A6100F0CDF8FFF78DFF024B1B7808BD8481FF1FD1
:400C80006864004008B500F0CFF808BDC0F10700034B33F91030034A1088181A00B27047C482FF1FD682FF1F704700BF044A137803F0FE0300F0010018431070704700BF9E
:400CC00030510040024B187800F00100704700BF3151004008B50A280FD00C2802D0082806D102E04FF4805209E04FF4807206E00020FFF70DFF002201E04FF480620021EC
:400D0000094B198042F2107303FB02F303F6C413064A82FB0302DB17C3EBE223044A1360044B198008BD00BFD482FF1FAD8BDB68DC82FF1FD682FF1F10B500F089FD044642
:400D4000184A137843F0010313701032137843F00103137002F5AA520832137843F0030313701822104B1A70013B1A7842F040021A701A7802F0FC021A70C822053B1A7026
:400D80000222A3F597530C3B1A70084A137843F0080313700A20FFF7D3FE204600F05CFD10BD00BFAB43004006590040275B004010B504460A280DD00C2802D0082804D13A
:400DC00001E0C22207E0422205E00020FFF7A0FEC22200E08222034B1A702046FFF77AFF10BD00BF0259004008B5064A137843F0060313700820FFF7DBFF0022024B1A80B6
:400E000008BD00BF01590040D882FF1F08B5054B1B7823B9FFF7E8FF0122024B1A70FFF78BFF08BD9C81FF1F024A137843F001031370704700590040F0B583B016461F46CF
:400E40000B4C012525700023019300932B460A4601462846FFF7FEFD3A4631462078FFF7D3FD02212078FFF7BDFD207803B0F0BDFE80FF1FF0B583B016461F460B4D002446
:400E80002C700194009423460A4601462046FFF7E1FD3A4631462878FFF7B6FD02212878FFF7A0FD287803B0F0BD00BFFF80FF1F014B1B681865704708ED00E04001C0B2B6
:400EC000014B1870704700BF04E400E0024B1878C0F34010704700BF31510040024A137843F080031370704774650040014B1870704700BF04650040014B1870704700BFAB
:400F000044650040014B1870704700BF24650040014B1870704700BF34650040014B1870704700BF84650040014B1878704700BF64650040014B1878704700BF5465004079
:400F400008B501E0FFF7F6FFFFF7EEFF10F0100FF8D108BD10B5134A137803F0C00343F009031370104C237843F001032370FF20FFF7BCFFFF20FFF7BFFF0020FFF7C2FFF8
:400F80000020FFF7C5FF0020FFF7C8FF00F060FC237843F01003237000F05EFCFFF7D0FF10BD00BF746500409465004008B5054B1B7823B9FFF7CEFF0122024B1A70FFF79E
:400FC0008DFF08BD9D81FF1F10B50B4C237803F09F032370237803F0F00323702378184340F0100020700120FFF7AAFD237803F0EF03237010BD00BF2051004038B5054665
:401000000E4C237843F020032370237803F0BF0323700020FFF794FD237803F0F003237023781D4345F0100525700120FFF788FD237803F0EF03237038BD00BF2051004046
:4010400070B5354B1A7802F08002D2B21A7033490A7802F0F00242F00F020A7001310A7802F0F0020A7001310A7802F0F0020A701A7802F0DF021A701A7842F040021A7075
:401080004FF4CA760020FFF75BFD234D2B7843F010032B700120FFF753FD214B1C78E4B22B7803F0EF032B700020FFF749FD04F00804E4B22B7843F010032B700120FFF79E
:4010C0003FFD2B7803F0EF032B7014B90A20FFF737FD013E0CB1002ED4D10F4A137803F0BF031370137803F08003DBB213700232137803F0F00313700132137803F0F003A8
:4011000043F00F0313700132137803F0F00343F00F03137070BD00BF20510040225100402151004010B50446FFF78AFF2009FFF765FF04F00F00FFF761FF10BD38B505460A
:401140000078012404E0FFF7EDFF285D0134E4B20028F8D138BD00BF10B50446FFF770FF2009FFF731FF04F00F00FFF72DFF10BD08B52820FFF7CEFC0320FFF725FF05203B
:40118000FFF7C8FC0320FFF71FFF0F20FFF7C2FC0320FFF719FF0120FFF7BCFC0220FFF713FF0520FFF7B6FC0620FFF7D5FF0E20FFF7D2FF2C20FFF7CFFF0820FFF7CCFF86
:4011C0000120FFF7C9FF0C20FFF7C6FF0320FFF7C3FF0520FFF79EFC014800F06BF808BDA821000008B50C20FFF7B6FF0122014B1A7008BD9E81FF1F08B5054B5B7823B924
:40120000FFF7B6FF0122024B5A70FFF7EBFF08BD9E81FF1F08B5032819D8DFE800F002070D1381F08000FFF797FF08BDA1F14000C0B2FFF791FF08BDA1F16C00C0B2FFF7F7
:401240008BFF08BDA1F12C00C0B2FFF785FF08BD10B584B000238DF80E30092211E0144BA3FB0013DB081C4603EB83035900431ADBB2303304A9114401F80C3C2046013A62
:40128000D2B20928EBD80A4BA3FB0013DB0803EB83035900431ADBB2303304A9114401F80C3C01AB9818FFF749FF04B010BD00BFCDCCCCCC38B50546FFF7C2FE4020FFF721
:4012C0004BFF002404E0285DFFF72CFF0134E4B23F2CF8D9FFF7B4FE8020FFF73DFF38BD014B1B685865704708ED00E04001C0B2014B1870704700BF05E400E02022014B14
:401300001A60704700E100E02022014B1A60704780E100E010B50446FFF7F6FF2046FFF7DFFF0720FFF7E2FFFFF7E8FF10BD00BF084A137843F0010313701032137843F089
:401340000103137002F64D32137843F001031370704700BFA3430040014B1870704700BF034F0040014B1880704700BF044F0040014B1880704700BF064F004008B51F4AB0
:40138000137803F0010313701D4B1A7802F0FC021A701A7802F0F3021A701A7842F00C021A701A7802F07F021A701A7842F080021A701A78D2B21A7009331A7802F0CF02C5
:4013C0001A701A7842F030021A701A7802F0F0021A701A7842F00F021A700A4A137843F0010313704FF6FF70FFF7BCFF4FF6FF70FFF7BEFF0420FFF7AFFF08BD004F004003
:40140000024F0040014F004008B5054B1B7823B9FFF7B4FF0122024B1A70FFF789FF08BDA081FF1F044A137803F0FB03800000F0040018431070704710510040044A1378A0
:4014400003F07F03C001C0B218431070704700BF10510040014B1B689864704708ED00E04001C0B2014B1870704700BF02E400E00422014B1A60704700E100E00422014BE2
:401480001A60704780E100E010B50446FFF7F6FF2046FFF7DFFF0720FFF7E2FFFFF7E8FF10BD00BF7222084B1A702022FF331A700622A3F267131A70472210331A70002297
:4014C00052331A70704700BF8964004010B500F0BFF904460A4A137843F020031370FF32137843F010031370A2F20512137843F01003137000F040F8204600F0ADF910BD56
:401500009964004008B5054B1B7823B9FFF7CAFF0122024B1A70FFF7D9FF08BDA181FF1F014B1878704700BF49640040024B187800F07F00704700BF68650040034B1B7877
:4015400013F0040FFAD1024B18707047636400404064004038B5074B1B782BB938BDFFF7EDFF0134A4B201E005460024285D0028F5D138BDA181FF1F054A137843F00203F1
:4015800013701032137843F002031370704700BFA2430040084A137843F060031370A2F5A652133A137843F0080313701032137843F008031370704777580040054B1A7831
:4015C00002F0FC021A701A7800F0030010431870704700BF5E58004008B50320FFF7EEFF08BD00BF08B5054B1B7823B90122034B1A70FFF7F1FFFFF7CDFF08BDA381FF1F38
:40160000054A137843F0080313701032137843F008031370704700BFA8430040054B1A7802F0FD021A701A7800F0020010431870704700BF2C580040014B1870704700BFA0
:40164000835B0040064B1B78C3F3810303F19243063393F83831DBB2024A1370704700BF2C5800400B46004008B5064B1A7802F0F3021A701A7800F00C0010431870FFF7A1
:40168000E1FF08BD2C58004008B50023054A1370013213700420FFF7E7FF0220FFF7BEFF08BD00BF2C58004008B5074B1B7823B9FFF7EAFF0122044B1A70FFF7A1FFD0205D
:4016C000FFF7BAFF08BD00BFA481FF1F014B1B681864704708ED00E04001C0B2014B1870704700BF00E400E00122014B1A60704700E100E00122014B1A60704780E100E09A
:4017000010B50446FFF7F6FF2046FFF7DFFF0720FFF7E2FFFFF7E8FF10BD00BF084A137843F0020313701032137843F00203137002F65932137843F001031370704700BFB0
:40174000A3430040014B1870704700BF0F4F0040014B1880704700BF104F0040014B1880704700BF124F004008B5164A137803F0010313700232137803F0FC031370124BB4
:401780001A7802F0CF021A701A7842F030021A701A7802F0F0021A701A7842F00F021A700A4A137843F0010313704FF6FF70FFF7CFFF4FF6FF70FFF7D1FF0820FFF7C2FF01
:4017C00008BD00BF0C4F0040174F00400D4F004008B5054B1B7823B9FFF7C6FF0122024B1A70FFF79BFF08BDA581FF1F014B1B68D864704708ED00E04001C0B2014B1870A0
:40180000704700BF03E400E00822014B1A60704700E100E00822014B1A60704780E100E010B50446FFF7F6FF2046FFF7DFFF0720FFF7E2FFFFF7E8FF10BD00BF0000000080
:401840000230800803D000BF01380046FCD17047EFF3108072B6704780F31088704700BF014B1868704700BF6081FF1F0E4B70B51E460E4C0025E41AA410A54204D056F8EA
:40188000253098470135F8E700F0CAFC084B094C1E46E41AA4100025A54204D056F8253098470135F8E770BD2C2200002C2200002C2200003422000010B5431E0A44914240
:4018C00004D011F8014B03F8014FF8E710BD03460244934202D003F8011BFAE7704700000EB400B54FF402719CB0ADF814106FF00041049107914FF6FF711DAB029006902F
:40190000084853F8042BADF81610006802A9019300F06CF8029B00221A701CB05DF804EB03B070476081FF1F034613F8012B002AFBD1181A013870472DE9F0478E688246B2
:401940009E420C46914698463ED88A8912F4906F3AD02568096902236F1A656905EB450595FBF3F57B1C43449D4238BF1D4653050FD5294600F040FB064698B13A4621694F
:40198000FFF79AFFA38923F4906343F08003A38113E02A4600F08EFB064670B92169504600F0DEFA0C23CAF80030A3894FF0FF3043F04003A381BDE8F08726613E4426604F
:4019C00046466561ED1BA560464528BF464649463246206800F0A8FAA36800209B1BA36023681E442660BDE8F08700002DE9F04F9DB003938B8980461C060D4616460DD531
:401A00000B695BB9402100F0F7FA2860286118B90C23C8F80030CDE040236B610023099320238DF82930DFF89CB130238DF82A3037463C4614F8013B1BB9B7EB060910D01D
:401A400003E0252BF9D02746F3E74B46324629464046FFF771FF013000F0A780099B4B4409933B78002B00F0A08000234FF0FF3204930793059206938DF853301A930126EA
:401A8000052221784E4800F041FA671C049B38B14B4A3C46801A06FA00F018430490EFE7D90644BF20228DF853201A0744BF2B228DF8532022782A2A03D0079A00210A2002
:401AC0000BE0039A111D12680391002A10DA524243F00200079204900BE027463B780134303B092B03D800FB02320121F5E701B107923B782E2B1ED17B782A2B0AD1039B2A
:401B000002371A1D1B680392002BB8BF4FF0FF33059310E0002319460593781C0A2407463A780130303A092A03D804FB01210123F5E703B1059103223978224800F0E6F984
:401B400040B14023CBEB000003FA00F0049B013718430490397806221B487E1C8DF8281000F0D4F988B1194B33B9039B073323F007030833039314E003AB00932A46144B05
:401B800004A94046AFF3008007E003AB00932A460F4B04A9404600F093F8B0F1FF3F824603D0099B5344099342E7AB895B0601D4099801E04FF0FF301DB0BDE8F08F00BFAC
:401BC000EA210000F0210000F421000000000000391900002DE9F04791461F460A698B6806469342B8BF1346C9F8003091F843200C46DDF8208012B10133C9F8003023686B
:401C0000990642BFD9F800300233C9F80030256815F0060510D104F1190A07E00123524639463046C04701301AD00135E368D9F800209B1A9D42F1DB94F8433022680033FF
:401C400018BF012392060FD5E118302081F843005A1C94F845102244023382F8431003E04FF0FF30BDE8F08704F1430239463046C0470130F4D02268D9F80050E36802F0A9
:401C80000602042A08BF5D1B2269A3680CBF25EAE57500259342C4BF9B1AED184FF000091A344D4509D00123224639463046C0470130D5D009F10109F3E70020BDE8F08735
:401CC0002DE9F04317460A7E85B06E2A984606460C460C9B01F1430E00F0AE8011D8632A22D009D8002A00F0BB80582A40F0CA8081F84520834955E0642A1ED0692A1CD0F1
:401D0000C0E0732A00F0B08009D86F2A2ED0702A40F0B8800A6842F020020A603EE0752A24D0782A3AD0ADE01A6801F14205111D1960136884F84230A8E021681A6811F053
:401D4000800F02D0111D196008E011F0400F02F10401196002D0B2F9003000E01368002B3CDA2D225B4284F8432037E021681A6811F0800F02D0111D196007E011F0400F3C
:401D800002F10401196001D0138800E01368227E5C496F2A14BF0A2208221BE078225A4984F845202268186812F0800F00F104051D6003D1550601D5038800E00368D00707
:401DC00044BF42F0200222601BB9226822F0200222601022002084F8430001E049490A226568002DA56008DB206820F0040020602BB9002D7DD175460CE0002B79D0754613
:401E0000B3FBF2F002FB1033CB5C05F8013D03460028F5D1082A0BD12368DA0708D5236962689A42DEBF302305F8013C05F1FF35C5EB0E0323612EE008681A6810F0800F88
:401E4000496903D0101D1860136808E010F0400F02F104001860136801D0198000E0196000232361754616E01A68111D1960156800216268284600F049F808B1401B60607D
:401E8000636804E004F1420584F8422001232361002384F84330CDF800803B4603AA21463046FFF797FE013002D14FF0FF3026E023692A4639463046C0470130F5D02368D3
:401EC0009B0710D5002504F1190907E001234A4639463046C0470130E7D00135E368039A9B1A9D42F2DBE068039B9842B8BF184605E00B7804F1420584F842308AE705B0D4
:401F0000BDE8F083FB2100000C22000010B5C9B202449042034605D01C7801308C42F8D1184610BD002010BD884210B501EB020301D8421E0BE09842FBD28118D21AD34270
:401F400004D013F8014D01F8014DF8E710BD994204D011F8014B02F8014FF8E710BD000038B50546002944D051F8043C0C1F002BB8BFE41800F0D4F81E4A1368114613B9BE
:401F80006360146030E0A3420DD92268A018834201BF18685B681218226063600C6023E0A24203D813465A68002AF9D118681918A1420BD12168014458188242196013D18A
:401FC00010685268014419605A600DE002D90C232B6009E021686018824201BF106852680918216062605C602846BDE8384000F098B838BDAC81FF1F70B5CD1C25F00305BF
:4020000008350C2D38BF0C25002D064601DBA94202D90C23336046E000F082F8234B1C681A462146A1B10B685B1B0ED40B2B03D90B60CC18CD501EE08C420BBF63684B682D
:402040001360636018BF0C4615E00C464968E9E7174C23681BB9304600F052F820602946304600F04DF8431C18D0C41C24F00304A0420DD12560304600F053F804F10B00F5
:40208000231D20F00700C31A0ED05A42E25070BD211A304600F034F80130EBD10C233360304600F03EF8002070BD00BFAC81FF1FA881FF1FF8B5074615460E4621B9114683
:4020C000BDE8F840FFF798BF1AB9FFF749FF2846F8BD00F027F885420ED929463846FFF78BFF044650B131462A46FFF7E5FB31463846FFF735FF01E03046F8BD2046F8BD0A
:4021000038B5064C0023054608462360FEF7ACFB431C02D1236803B12B6038BDE082FF1F7047704751F8040C0028BEBF091851F8043CC018043870470000000073656E737A
:402140006F723A20000000004472756B206F6D207465207374617274656E0000492F25732F0D0000542F25732F0D0000004F00401800405100403000F0510040100000009C
:402180000140001000140140000800400140000A004C01400002005001402000605200408008004806000000000E0808080E0000000A0A0404040000000E0A0E0808000054
:4021C000000E0A0C0A0A0000000E080C080E0000000E080E020E0000000E080E020E000000040404000400004300232D302B2000686C4C00656667454647003031323334CB
:402200003536373839414243444546003031323334353637383961626364656600000000F8B500BFF8BC08BC9E4670474D000000E5080000F8B500BFF8BC08BC9E4670475C
:402240002900000058220000C880FF1FA00000008001000000000000000000003882FF1F3882FF1FC081FF1FAAC8E6FFFFE6C8AAE882FF1F7F800000030000000000E02EDF
:40228000C05D00001800000000366E01FFFFFFFF0000000000000000000000000000000000000000000000000000000000000000E82100000000000000000000000000003F
:4022C0000000000000000000000000000000000000000000000000000000000000000000000000000000000000000000000000000081FF1F0000000000000000000000003F
:40230000000000000000000000000000000000000000000000000000000000000000000000000000000000000000000000000000000000000000000000000000000000009D
:40234000000000000000000000000000000000000000000000000000000000000000000000000000000000000000000000000000000000000000000000000000000000005D
:40238000000000000000000000000000000000000000000000000000000000000000000000000000000000000000000000000000000000000000000000000000000000001D
:4023C00000000000000000000000000000000000000000000000000000000000000000000000000000000000000000000000000000000000000000000000000000000000DD
:020000040003F7
:0200000480007A
:40000000044F004003520040015B00400364004002650040560001403101014028020140380301402D040140400501401206014045070140330801403F090140040A01408B
:40004000060B0140321401403515014012160140361701404418014045190140031A01400A1B01400A40014019410140174201400743014006460140034701400A4801402F
:4000800007490140054C01400F4D01400A5001400451014001800A720D20164B0059019A09202784830F87078972840F8838072008130A6C0B200CCA0E3412C8130314137C
:4000C000152C16E4171119101A802109231024032514260429302A352B0C2D1C2F2230F0311F340F35203A223F104062410345EB46C0480B49FF4AFF4BFF4EF04F44500C40
:40010000580459045A045C115D015F0166C06A406B02860288688A058C468E09920694689603A810AA21B018B207B460B822BA08BE10C002C640C9FFCA07CBFFCC40CD20FD
:40014000CEF0CF05D008D804D904DA04DC01DD01DF01E040E1A8E240E32000400120044005200610071009180A400E600F801030120414081604184019201B011D281E60BA
:4001800020082102220129282B412F08310A3310368A38203A043D013E103F0440084108452049284B01503055105614C0E3C23EC446CA2FCCD7CEE6D026D204010903065C
:4001C0000402060D070F09020B0D0C0F110F140E150F1601180F1D0F20062209260F29072B082C0F30083101320233083404350436013702580459045F018601B201D401BC
:40020000D604D804D904DB04DD10DF01000802020309062007010A100B040E1812891501174819041A101D201EA01F8024082504278229042B082F08328A3340368E390137
:400240003A013B043D013E103F0458915A08638064016701800483408650920293019501961097049890A68AA708AC84C0A7C266C4BBCA26CCDBCEE3D60FD8010040014052
:4002800002800420061007020A080B100C040F201102120214101508162018011B081C021D04208022402304240829102A042E012F0130FF31013340353E39203A803E0140
:4002C0003F1452035302580459045B045C415F01D804D904DF0100880101038A0624084009840A940B080C800E100F041124121E13821501178018401A0121012204230C3E
:4003000028412A202B082F08308032CA33103682370838403A103B093D29680269508312880289018F20921293019501960897049E209F08A404A68AA708A920AF80B5042F
:40034000B782C06FC2EFC49FCA2DCCDFCEEFE22AE640EA50EE40580459045F0188049E01A602A804B001B202B404B820BE10D602D736D804D904DB0CDF010110021203849C
:400380000602070809900A100E100F081106120113601484178019101A801B0E2A102B862E022F88320A3480360A39803A013E103F405B046110684469046B427180720CBE
:4003C000794088048A0A8B888D408E1091509212950496849A019B289F02A110A444A580A60AA788AA01AB08AE01B001C0CFC267C4DFCAADCCD3CE39D602D804DE08E80C0E
:40040000EC20EE045401580459045B0D5F01800A8251840186268C148E49A49FA89FAC80B018B280B407B660BE40C023C106C204C401C6C0C7E0C828C9FFCAFFCBFFCC6289
:40044000CDA0CEF0CF41D00CD602D712D804D904DA04DB04DC01DD11DF01E640E702E910EA30EB10ED10EE10EF1200420320048005140D2010021114144016081709184119
:400480001A141B2029142C502F083010312033013510370838803A283D203E084005410142104B10511052025A085D8068026914708073247E088A288B098C408D1093106F
:4004C0009A409D81A120A208A920AE40AF10C0EDC240C477CAE6CC65CE6ED00FD204D612DE20E020E4B0EE04B902BF01D904DF01250285828A088D01E480E65000010707CC
:40050000110417011A081E072A0C2F08300131023204330834083504360237013E104060410245D046214705481E49FF4AFF4BFF4DA04F04501852805407580459045A04FA
:400540005B045C335D335F01604062C06440654066C068C06AC06CC06EC0D804D904DF01038004020580074809A00E100F481208150816201A441B8822992A802D802E20DE
:400580002F02320937483B083E103F48412049024A0851A0530459025A6472808E808F0890029108921093409B089E20A306AC04B002C0D8C273C422CA38CC53CE72D0044E
:4005C000D204D60FE202E810EC02580459045F01870291019F04A201B102B304B501B601BF10D608D804D904DB04DD90DF010210038004020580062007080AB00E100F480F
:40060000120A130A18021B8020082104220A234029842A102B862E202F8232193340350437083A083B403E103F485A4060026B0182408B0192929A089B4AA306A60AA780B0
:40064000B480B501B640B780C0FCC27CC40FCABFCC4FCE7AD608D808E620070412041304140117012101260327022A04300432023304350336013E013F0454185604580D24
:4006800059045B045C905D105F01804184F38518860C89088C828D7F900F92F09304953C96F3974198C39B039C1C9D3C9EE39F42A008A110A404A80CA967AB18ACFFAD04F9
:4006C000AF80B0C0B180B22CB320B40FB540B61CB71FB920BA28BB80BF04D804D904DC11DF010046080209800A340D010E200F8010C01140121413241520170818041926CB
:400700001B401E201F4120082180220525082708284029602F50318432113602370839403A543C084508462049804B805D026501662067027E088C028D0490409120921483
:4007400093049404950296089A409B209D81A080A20AA401B514B708C00DC23FC46FCACDCCCFCE4ED680D8B0DE20E8503F1059045F0123048704880189409D40A401B310B1
:40078000E050E830EC02110816803120330837183B823E80C430CCF0CE70314049404B80500857205A025B405C1460086601801083108601872097829F18A104A520A7080C
:4007C000CC10D4E0D6E0D8C0E220E6D017081B043F086680868087408B088D2097829F08A104A520A708AA01AC08B40CB740C420C610CE80D680E250EA6063049604A1047C
:40080000AB01B204D840EE201B0427208F20C608C801E6084402AB04D0042408661081048B0496049704A104C820D880E0200A04861096049E10B404C240E2405220611052
:400840009C02D404D8021440740488408D108E209D10A004A620AC04B402C404DE04E00AE201E808001308030A130C03100B11011A091B011C031D0100FF010F040C100A39
:4008800040400000800000000000000000FFFF00A05050004000005000A0005050000000840000FCFC00780000000000007F7F00000000006000007F1F000000000000003A
:4008C00000010000000000000000000000000000000000000000000000000000000000000000000000000000000000000000000000000000000000000000000000000000F7
:4009000000000000000000000000000000000000000000000000000000000000000000000000000000000000000000000000000000000000000000000000000000000000B7
:400940000000000000000000000000000000000000000000000000000000000000000000000000000000000000000000000000000000000000000000000000000000000077
:400980000000000000000000000000000000000000000000000000000000000000000000000000000000000000000000000000000000000000000000000000000000000037
:4009C00000000000000000000000000000000000000000000000000000000000000000000000000000000000000000000000000000000000000000000000000000000000F7
:0200000490006A
:0400000000004007B5
:0200000490105A
:04000000BC90ACAF55
:0200000490303A
:02000000AAFB59
:0200000490402A
:4000000000000000000000000000000000000000000000000000000000000000000000000000000000000000000000000000000000000000000000000000000000000000C0
:400040000000000000000000000000000000000000000000000000000000000000000000000000000000000000000000000000000000000000000000000000000000000080
:400080000000000000000000000000000000000000000000000000000000000000000000000000000000000000000000000000000000000000000000000000000000000040
:4000C0000000000000000000000000000000000000000000000000000000000000000000000000000000000000000000000000000000000000000000000000000000000000
:0200000490501A
:0C00000000012E16106900012E25BB64C3
:00000001FF