:4000000000800020110000003D0500003D05000008B5044B1A6803F53F5302331A6000F095FA00BFFA46004010B5054C237833B9044B13B10448AFF300800123237010BD64
:400040005081FF1F0000000020140000084B10B51BB108490848AFF300800848036803B910BD074B002BFBD0BDE81040184700BF000000005481FF1F20140000C880FF1F8A
:400080000000000008B501F02FF8C043C0B201F01FF801F029F801F02FF8C82000F094FB08BD00BF08B500F067FCC043C0B200F057FC08BD08B500F02BFC00F03DFC00F05F
:4000C000F1FE00F0C9FD00F0F5FF01F01FF901F0BBF801F075F808BD10B504460021084600F0EEFE054800F07FFE0921002000F0E7FEA0B200F002FF10BD00BF241400006D
:40010000884205D3013A904204DC411CC8B27047084670470846704702460023012003E002FB00F0C0B201338B42F9DB704700BF10B500240B4B1C7010E0A0B200F000FC86
:40014000094B1B78984208DD21460220FFF7E4FFC0B2044A1378184310700134072CECDD10BD00BFBE81FF1FCC80FF1F70B506460D46002413E0E1B2E8B200F0A1FE2146CF
:400180000220FFF7C9FFC0B230EA060303D1012000F0B4FE02E0002000F0B0FE0134072CE9DD70BD08B562B6FFF784FF1C4800F007FF1C4800F0C6FF1B4801F0D3F8002137
:4001C000084600F07DFE194800F00EFE184C607800F0EEFCA07800F0F1FC002000F078FF00F082FF00F088FF00F0C6FC0128FBD0104C022200212078FFF782FF20700E4B30
:400200001889FFF769FF01210C4B1878FFF7AEFF074C607800F0CCFCA07800F0CFFCE7E73101000085000000A500000030140000CC80FF1F6C81FF1FB481FF1FBE81FF1FCA
:40024000FEE700BFF0B40022174611E050F82760F3B226F0FF0608E001EB420511F812406D78A5550132013BDBB2002BF4D10137252FEBD9F0BC704708B50A46002101F024
:40028000C6F808BD38B501222B4B1A8018232B4A1370172102321180023213704D21023211800232137040F2AF4102321180023213700222224B1A7008224FF040231A70BB
:4002C000032103F5007319701E4B1B78DBB21E490B701E4B1A8041F25122023B1A80002419250CE01A4B1B7803F0010343EA440404F003044FF4F07001F042F8013D0DB184
:40030000032CEFD115B90320FFF79AFF114B4FF480721A8007221A7000220F490A704820023108701A700222033B1A700B4A137843F00F03137038BD804000408240004054
:400340000043004008010049A146004022420040254200400440004006400040A2430040F8B51E4B1B78DBB21D4E3478E4B21D4F3D78EDB203F007011B4A11701B0901322C
:40038000137044F00303337045F003033B70FF22164B1A7080222F331A7040F2011314490B8050207131087001F234710A701021104A1170F0218832117020210332117044
:4003C0002332138001220C4B1A700A2000F012FA3D7034704422094B1A70F8BDCF010049F8460040F94600406E5800400D5100405C510040985A0040585B004076580040C7
:4004000008B500F0F9FF08BD38B572B600240CE0334D630019194A0011462A44084691882858FFF729FF0134E4B2072CF0D92D494FF09040FFF706FF04212B48FFF71CFF14
:4004400004222A492A48FFF7DBFF2A4A137843F0020313701032137843F002031370264C237843F040032370A2F58632513A137843F010031370082220492148FFF7C0FF6A
:400480000A2220492048FFF7BBFF05221F492048FFF7B6FF08221F491F48FFF7B1FF08221E491F48FFF7ACFF0A221E491E48FFF7A7FF1E4A137843F0080313701C4D61237F
:4004C0002B70FFF7DFFE81232B700122194B1A70FFF746FF0E2221461748FFF791FF38BD441400009800004800760040500900480876004003500140A04300401809004825
:400500000251004020090048C05100402C090048CB51004034090048125100403C090048225100404409004830510040224300400048004004000840B043004008B500F076
:400540002FFF03680C2B00D1FEE7FEE708B5104E104D16E029686B68AC68002204E051F8040B43F8040B0432A242F8D1E868002203E0002143F8041B04328242F9D11035C6
:40058000013E002EE6D100F011FFFFF70BFEFEE701000000DC14000008B5114A114B1A60114A136843F40073136000230AE0032B03D80E4A52F8231000E00D490D4A42F8AF
:4005C000231001332F2BF2D90B4B1A780B4B1A70084A0B4B1A60FFF717FF00F013F808BD0004FA050CED00E014ED00E0000000003D0500000080FF1FBC760040C080FF1F4C
:4006000008ED00E00B4A7F2313708021517007E0DA0002F1804202F5F042013BDBB21370002BF5D1DB0003F1804303F5F04300221A707047D080FF1F172815D831B103018D
:400640000A495A5C42F020025A5405E0030107495A5C02F0DF025A540001044A835C43F00103835400207047012070471070004017280CD80001074BC1180A7942F004024A
:400680000A71C25C42F00102C254002070470120704700BF1070004017280BD80001064A835C03F0F103490001F00E011943815400207047012070471070004041F6FF735D
:4006C000994201D14FF4005141F6FF739A4201D14FF40052172808D8C00000F1804000F5EC408180C280002070470120704700BF172805D8034B03EB001041720020704779
:40070000012070471070004017281BD810B4C00000F1804404F5EC44D201D2B201F07F01114321709DF804201201D2B203F00F03134363709DF8083003F00F03A37000205D
:40074000E07001E00120704710BC704710B500F01FFE0A4B5B78182B0BD9084A1478013B5370E30003F1804303F5F0431B78137000E0FF2400F010FE204610BDD080FF1F72
:4007800010F0800F0CD111F4704F0BD1C00000F1804000F5F04001808270C37000207047012070470120704710F0800F08D1C00000F1804000F5F0408180C2800020704752
:4007C0000120704701BE704710B5044605E0084B186800F0D5FDA4F50044B4F5004FF6D8034B586800FB04F000F0CAFD10BD00BFD880FF1F08B5034B1B7A00FB03F000F04B
:40080000BFFD08BDD880FF1F10B541F6FF734FF480420121022000F065F9084C207041F6FF731A460121102000F07AF96070044800F094F9022000F097F910BD7081FF1F03
:400840005D09000070B52C4C2078FFF711FF6078FFF70EFF294B1B78FF2B03D1FFF776FF264B1870254D2878062302461021FFF787FF214E341DA4B2224645F6A031287839
:40088000FFF792FF29783078FFF732FF6B78FF2B02D1FFF75BFF6870184D6878072302461021FFF76DFF164A92B221466878FFF77BFF114C69786078FFF71AFF01212078B5
:4008C000FFF7BAFE01216078FFF7B6FE00F060FD0C4A137843F02003137000F05DFD0A4B1A7842F001021A701A7842F002021A700422064B1A6070BD7081FF1FE880FF1FAA
:40090000D081FF1F976400407664004080E200E008B5074B5B6923B9FFF776FF0122044B5A6100F0C9F8FFF78DFF024B1B7808BD7081FF1F6864004008B500F0CBF808BD42
:40094000C0F10700034B33F91030034A1088181A00B27047D081FF1FE281FF1F704700BF044A137803F0EF03000100F0100018431070704730510040024B1878C0F300106D
:40098000704700BF3151004008B50A280FD00C2802D0082806D102E04FF4805209E04FF4807206E00020FFF70DFF002201E04FF480620021084B198042F2107303FB02F328
:4009C00013F5806301D503F2FF73DB12034A13600022034B1A8008BDE081FF1FE881FF1FE281FF1F10B500F0D3FC0446184A137843F0010313701032137843F001031370D0
:400A000002F5AA520832137843F0030313701822104B1A70013B1A7842F040021A701A7802F0FC021A70C822053B1A700222A3F597530C3B1A70084A137843F00803137082
:400A40000A20FFF7D7FE204600F0A6FC10BD00BFAB43004006590040275B004010B504460A280DD00C2802D0082804D101E0C22207E0422205E00020FFF7A4FEC22200E0D4
:400A80008222034B1A702046FFF77EFF10BD00BF0259004008B5064A137843F0060313700820FFF7DBFF0022024B1A8008BD00BF01590040E481FF1F08B5054B1B7823B945
:400AC000FFF7E8FF0122024B1A70FFF78BFF08BD8881FF1F024A137843F001031370704700590040F0B583B016461F460B4C012525700023019300932B460A460146284667
:400B0000FFF702FE3A4631462078FFF7D7FD02212078FFF7C1FD207803B0F0BDEA80FF1FF0B583B016461F460B4D00242C700194009423460A4601462046FFF7E5FD3A46DF
:400B400031462878FFF7BAFD02212878FFF7A4FD287803B0F0BD00BFEB80FF1F014B1B689864704708ED00E04001C0B2014B1870704700BF02E400E0024B1878C0F3401015
:400B8000704700BF31510040024A137843F080031370704779640040014B1870704700BF09640040014B1870704700BF49640040014B1870704700BF29640040014B187000
:400BC000704700BF39640040014B1870704700BF89640040014B1878704700BF69640040014B1878704700BF5964004008B501E0FFF7F6FFFFF7EEFF10F0100FF8D108BD64
:400C000010B5134A137803F0C00343F009031370104C237843F001032370FF20FFF7BCFFFF20FFF7BFFF0A20FFF7C2FF0A20FFF7C5FF0020FFF7C8FF00F0AAFB237843F026
:400C40001003237000F0A8FBFFF7D0FF10BD00BF796400409964004008B5054B1B7823B9FFF7CEFF0122024B1A70FFF78DFF08BD8981FF1F10B50B4C237803F09F03237009
:400C8000237803F0F00323702378184340F0100020700120FFF7AEFD237803F0EF03237010BD00BF2051004038B505460E4C237843F020032370237803F0BF03237000202F
:400CC000FFF798FD237803F0F003237023781D4345F0100525700120FFF78CFD237803F0EF03237038BD00BF2051004070B5354B1A7802F08002D2B21A7033490A7802F0BA
:400D0000F00242F00F020A7001310A7802F0F0020A7001310A7802F0F0020A701A7802F0DF021A701A7842F040021A704FF4CA760020FFF75FFD234D2B7843F010032B7078
:400D40000120FFF757FD214B1C78E4B22B7803F0EF032B700020FFF74DFD04F00804E4B22B7843F010032B700120FFF743FD2B7803F0EF032B7014B90A20FFF73BFD013EF7
:400D80000CB1002ED4D10F4A137803F0BF031370137803F08003DBB213700232137803F0F00313700132137803F0F00343F00F0313700132137803F0F00343F00F03137076
:400DC00070BD00BF20510040225100402151004010B50446FFF78AFF2009FFF765FF04F00F00FFF761FF10BD38B505460078012404E0FFF7EDFF285D0134E4B20028F8D1DE
:400E000038BD00BF10B50446FFF770FF2009FFF731FF04F00F00FFF72DFF10BD08B52820FFF7D2FC0320FFF725FF0520FFF7CCFC0320FFF71FFF0F20FFF7C6FC0320FFF729
:400E400019FF0120FFF7C0FC0220FFF713FF0520FFF7BAFC0620FFF7D5FF0E20FFF7D2FF2C20FFF7CFFF0820FFF7CCFF0120FFF7C9FF0C20FFF7C6FF0320FFF7C3FF0520E8
:400E8000FFF7A2FC014800F06BF808BD7414000008B50C20FFF7B6FF0122014B1A7008BD8A81FF1F08B5054B5B7823B9FFF7B6FF0122024B5A70FFF7EBFF08BD8A81FF1FCB
:400EC00008B5032819D8DFE800F002070D1381F08000FFF797FF08BDA1F14000C0B2FFF791FF08BDA1F16C00C0B2FFF78BFF08BDA1F12C00C0B2FFF785FF08BD10B584B04B
:400F000000238DF80E30092211E0144BA3FB0013DB081C4603EB83035900431ADBB2303304A9114401F80C3C2046013AD2B20928EBD80A4BA3FB0013DB0803EB830359002E
:400F4000431ADBB2303304A9114401F80C3C01AB9818FFF749FF04B010BD00BFCDCCCCCC38B50546FFF7C2FE4020FFF74BFF002404E0285DFFF72CFF0134E4B23F2CF8D993
:400F8000FFF7B4FE8020FFF73DFF38BD014B1B68D864704708ED00E04001C0B2014B1870704700BF03E400E00822014B1A60704700E100E00822014B1A60704780E100E017
:400FC00010B50446FFF7F6FF2046FFF7DFFF0720FFF7E2FFFFF7E8FF10BD00BF084A137843F0010313701032137843F00103137002F64D32137843F001031370704700BF06
:40100000A3430040014B1870704700BF034F0040014B1880704700BF044F0040014B1880704700BF064F004008B51F4A137803F0010313701D4B1A7802F0FC021A701A78A1
:4010400002F0F3021A701A7842F00C021A701A7802F07F021A701A7842F080021A701A78D2B21A7009331A7802F0CF021A701A7842F030021A701A7802F0F0021A701A7877
:4010800042F00F021A700A4A137843F0010313704FF6FF70FFF7BCFF4FF6FF70FFF7BEFF0420FFF7AFFF08BD004F0040024F0040014F004008B5054B1B7823B9FFF7B4FF9C
:4010C0000122024B1A70FFF789FF08BD8C81FF1F044A137803F0FB03800000F0040018431070704710510040024B1878C0F38000704700BF11510040044A137803F07F03A1
:40110000C001C0B218431070704700BF10510040014B1B685864704708ED00E04001C0B2014B1870704700BF01E400E00222014B1A60704700E100E00222014B1A607047AE
:4011400080E100E010B50446FFF7F6FF2046FFF7DFFF0720FFF7E2FFFFF7E8FF10BD00BF7222084B1A702022043B1A700622A3F25F131A70472210331A70002250331A70F9
:40118000704700BF8865004010B500F001F904460A4A137843F020031370043A137843F010031370FF3A137843F01003137000F015F8204600F0F0F810BD00BF98650040B8
:4011C00008B5054B1B7823B9FFF7CAFF0122024B1A70FFF7D9FF08BD8D81FF1F054A137843F0040313701032137843F004031370704700BFA2430040084A137843F06003CC
:401200001370A2F5A652133A137843F0080313701032137843F008031370704777580040054B1A7802F0FC021A701A7800F0030010431870704700BF5E58004008B50320A7
:40124000FFF7EEFF08BD00BF08B5054B1B7823B90122034B1A70FFF7F1FFFFF7CDFF08BD8F81FF1F054A137843F0080313701032137843F008031370704700BFA84300402B
:40128000054B1A7802F0FD021A701A7800F0020010431870704700BF2C580040014B1870704700BF835B0040064B1B78C3F3810303F19243063393F83831DBB2024A137060
:4012C000704700BF2C5800400B46004008B5064B1A7802F0F3021A701A7800F00C0010431870FFF7E1FF08BD2C58004008B50023054A1370013213700420FFF7E7FF0220C0
:40130000FFF7BEFF08BD00BF2C58004008B5074B1B7823B9FFF7EAFF0122044B1A70FFF7A1FFD020FFF7BAFF08BD00BF9081FF1F014B1B681864704708ED00E04001C0B2E7
:40134000014B1870704700BF00E400E00122014B1A60704700E100E00122014B1A60704780E100E010B50446FFF7F6FF2046FFF7DFFF0720FFF7E2FFFFF7E8FF10BD00BF82
:401380000230800803D000BF01380046FCD17047EFF3108072B6704780F31088704700BF014B1868704700BF4C81FF1F0E4B70B51E460E4C0025E41AA410A54204D056F8C3
:4013C000253098470135F8E700F076F8084B094C1E46E41AA4100025A54204D056F8253098470135F8E770BDC4140000C4140000C4140000CC14000010B5431E0A44914235
:4014000004D011F8014B03F8014FF8E710BD03460244934202D003F8011BFAE7704700000000000073656E736F723A20000000004472756B206F6D207465207374617274DA
:40144000656E0000004F00400C00405100403000F0510040100000000140001000140140000800400140000A004C01400002005001402000000E0808080E0000000A0A04A7
:4014800004040000000E0A0E08080000000E0A0C0A0A0000000E080C080E0000000E080E020E0000000E080E020E0000000404040004000043000000F8B500BFF8BC08BCDF
:4014C0009E4670474D00000099050000F8B500BFF8BC08BC9E46704729000000F0140000C880FF1F88000000A00000000000000000000000BE3C32007F80000003000000FE
:401500000000E02EC05D00001800000000366E01FFFFFFFF0000000000000000000000000000000000000000000000000000000000000000B41400000000000000000000FF
:4015400000000000000000000000000000000000000000000000000000000000000000000000000000000000000000000000000000000000EC80FF1F0000000000000000E1
:40158000000000000000000000000000000000000000000000000000000000000000000000000000000000000000000000000000000000000000000000000000000000002B
:4015C00000000000000000000000000000000000000000000000000000000000000000000000000000000000000000000000000000000000000000000000000000000000EB
:4016000000000000000000000000000000000000000000000000000000000000000000000000000000000000000000000000000000000000000000000000000000000000AA
:40164000000000000000000000000000000000000000000000000000000000000000000000000000000000000000000000000000000000000000000000000000000000006A
:020000040003F7
:0200000480007A
:40000000024F004004520040015B004003640040026500401F00014029010140380201403F03014040040140440501401F0601403E070140420801402F090140010B01409A
:40004000151401403C150140291601404417014034180140351901403A1A01404B1B01400D40014018410140114201400743014002440140014501400646014004470140A2
:400080000C48014004490140064C0140074D01400B5001400351014001800AC6005C019A092864802784850F8707890F84388872580459045C115F018403850389018A03A0
:4000C0008B028C028D028E018F019003930398039D03A503A802AA01AB03AC01AE02B002B401B501B702D804D904DC11DF0100400120033004400520071008020B040F44EF
:400100001110120113C0140216081D201E8024022610280229202A082B102D202F2033203402378038403A013B043C403D103F248A40C0E7C25AC4C3CA6ECC94CE7BE2207C
:40014000001C02220409050F06100810090C0B030D0A0F05110E1301142C16111A031C402414250F28302A0C2B0F2D0F310232603301341F3504370838084024410346BE6F
:40018000470C481C49FF4AFF4BFF4EF04F44500C580459045A045C125D025F0166C06A406B029501B701BF40D804D904DC11DF0100480120032004020504060408020B046E
:4001C0000C080E080F021010114012011340161017101D041E182301241026802784281229202B102D602F203328340238403A013B043C403F244521462047105504569042
:400200007A047B0886108C108F04944097449C029D20A210A730A801B120C077C2EAC465CA7ECC86CE7BD0E0E210E610EE8018011E01260128012E0130013E015804590416
:400240005C115F01802A821483138403860487088B0C962898039A1C9D2C9E159F03A403A531A634A706A931AA20AB0EAD40B238B330B40FB540B70FB908BA28BB80BE0141
:40028000BF14C002C704C9FFCA07CBFFCC40CD20CEF0CF05D008D401D804D904DA04DB04DC22DD22DF01E040E1A8E240E32000480120034004020610072009200A210B4094
:4002C0000D200E100F0210081188125016A417021A401D201F192402254026802718280229242A402B102C082EA02F18310832103680384039023D023E193F0247104F02B5
:40030000560C5E405F2A810483419210944297449A809C029D209E24A104A40CA521A711AB80AE80B701C03FC2EFC46FCA7ECC16CEE9D020D6F00E013401520353025804B9
:4003400059045B045C105D105F0198019C019F01A304A702AE02B101B201B304B402B502B808BE04D602D739D804D904DB0CDC11DD10DF010044012007010802095810027B
:4003800011011304181419101A081B101F20210D22182344280229202A0A2D2032143340340236083840390A3C403D013F2448044A085A106010680269146B406D606E1016
:4003C0006F02720A79408B0294409502962097449C029D20A404A508A710C087C20FC40DCA2FCCCECEFBD604D802DE08E640EE04000404011004160217031A011C041D01C8
:40040000240433013403360437023E4054015804590F5B0F5C195D105F01820187088B018F08930296029D01A104AF04B001B102B308B501B602B704BF04C050C103C5D2A5
:40044000C651C80FC9FFCAFFCBFFCDA0CF04D018D280D407D804D904DA04DB04DC33DD33DF01E040E2C0E440E540E6C0E8C0EAC0ECC0EEC00240040107200B200D800E6870
:40048000170419021B801E092254234025042680272029022A4031023380368439083B68410449014B485240531059015AA85D8071027F408B408D84C038C2F4C420CA0979
:4004C000CC59CE0ED002D208D61FDE80E480E640EE04EC1006020B0122012E013002310136013E4054185604580459045B045C115D205F01D804D904DB04DC11DF01004038
:4005000001260440052008480C180E401098120A1408150119421A401B022040285029202C502D212F0230083110330235103608384039103C4058016080614062206E80CD
:4005400088018A208C808E0291159440981899309C80A008A640A702A920AB04AD01B440B508B702C0CFC275C45FCAF7CC67CE1CD601D80DEC27580459045C115F01800832
:400580008304850889208A018B108D108F20900491809340970298019B019D049E10A102A204A501A608A802A940AB80AE02AF08B41FB7FFB820BE10BF40D608D804D904F0
:4005C000DB04DC01DD90DF01004002440320044005200640081809800B400D080F48104811041201141019201B202180280A29102A4F2B062C182D01305A31083210334082
:4006000034023520384039173C403F085B80630287018A408B018C808E109116922093409440950199109A0A9BC09C029D209F01A002A108AB80AD40AF20C0DFC27FC42F9E
:40064000CAEFCCAFCE5FD608D808E230E428EA0200BF0112030C053F064008A7093F0A180D010E04101C12A2141015081730180819241B0A1C1C1EA12283264028182C0451
:40068000301F31013220330634403538369838083A823B803E1056025713580459045B045C225D205F018B018F03AF02B302B501D804D904DC31DF010010010A0201040142
:4006C00005040705080809020C240E4211041480161217201C081D841E42220423042403252927182A4037183B603DA03E065E016DA06E0474A076287720861088848C084A
:4007000092019360940196409A409F04A580A610C0FFC2FCC4F4CA08CC60CEFCD680E040EA02580459045C115F018504890C8DDF910F93D095D39602970C99829A019FD333
:40074000A141A320A5C3A908AD1CAE02AFC3B11CB3C0B50FB603B720BB20BE40C034C105C202C401C6E0C70CC818C9FFCAFFCBFFCC62CDA0CEF0CF41D00CD804D904DA0490
:40078000DC21DD02DF01E640E702E910EA30EB10ED10EE10EF120010010A02010410051A060108080D280E24104011041448150416821D80248027252808290A2A802C0459
:4007C0002E46311034803611370439043A013E283F8044804581460447044C014F805504561088048A028B208C408D048E04901291049240980C990A9AA99C809E129F05C2
:40080000A004A129A201A810A902AD04AE04AF04B50AB681C0FFC264C4FCCAFFCCF4CE73D0F0D210E220E670E842EC7813011680300231803301361037013B023E8088106F
:40084000C430CCF0CE605304568058085B205D826320641085028E808F109301970298189980A402A580A610A808B180D4E0D6E0D8C0E610EE201B043F0859088108930146
:400880009702A402A580A610AB20AF04C610CE80D640E620EA80EE108C029301A402A580A610AB01EE207280DC019E801B042508B680C608C801EC084401A108AB04D00430
:4008C00020806410881089408D80A580AB01AE10C840D880E880EE100940A540B040C240594061029C01AD08D401D80214408840AD42B001C404E201EC04000F010108068E
:400900000A070C0A0D01100E11011A061B011C0E00FF040C100A00000000000000FFFF004000A050500040000050000000A000505000000000FCFC0078000000007F7F0007
:40094000000000006000007F1F0000000000000000010000000000000000000000000000000000000000000000000000000000000000000000000000000000000000000078
:400980000000000000000000000000000000000000000000000000000000000000000000000000000000000000000000000000000000000000000000000000000000000037
:4009C00000000000000000000000000000000000000000000000000000000000000000000000000000000000000000000000000000000000000000000000000000000000F7
:400A000000000000000000000000000000000000000000000000000000000000000000000000000000000000000000000000000000000000000000000000000000000000B6
:400A40000000000000000000000000000000000000000000000000000000000000000000000000000000000000000000000000000000000000000000000000000000000076
:0200000490006A
:0400000000004007B5
:0200000490105A
:04000000BC90ACAF55
:0200000490303A
:02000000BEA59B
:0200000490402A
:4000000000000000000000000000000000000000000000000000000000000000000000000000000000000000000000000000000000000000000000000000000000000000C0
:400040000000000000000000000000000000000000000000000000000000000000000000000000000000000000000000000000000000000000000000000000000000000080
:400080000000000000000000000000000000000000000000000000000000000000000000000000000000000000000000000000000000000000000000000000000000000040
:4000C0000000000000000000000000000000000000000000000000000000000000000000000000000000000000000000000000000000000000000000000000000000000000
:0200000490501A
:0C00000000012E16106900012E20CF0E0A
:00000001FF