:400000000080002011000000D1040000D104000008B5044B1A6803F53F5302331A6000F05FFA00BFFA46004010B5054C237833B9044B13B10448AFF300800123237010BD74
:400040005081FF1F0000000078110000084B10B51BB108490848AFF300800848036803B910BD074B002BFBD0BDE81040184700BF000000005481FF1F78110000C880FF1FE0
:400080000000000008B500F0EBFFC043C0B200F0DBFF00F0E5FF00F0EBFFC82000F05EFB08BD00BF10B504460021084600F0BEFE054800F04FFE0921002000F0B7FEA0B212
:4000C00000F0D2FE10BD00BF7C110000884205D3013A904204DC411CC8B27047084670470846704702460023012003E002FB00F0C0B201338B42F9DB704700BF10B50024FE
:400100000B4B1C7010E0A0B200F0E4FB094B1B78984208DD21460220FFF7E4FFC0B2044A1378184310700134072CECDD10BD00BFA681FF1FCC80FF1F70B506460D4600244A
:4001400013E0E1B2E8B200F071FE21460220FFF7C9FFC0B230EA060303D1012000F084FE02E0002000F080FE0134072CE9DD70BD08B562B6214800F0D9FE214800F09EFFF7
:4001800000F046FE0021084600F050FE1D4800F0E1FD00F087FB00F099FB00F013FD1A4C607800F0BBFCA07800F0BEFC002000F04BFF00F055FF00F05BFF00F031FF00F096
:4001C00091FC0128FBD0114C022200212078FFF77DFF207000F032FF0D4B1889FFF762FF01210C4B1878FFF7A7FF074C607800F095FCA07800F098FCE5E700BFFD0000005C
:400200008500000088110000CC80FF1F6C81FF1F9C81FF1FA681FF1FFEE700BFF0B40022174611E050F82760F3B226F0FF0608E001EB420511F812406D78A5550132013BA0
:40024000DBB2002BF4D10137222FEBD9F0BC704708B50A46002100F086FF08BD38B50122294B1A801823294A13701721023211800232137040F2AF41023211800232137048
:400280000222234B1A7008224FF040231A70032103F5007319701F4B1B78DBB21E490B701E4B1A8041F25122023B1A80002419250CE01B4B1B7803F0010343EA440404F021
:4002C00003044FF4F07000F007FF013D0DB1032CEFD115B90320FFF79FFF124B4FF480721A8007221A7000220F490A704820023108701A700222033B1A700C4A137843F07E
:400300000703137038BD00BF80400040824000400043004008010049A146004022420040254200400440004006400040A2430040F8B5164B1B78DBB2154E3478E4B2154FCD
:400340003D78EDB203F00701134A11701B090132137044F00303337045F003033B70FF220E4B1A70802203F2F4731A70F02203F21F231A70202203331A700A2000F004FA3A
:400380003D7034704422064B1A70F8BDCF010049F8460040F94600406E5800400D5100407658004008B500F0D3FE08BD38B572B600240CE0314D630019194A0011462A44A4
:4003C000084691882858FFF743FF0134E4B2072CF0D92B494FF09040FFF720FF04212948FFF736FF042228492848FFF7DBFF284A137843F0020313701032137843F002032A
:400400001370244C237843F040032370A2F58632513A137843F01003137008221E491F48FFF7C0FF08221E491E48FFF7BBFF08221D491E48FFF7B6FF08221D491D48FFF717
:40044000B1FF0A221C491D48FFF7ACFF1C4A137843F0080313701B4D61232B70FFF7FEFE81232B700122184B1A70FFF761FF0E2221461648FFF796FF38BD00BF9C11000084
:400480008C00004800760040A40600480876004003500140A0430040780600480251004080060048C251004088060048125100409006004822510040980600483051004020
:4004C000224300400048004004000840B043004008B500F011FE03680C2B00D1FEE7FEE708B5104E104D16E029686B68AC68002204E051F8040B43F8040B0432A242F8D1E6
:40050000E868002203E0002143F8041B04328242F9D11035013E002EE6D100F0F3FDFFF727FEFEE7010000003412000008B5114A114B1A60114A136843F400731360002393
:400540000AE0032B03D80E4A52F8231000E00D490D4A42F8231001332F2BF2D90B4B1A780B4B1A70084A0B4B1A60FFF71FFF00F013F808BD0004FA050CED00E014ED00E0E5
:4005800000000000D10400000080FF1FBC760040C080FF1F08ED00E00B4A7F2313708021517007E0DA0002F1804202F5F042013BDBB21370002BF5D1DB0003F1804303F5E1
:4005C000F04300221A707047D080FF1F172815D831B103010A495A5C42F020025A5405E0030107495A5C02F0DF025A540001044A835C43F00103835400207047012070477F
:400600001070004017280CD80001074BC1180A7942F004020A71C25C42F00102C254002070470120704700BF1070004017280BD80001064A835C03F0F103490001F00E015C
:400640001943815400207047012070471070004041F6FF73994201D14FF4005141F6FF739A4201D14FF40052172808D8C00000F1804000F5EC408180C28000207047012018
:40068000704700BF172805D8034B03EB0010417200207047012070471070004017281BD810B4C00000F1804404F5EC44D201D2B201F07F01114321709DF804201201D2B2A9
:4006C00003F00F03134363709DF8083003F00F03A3700020E07001E00120704710BC704710B500F001FD0A4B5B78182B0BD9084A1478013B5370E30003F1804303F5F04397
:400700001B78137000E0FF2400F0F2FC204610BDD080FF1F10F0800F0CD111F4704F0BD1C00000F1804000F5F04001808270C37000207047012070470120704710F0800FC3
:4007400008D1C00000F1804000F5F0408180C280002070470120704701BE704710B5044605E0084B186800F0B7FCA4F50044B4F5004FF6D8034B586800FB04F000F0ACFC00
:4007800010BD00BFD880FF1F08B5034B1B7A00FB03F000F0A1FC08BDD880FF1F10B541F6FF734FF480420121022000F051F9084C207041F6FF731A460121102000F066F962
:4007C0006070044800F080F9012000F083F910BD7081FF1FF108000070B52C4C2078FFF711FF6078FFF70EFF294B1B78FF2B03D1FFF776FF264B1870254D28780623024610
:400800001021FFF787FF214E341DA4B2224645F6A0312878FFF792FF29783078FFF732FF6B78FF2B02D1FFF75BFF6870184D6878072302461021FFF76DFF164A92B221468D
:400840006878FFF77BFF114C69786078FFF71AFF01212078FFF7BAFE01216078FFF7B6FE00F042FC0C4A137843F02003137000F03FFC0A4B1A7842F001021A701A7842F07A
:4008800002021A700222064B1A6070BD7081FF1FE880FF1FB881FF1F976400407765004080E200E008B5074B5B6923B9FFF776FF0122044B5A6100F0B5F8FFF78DFF024B56
:4008C0001B7808BD7081FF1F6464004008B500F0B7F808BDC0F10700034B33F91030034A1088181A00B27047B881FF1FCA81FF1F704700BF08B50A280FD00C2802D008283C
:4009000006D102E04FF4805209E04FF4807206E00020FFF721FF002201E04FF480620021084B198042F2107303FB02F313F5806301D503F2FF73DB12034A13600022034B8B
:400940001A8008BDC881FF1FD081FF1FCA81FF1F10B500F0C9FB0446184A137843F0010313701032137843F00103137002F5AA520832137843F0030313701822104B1A7055
:40098000013B1A7842F040021A701A7802F0FC021A70C822053B1A700222A3F597530C3B1A70084A137843F0080313700A20FFF7EBFE204600F09CFB10BD00BFAB430040E6
:4009C00006590040275B004010B504460A280DD00C2802D0082804D101E0C22207E0422205E00020FFF7B8FEC22200E08222034B1A702046FFF77EFF10BD00BF025900406C
:400A000008B5064A137843F0060313700820FFF7DBFF0022024B1A8008BD00BF01590040CC81FF1F08B5054B1B7823B9FFF7E8FF0122024B1A70FFF78BFF08BD8881FF1F16
:400A4000024A137843F001031370704700590040F0B583B016461F460B4C012525700023019300932B460A4601462846FFF716FE3A4631462078FFF7EBFD02212078FFF702
:400A8000D5FD207803B0F0BDEA80FF1FF0B583B016461F460B4D00242C700194009423460A4601462046FFF7F9FD3A4631462878FFF7CEFD02212878FFF7B8FD287803B09F
:400AC000F0BD00BFEB80FF1F014B1B685864704708ED00E04001C0B2014B1870704700BF01E400E0024B1878C0F34010704700BF31510040024A137843F080031370704749
:400B000075650040014B1870704700BF05650040014B1870704700BF45650040014B1870704700BF25650040014B1870704700BF35650040014B1870704700BF85650040C7
:400B4000014B1878704700BF65650040014B1878704700BF5565004008B501E0FFF7F6FFFFF7EEFF10F0100FF8D108BD10B5134A137803F0C00343F009031370104C237898
:400B800043F001032370FF20FFF7BCFFFF20FFF7BFFF0A20FFF7C2FF0A20FFF7C5FF0020FFF7C8FF00F0A0FA237843F01003237000F09EFAFFF7D0FF10BD00BF7565004035
:400BC0009565004008B5054B1B7823B9FFF7CEFF0122024B1A70FFF78DFF08BD8981FF1F10B50B4C237803F09F032370237803F0F00323702378184340F010002070012039
:400C0000FFF7C2FD237803F0EF03237010BD00BF2051004038B505460E4C237843F020032370237803F0BF0323700020FFF7ACFD237803F0F003237023781D4345F010059E
:400C400025700120FFF7A0FD237803F0EF03237038BD00BF2051004070B5354B1A7802F08002D2B21A7033490A7802F0F00242F00F020A7001310A7802F0F0020A70013117
:400C80000A7802F0F0020A701A7802F0DF021A701A7842F040021A704FF4CA760020FFF773FD234D2B7843F010032B700120FFF76BFD214B1C78E4B22B7803F0EF032B70A0
:400CC0000020FFF761FD04F00804E4B22B7843F010032B700120FFF757FD2B7803F0EF032B7014B90A20FFF74FFD013E0CB1002ED4D10F4A137803F0BF031370137803F036
:400D00008003DBB213700232137803F0F00313700132137803F0F00343F00F0313700132137803F0F00343F00F03137070BD00BF20510040225100402151004010B504460F
:400D4000FFF78AFF2009FFF765FF04F00F00FFF761FF10BD38B505460078012404E0FFF7EDFF285D0134E4B20028F8D138BD00BF10B50446FFF770FF2009FFF731FF04F004
:400D80000F00FFF72DFF10BD08B52820FFF7E6FC0320FFF725FF0520FFF7E0FC0320FFF71FFF0F20FFF7DAFC0320FFF719FF0120FFF7D4FC0220FFF713FF0520FFF7CEFCCB
:400DC0000620FFF7D5FF0E20FFF7D2FF2C20FFF7CFFF0820FFF7CCFF0120FFF7C9FF0C20FFF7C6FF0320FFF7C3FF0520FFF7B6FC014800F06BF808BDCC11000008B50C2080
:400E0000FFF7B6FF0122014B1A7008BD8A81FF1F08B5054B5B7823B9FFF7B6FF0122024B5A70FFF7EBFF08BD8A81FF1F08B5032819D8DFE800F002070D1381F08000FFF711
:400E400097FF08BDA1F14000C0B2FFF791FF08BDA1F16C00C0B2FFF78BFF08BDA1F12C00C0B2FFF785FF08BD10B584B000238DF80E30092211E0144BA3FB0013DB081C4614
:400E800003EB83035900431ADBB2303304A9114401F80C3C2046013AD2B20928EBD80A4BA3FB0013DB0803EB83035900431ADBB2303304A9114401F80C3C01AB9818FFF724
:400EC00049FF04B010BD00BFCDCCCCCC38B50546FFF7C2FE4020FFF74BFF002404E0285DFFF72CFF0134E4B23F2CF8D9FFF7B4FE8020FFF73DFF38BD014B1B689864704705
:400F000008ED00E04001C0B2014B1870704700BF02E400E00422014B1A60704700E100E00422014B1A60704780E100E010B50446FFF7F6FF2046FFF7DFFF0720FFF7E2FF9F
:400F4000FFF7E8FF10BD00BF084A137843F0010313701032137843F00103137002F64D32137843F001031370704700BFA3430040014B1870704700BF034F0040014B1880D2
:400F8000704700BF044F0040014B1880704700BF064F004008B51F4A137803F0010313701D4B1A7802F0FC021A701A7802F0F3021A701A7842F00C021A701A7802F07F0236
:400FC0001A701A7842F080021A701A78D2B21A7009331A7802F0CF021A701A7842F030021A701A7802F0F0021A701A7842F00F021A700A4A137843F0010313704FF6FF70B0
:40100000FFF7BCFF4FF6FF70FFF7BEFF0420FFF7AFFF08BD004F0040024F0040014F004008B5054B1B7823B9FFF7B4FF0122024B1A70FFF789FF08BD8C81FF1F014B1870FA
:40104000704700BF74650040044A137803F0FB03800000F0040018431070704710510040024B1878C0F38000704700BF11510040044A137803F07F03C001C0B218431070EC
:40108000704700BF10510040014B1B681864704708ED00E04001C0B2014B1870704700BF00E400E00122014B1A60704700E100E00122014B1A60704780E100E010B5044630
:4010C000FFF7F6FF2046FFF7DFFF0720FFF7E2FFFFF7E8FF10BD00BF0230800803D000BF01380046FCD17047EFF3108072B6704780F31088704700BF014B1868704700BF01
:401100004C81FF1F0E4B70B51E460E4C0025E41AA410A54204D056F8253098470135F8E700F076F8084B094C1E46E41AA4100025A54204D056F8253098470135F8E770BD9F
:401140001C1200001C1200001C1200002412000010B5431E0A44914204D011F8014B03F8014FF8E710BD03460244934202D003F8011BFAE7704700000000000073656E73AA
:401180006F723A20000000004472756B206F6D207465207374617274656E0000004F00400C00405100403000F0510040100000000140001000140140000800400140000AE2
:4011C000004C01400002005001402000000E0808080E0000000A0A0404040000000E0A0E08080000000E0A0C0A0A0000000E080C080E0000000E080E020E0000000E080E5D
:40120000020E0000000404040004000043000000F8B500BFF8BC08BC9E4670474D0000002D050000F8B500BFF8BC08BC9E4670472900000048120000C880FF1F880000005D
:40124000880000000000000000000000BE3C32007F800000030000000000E02EC05D00001800000000366E01FFFFFFFF0000000000000000000000000000000000000000D4
:401280000000000000000000000000000C12000000000000000000000000000000000000000000000000000000000000000000000000000000000000000000000000000010
:4012C000000000000000000000000000EC80FF1F00000000000000000000000000000000000000000000000000000000000000000000000000000000000000000000000064
:4013000000000000000000000000000000000000000000000000000000000000000000000000000000000000000000000000000000000000000000000000000000000000AD
:40134000000000000000000000000000000000000000000000000000000000000000000000000000000000000000000000000000000000000000000000000000000000006D
:40138000000000000000000000000000000000000000000000000000000000000000000000000000000000000000000000000000000000000000000000000000000000002D
:4013C00000000000000000000000000000000000000000000000000000000000000000000000000000000000000000000000000000000000000000000000000000000000ED
:020000040003F7
:0200000480007A
:40000000024F004005520040015B004001640040016500400B0001402301014028020140350301401D0401403D0501402006014046070140040901400A0B0140080C014049
:40004000230D01403E140140421501402B1601404417014004190140031B01400C400140144101400E42014007430140064601400347014005480140124901400C4C0140EF
:40008000044D01400A5001400351014001800A720059019C08280908600227848707850F5608580459045B045C115D905F01D804D904DC11DF0100880120020103030404AB
:4000C00005A007020B400C200F5010201312170129A02C202D202F023020370238043A013B503C0C3F505B8060028380C0E7C278C41ECA7CCC84CE7FD608D8080408050D58
:4001000006070702090F0A0F0C0F0D080F07100B11011204130E140F200D2202250F280F2B0F2D0F30013101320433023408350836023704580459045C115F019F02A301F4
:40014000B102B301D804D904DC11DF010088012004040520070109080B400D080F401312164417021D041E401FA0210823402644274829222A402C202D202F023148370288
:4001800038043A013B503C0C3F50824086408B408C208D088E048F40975098029A019B019D209F02A302A464C0E7C23CC45ACA7DCC8ACE7FE2500204040807040A080C0292
:4001C000121014041A011B01260228012F0231043302341F350138203E105401580459045B0C5C115D105F01D804D904DC11DF0100A801030520088009080A440B200D0846
:400200000F4410041106120C134814801604178219201B1020C821102208239428842A802B102D202F103050310836083782384039243C083F405A80794088449340968075
:40024000971098029D629E049F02A108A444A904AA40AB20B788C04FC27FC4DFCA6FCCDECE5ED608DE08EA48EE40580459045C115F018010822086088A018B018E029040E6
:400280009280960498019C02A004A408A820AA10AC80AE40B0FFB701BE01D602D735D804D904DB0CDC10DD10DF01008A01880208050806040702080409080A050BE00C406C
:4002C0000FA0101A110514041A40200222802302284029A82C402F5031083280368839103A043C883FA0480249405A206004681A691572057940860187098C109340954180
:4003000096C4980299209A049C509D409F0AA044A109A208A310A410A921AD20AE84B208C0EFC2BFC44FCACFCC5ACE76D604D804DE08E210EC029C08AD04B308EC808820F8
:40034000898095049C089F08A420A580E020E420EA08580459045C115F01D804D904DC11DF01012003400520070E08980F05110413051418174028082C302D2030203180C9
:40038000334434083742388039063D043F01888089018B028C408F01C0CAC2C7C4ECCA64CCDECECBE020E41000010A011202150127033203330237015804590C5B045C195F
:4003C0005F01810182088701900197049D049E03A604A702AB02AF01B002B104B201B408B502B604B701BF50C030C102C5D0C615C702C81EC9FFCAFFCBFFCDA0CF04D01888
:40040000D280D407D804D904DA04DB04DC22DD22DF01E040E2C0E440E540E6C0E8C0EAC0ECC0EEC00011050108020CC00E8016101704181019081D401EA01F202001210836
:4004400022402442270829082C102E802F283108354037043C0A441046044F015480561457085C405E205F09680569A07501794080018608914095A0968098029A809C4077
:400480009E18A720A804AD04B008B180B501C01AC298C420CA72CC52CEC0D060D6F0DE08E888EA20EC20EE4102021301180219051B022103230427022A012C022F04300293
:4004C000320137073E013F40580459045B045C105F01850189018F0499049F04A302A70AAB08B108B302B501B704B920BF50D203D302D804D904DB04DC21DD10DF01000822
:4005000001800288040206800B400C100D101004110214081580160217401C101D012006210423802580264028402A102B202C042E4A30103340341035803608370138081F
:4005400039103A803C083D023F605E8069506A206C018240838088018F1293409416954096A0980699809B03A004A101A288B001B401C01FC248C4CACAF7CCFCCEFED61074
:40058000E001E204EA40B008E081E204E880E808EC20EE011301168032403308374039083E808301C430CC70CE60E080500457805A405B025C085F40630866018348874060
:4005C0008C048F04950896809F40A708D4E0D6E0D8C0E6C002101B043F089680AA01AB82AD04B408B640C010C610CE80EA30EEA0604086108E4096809A10D840E0401B0271
:400600002501A702AF02C608C8014401A101D00420806520B440C840D8800B081104722075028102850497089A20B040B120B304B620C240C410DC80DE20E440E62007101A
:4006400053805E015F8083908B809C01A101C004D404D605E001A901AE01B001EC0400020101080209010A020E02100711011A071B01003F040C100A0000000000FFFF00B9
:40068000050F0A000A00000002FFFD0079000000007F7F0000000000E00000FF9F00000000000000000100000000000000000000000000000000000000000000000000001E
:4006C00000000000000000000000000000000000000000000000000000000000000000000000000000000000000000000000000000000000000000000000000000000000FA
:4007000000000000000000000000000000000000000000000000000000000000000000000000000000000000000000000000000000000000000000000000000000000000B9
:400740000000000000000000000000000000000000000000000000000000000000000000000000000000000000000000000000000000000000000000000000000000000079
:400780000000000000000000000000000000000000000000000000000000000000000000000000000000000000000000000000000000000000000000000000000000000039
:0200000490006A
:0400000000004007B5
:0200000490105A
:04000000BC90ACAF55
:0200000490303A
:02000000F112FB
:0200000490402A
:4000000000000000000000000000000000000000000000000000000000000000000000000000000000000000000000000000000000000000000000000000000000000000C0
:400040000000000000000000000000000000000000000000000000000000000000000000000000000000000000000000000000000000000000000000000000000000000080
:400080000000000000000000000000000000000000000000000000000000000000000000000000000000000000000000000000000000000000000000000000000000000040
:4000C0000000000000000000000000000000000000000000000000000000000000000000000000000000000000000000000000000000000000000000000000000000000000
:0200000490501A
:0C00000000012E15A06900012E1E917B4E
:00000001FF