:4000000000800020110000008D0900008D09000008B5044B1A6803F53F5302331A6000F0BDFC00BFFA46004010B5054C237833B9044B13B10448AFF300800123237010BD92
:400040006081FF1F00000000081A0000084B10B51BB108490848AFF300800848036803B910BD074B002BFBD0BDE81040184700BF000000006481FF1F081A0000C880FF1F8E
:400080000000000010B5002406E0204600F07EFD054B18550134E4B2072CF6D9024800F095FA01F01FFA10BDA481FF1F10B501F097FB074C606001F099FBA06075226368F1
:4000C00002FB03F31B0A02FB0033236010BD00BF7C81FF1F08B500F031FAFA2000F044FF01F0B2FB01F0DEFB08BD00BF08B501F007FA08BD08B501F0FBF908BD08B501F0F4
:40010000FFF9012001F08AFA012001F093FA012001F09CFA012001F057FB012001F048FB08BD00BF08B501F0C9F901F079FB4FF4FA7000F019FF002001F070FA4FF4FA70FB
:4001400000F012FF002001F075FA4FF4FA7000F00BFF002001F07AFA4FF4FA7000F004FF002001F031FB4FF4FA7000F0FDFE002001F01EFB01F0BCF901F09AF901F04AFBD3
:4001800008BD00BF38B54FF4FA7000F0EDFE62B6012001F037FA012001F028FA00F0DEFC01F016FA01F0D6FA01F0AAF900F06EFF002302221021272000F094F800F056F9C0
:4001C0003A4801F081F93A4801F030FB394801F05BFB394801F088FA384801F05DFA384801F0D8FA374801F0A7FA00F0CBFC0021084600F0E9F800240EE02546324B1B5D33
:400200000F2B02D8314800F015F910212E4B585D00F020F90134E4B2072CEED90121002000F0D2F82A4800F005F92A4C0A21207800F010F901210D2000F0C6F8264800F01D
:40024000F9F80A21607800F005F90121042000F0BBF8224B1A6842F20F739A4202D81B4800F0E8F81D4B1B68B3F57A7F02D2174800F0E0F8194B1B68632B02D8134800F004
:40028000D9F8164B1B68092B02D8104800F0D2F80A21124B186800F0DDF80121092000F093F80F4800F0C6F8A1E700BF85000000AD000000D5000000ED000000F5000000A1
:4002C000FD00000025010000A481FF1F0C1A0000101A0000CC80FF1F141A00007C81FF1F181A000010B4064C20700648017006490A70064A13700822054B1A7010BC7047DB
:40030000AD81FF1FB281FF1FB381FF1FAF81FF1FAC81FF1F10B50C46002101F033F8204601F08CF801F06EF810BD00BF08B5044B19780143034B1878FFF7ECFF08BD00BFFF
:40034000AC81FF1FAD81FF1F10B5044640F00400FFF7ECFF012000F01DFE04F0FB00FFF7E5FF322000F016FE10BD00BF10B50446FFF7DCFF2046FFF7E7FF10BD38B50D46BC
:4003800000F0F0030401E4B243EA0100FFF7EEFF44EA0500FFF7EAFF38BD00BF08B50021FFF7ECFF08BD00BF08B50120FFF7F6FF022000F0D9FD08BD08B50220FFF7EEFF6D
:4003C000022000F0D1FD08BD30B585B005460C460C4B0FCB0DF1100E0EE90F000A4B1B78A34201D25C1EE4B204AB03EB840454F8100C284460F07F00C0B2FFF7CFFF05B0EB
:4004000030BD00BF1C1A0000B381FF1F08B5054B187840F00400187040F00800FFF7BEFF08BD00BFAE81FF1F08B50121FFF7A6FF08BD00BF70B5064601F0A2FA0546002408
:4004400003E0305DFFF7F0FF0134EBB29C42F8D370BD00BF00B58BB00A4601A901F07BFA01A8FFF7E7FF0BB05DF804FB08B50022254B1A70254B1B78012B02D90821224A64
:400480001170234A127832B1012B04D11E4A137843F004031370322000F066FD1D4B1878FFF744FF4FF47A7000F05EFD3020FFF75DFF41F2941000F06DFD3020FFF756FF74
:4004C00041F2941000F066FD3020FFF74FFF962000F060FD2020FFF749FF0B4B187840F02000FFF75BFF04220B4B1A70FFF78EFFFFF75AFF0222094B1A700620FFF74EFFF4
:40050000FFF75AFF08BD00BFB181FF1FB381FF1FAF81FF1FAC81FF1FAE81FF1FB081FF1F08B5012001F06EF8012001F05FF81F2000F0FAFF1F2000F0FDFF08BD08B502207C
:4005400001F060F8022001F051F81F2000F0ECFF1F2000F0EFFF08BD08B548B1022001F051F8012001F042F8012001F021F908E0012001F047F8022001F038F8012001F0C2
:400580004DF81F2000F0D0FF1F2000F0D3FF08BD38B505460C46012001F034F8012001F025F845B1084D285D00F0BEFF2C44207900F0C0FF38BD044D2B19187900F0B4FF48
:4005C000285D00F0B7FF38BDD080FF1F10B504460378602B02D90122224B1A70E379602B02D90122204B1A701E4B1B7823B11E4B1B780BB1FFF794FF1A4B1B7813B101209B
:40060000FFF7AAFF184B1B7813B10020FFF7A4FF00211BE04B1CE35C602B08D90023114A1370114A13700120FFF7B2FF10BDC1F10603E35C602B07D900200A4B18700A4B4F
:400640001870FFF7A5FF10BD0131C9B20229E1D9044B1B7823B9044B1B780BB9FFF760FF10BD00BFB481FF1FB581FF1FFEE700BFF0B40022174611E050F82760F3B226F0CB
:40068000FF0608E001EB420511F812406D78A5550132013BDBB2002BF4D10137272FEBD9F0BC704708B50A46002101F061F908BD38B501222F4B1A8018232F4A137007227D
:4006C0002E490A8002310B7002310A8002310B7002310A802A4A137043F697230232138019250232157002321380264B1D70022203F26A231A7008224FF040231A7003210C
:4007000003F500731970204B1B78DBB21F490B701F4B1A8041F25122023B1A8000240CE01C4B1B7803F0010343EA440404F003044FF4F07001F0BCF8013D0DB1032CEFD132
:4007400015B90320FFF792FF134B4FF480721A8007221A70002211490A704820023108701A700222033B1A700D4A137843F03F03137038BD804000408240004084400040CD
:400780008E4000409640004008010049A146004022420040254200400440004006400040A2430040F8B5164B1B78DBB2154E3478E4B2154F3D78EDB203F00701134A1170BE
:4007C0001B090132137044F00303337045F003033B70FF220E4B1A7040230E4A137002321370F0220C4B1A70202203331A700A2000F0D0FB3D7034704422084B1A70F8BD40
:40080000CF010049F8460040F94600406E5800403D51004009590040285B00407658004008B501F09AF808BD38B572B63F4A137843F00403137000240CE03D4D6300191941
:400840004A0011462A44084691882858FFF72AFF0134E4B2062CF0D900240BE03448A20011194B0003449A8E196BD86AFFF7D8FF0134E4B2012CF1D92E494FF09040FFF7BB
:40088000F7FE04212C48FFF70DFF04222B492C48FFF7C6FF2B4A137843F0020313701032137843F002031370274C237843F040032370A2F58632513A137843F01003137057
:4008C000082222492248FFF7ABFF0A2221492248FFF7A6FF0A2221492148FFF7A1FF082220492148FFF79CFF0A2220492048FFF797FF08221F492048FFF792FF1F4A13789E
:4009000043F0080313701E4D61232B70FFF7D0FE81232B7001221B4B1A70FFF743FF0E2221461948FFF77CFF38BD00BFE84600402C1A0000A000004800760040E00C00487B
:400940000876004003500140A0430040A40C004802510040AC0C0048C0510040B80C0048F0510040C40C004812510040CC0C004820510040D80C0048325100402243004079
:400980000048004004000840B043004008B500F09FFF03680C2B00D1FEE7FEE708B5104E104D16E029686B68AC68002204E051F8040B43F8040B0432A242F8D1E8680022C5
:4009C00003E0002143F8041B04328242F9D11035013E002EE6D100F081FFFFF7D3FBFEE701000000B81A000008B5114A114B1A60114A136843F40073136000230AE0032B64
:400A000003D80E4A52F8231000E00D490D4A42F8231001332F2BF2D90B4B1A780B4B1A70084A0B4B1A60FFF7FFFE00F0BBF908BD0004FA050CED00E014ED00E000000000B0
:400A40008D0900000080FF1FBC760040C080FF1F08ED00E010B541F6FF734FF480420121022000F055F9084C207041F6FF731A460121102000F06AF96070044800F084F98D
:400A8000002000F087F910BD8881FF1FA90B000070B52C4C207800F0BBF9607800F0B8F9294B1B78FF2B03D100F020FA264B1870254D287806230246102100F031FA214E66
:400AC000341DA4B2224645F6A231287800F03CFA2978307800F0DCF96B78FF2B02D100F005FA6870184D687807230246102100F017FA164A92B22146687800F025FA114C1E
:400B00006978607800F0C4F90121207800F064F90121607800F060F900F0D2FE0C4A137843F02003137000F0CFFE0A4B1A7842F001021A701A7842F002021A700122064B62
:400B40001A6070BD8881FF1FDB80FF1FB881FF1F926400407564004080E200E008B5074B5B6923B9FFF776FF0122044B5A6100F0B9F8FFF78DFF024B1B7808BD8881FF1F10
:400B80006664004008B500F0BBF808BDC0F10700034B33F91030034A1088181A00B27047B881FF1FD081FF1F704700BF08B50A280FD00C2802D0082806D102E04FF4805206
:400BC00009E04FF4807206E0002000F0CBF9002201E04FF480620021094B198042F2107303FB02F303F6C413064A82FB0302DB17C3EBE223044A1360044B198008BD00BFC9
:400C0000C881FF1FAD8BDB68CC81FF1FD081FF1F10B500F055FE0446184A137843F0020313701032137843F00203137002F5AA521032137843F0030313700422104B1A70EF
:400C4000013B1A7802F0BF021A701A7842F003021A700822053B1A700222A3F59753123B1A70084A137843F0080313700A2000F091F9204600F028FE10BD00BFAB4300402D
:400C80000E5900402F5B004010B504460A280DD00C2802D0082804D101E0C42207E0442205E0002000F05EF9C42200E08422034B1A702046FFF77AFF10BD00BF0A590040F2
:400CC00008B5064A137843F0060313700820FFF7DBFF0022024B1A8008BD00BF09590040CA81FF1F08B5054B1B7823B9FFF7E8FF0122024B1A70FFF78BFF08BDA081FF1F36
:400D0000024A137843F001031370704708590040F0B583B016461F460B4C012525700023019300932B460A460146284600F0BCF83A463146207800F091F80221207800F008
:400D40007BF8207803B0F0BDDD80FF1FF0B583B016461F460B4D00242C700194009423460A460146204600F09FF83A463146287800F074F80221287800F05EF8287803B077
:400D8000F0BD00BFDE80FF1F014B1B681864704708ED00E04001C0B2014B1870704700BF00E400E00B4A7F2313708021517007E0DA0002F1804202F5F042013BDBB21370EC
:400DC000002BF5D1DB0003F1804303F5F04300221A707047E080FF1F172815D831B103010A495A5C42F020025A5405E0030107495A5C02F0DF025A540001044A835C43F076
:400E00000103835400207047012070471070004017280CD80001074BC1180A7942F004020A71C25C42F00102C254002070470120704700BF1070004017280BD80001064AD9
:400E4000835C03F0F103490001F00E011943815400207047012070471070004041F6FF73994201D14FF4005141F6FF739A4201D14FF40052172808D8C00000F1804000F568
:400E8000EC408180C280002070470120704700BF172805D8034B03EB0010417200207047012070471070004017281BD810B4C00000F1804404F5EC44D201D2B201F07F016F
:400EC000114321709DF804201201D2B203F00F03134363709DF8083003F00F03A3700020E07001E00120704710BC704710B500F0E7FC0A4B5B78182B0BD9084A1478013BFD
:400F00005370E30003F1804303F5F0431B78137000E0FF2400F0D8FC204610BDE080FF1F10F0800F0CD111F4704F0BD1C00000F1804000F5F04001808270C370002070477C
:400F4000012070470120704710F0800F08D1C00000F1804000F5F0408180C280002070470120704701BE704710B5044605E0084B186800F09DFCA4F50044B4F5004FF6D868
:400F8000034B586800FB04F000F092FC10BD00BFE880FF1F08B5034B1B7A00FB03F000F087FC08BDE880FF1F70B504460E46074B1D681F2802D90020FFF7D4FF04F01F049C
:400FC000103455F8240045F8246070BD08ED00E038B504460D46072902D90020FFF7C2FF1F2C02D90020FFF7BDFF04F01F0000F1604000F564406D01EDB2057038BD00BFA2
:4010000038B50222114B1A7081220E3B1A70082202331A700F2511331D70002401331C704FF400420A4B1A6007212846FFF7D0FF08492846FFF7B8FF1022074B1A70074BF6
:401040001C70074B1C70074B1C7038BDD649004080E100E0B5100000D281FF1FD681FF1FDE81FF1FD481FF1F08B500F029FC064A137843F0040313701032137843F0040387
:40108000137000F021FC08BDA543004008B5074B1B7823B9FFF7B4FF0122044B1A70FFF7E3FF4FF40042024B1A6008BDA181FF1F00E100E038B5A54B1C78A54B1B7813F0AF
:4010C000400F00F03A81E4B214F0010F00F01D819F4B1B78453B052B00F21481DFE813F006008200120112010600DF0004F0DF0504F00A04082C42D1954B1B78DBB2452B1C
:4011000035D1944B1B7813F0FF0F10D0924B1B681B78DBB2914A137004228C4B1A7001228F4B1A7046228A4B1A702C46EDE08D4B1B7813F0020F0DD08B4A137843F00A0358
:4011400013706022824B1A704FF40042874B1A602C46DAE0864A137843F0100313701022844B1A700422023B1A702C46CDE00022764B1A704A22764B1A702C46C5E00A2CEA
:401180002BD1794A137843F0A0031370754B1B7813F0020F14D06E4B1B7813F0080F01D0092300E00A23704A11780B4313706022674B1A704FF400426C4B1A602C46A4E053
:4011C0006B4A137843F0100313701022694B1A700422023B1A702C4697E00020FFF7C2FE2C4692E014F0020F36D15D4B1A78D2B2584B1B78DBB29A4210D2594A1378DBB2D0
:4012000055490968CB5CDBB254490B7004214F4B197013780133DBB2137076E0514B1B7813F0020F0CD0504A137843F00A0313706022474B1A704FF400424C4B1A6064E0E7
:401240004B4A137843F0100313701022494B1A700422023B1A7058E0424B1B7813F0020F0CD0414A137843F09A0313706022384B1A704FF400423D4B1A6046E03C4A13784A
:4012800043F01003137010223A4B1A700422023B1A70354A137843F09003137035E0364A1378DBB2354908682C490978C9B2C15413780133DBB213701278D2B2304B1B78D8
:4012C000DBB29A4203D21022204B1A701DE0254B1B7813F0020F0CD0234A137843F00903137060221A4B1A704FF400421F4B1A600BE01F4A137843F0100313700022134BDD
:401300001A7002E00020FFF72DFE14F0200F1CD00F4B1B7813F0080F01D0012300E00223114A11780B431370114A137803F0EF0313701022064B1A7038BD054B1B7813F0F5
:40134000100F02D11022024B1A7038BDD7490040D281FF1FD581FF1FE081FF1FD8490040D481FF1FDC81FF1FD681FF1F80E100E0D6490040D9490040DE81FF1FD881FF1FFF
:40138000DD81FF1F1A4B1B78DBB2102B29D1194B1B7813F0080F26D14FF40042164B1A604000C0B229B140F001004922104B1A7002E045220E4B1A70104B1870012201331C
:4013C0001A700F4B1B7813F0010FFAD00C4B1B7803F00A030A2B08D11022054B1A700320704702207047012070470020704700BFD281FF1FD949004080E100E0D8490040FF
:40140000D74900400A4B1B7813F0040F0ED01023074A13700421023A1170064A1370064B1B7813F0210FFAD00020704702207047D9490040D281FF1FD7490040114B1B7801
:4014400013F0040F1BD0104B18700422013B1A7046220E4B1A700E4B1B7813F0010FFAD00B4B1B7813F0020F04D16022074B1A70002070476022054B1A7003207047022029
:40148000704700BFD9490040D8490040D281FF1FD7490040014B1B685864704708ED00E04001C0B2014B1870704700BF01E400E00222014B1A60704700E100E00222014B77
:4014C0001A60704780E100E010B50446FFF7F6FF2046FFF7DFFF0720FFF7E2FFFFF7E8FF10BD00BF0222014B1A60704780E200E0024A137843F08003137070477765004019
:40150000024A137803F07F031370704777650040014B1870704700BF07650040014B1870704700BF47650040014B1870704700BF27650040014B1870704700BF37650040A1
:40154000014B1870704700BF87640040014B1878704700BF67640040014B1878704700BF5765004008B501E0FFF7F6FFFFF7EEFF10F0100FF8D108BD08B5134A137803F09A
:40158000C00343F0090313702032137843F0010313701F20FFF7BCFF1F20FFF7BFFF1020FFF7C2FF1020FFF7C5FF0020FFF7C8FF00F086F9054A137843F01003137000F07C
:4015C00083F9FFF7CFFF08BD776500409764004008B5054B1B7823B9FFF7CEFF0122024B1A70FFF785FF08BDA281FF1F044A137803F03F038001C0B218431070704700BF84
:40160000C0510040044A137803F0CF03000100F03000184310707047C0510040044A137803F0F703C00000F0080018431070704700510040044A137803F0EF03000100F067
:40164000100018431070704700510040044A137803F0DF03400100F0200018431070704700510040014B1B685865704708ED00E04001C0B2014B1870704700BF05E400E037
:401680002022014B1A60704700E100E02022014B1A60704780E100E010B50446FFF7F6FF2046FFF7DFFF0720FFF7E2FFFFF7E8FF10BD00BF014B1B681865704708ED00E037
:4016C0004001C0B2014B1870704700BF04E400E01022014B1A60704700E100E01022014B1A60704780E100E010B50446FFF7F6FF2046FFF7DFFF0720FFF7E2FFFFF7E8FFB6
:4017000010BD00BF014B1B689865704708ED00E04001C0B2014B1870704700BF06E400E04022014B1A60704700E100E04022014B1A60704780E100E010B50446FFF7F6FF44
:401740002046FFF7DFFF0720FFF7E2FFFFF7E8FF10BD00BF4022014B1A60704780E200E0014B1B68D865704708ED00E04001C0B2014B1870704700BF07E400E08022014B59
:401780001A60704700E100E08022014B1A60704780E100E010B50446FFF7F6FF2046FFF7DFFF0720FFF7E2FFFFF7E8FF10BD00BF044A137803F07F03C001C0B218431070E0
:4017C000704700BF00510040044A137803F0BF03800100F0400018431070704700510040014B1878704700BF68650040014B1878704700BF6E640040014B1B68986470473B
:4018000008ED00E04001C0B2014B1870704700BF02E400E00422014B1A60704700E100E00422014B1A60704780E100E010B50446FFF7F6FF2046FFF7DFFF0720FFF7E2FF96
:40184000FFF7E8FF10BD00BF0422014B1A60704780E200E0014B1B68D864704708ED00E04001C0B2014B1870704700BF03E400E00822014B1A60704700E100E00822014BE1
:401880001A60704780E100E010B50446FFF7F6FF2046FFF7DFFF0720FFF7E2FFFFF7E8FF10BD00BF0822014B1A60704780E200E00230800803D000BF01380046FCD17047E3
:4018C000EFF3108072B6704780F31088704700BF014B1868704700BF5881FF1F0E4B70B51E460E4C0025E41AA410A54204D056F8253098470135F8E700F0CCF8084B094C1C
:401900001E46E41AA4100025A54204D056F8253098470135F8E770BDA01A0000A01A0000A01A0000A81A0000931E222B10B50C4602D90020087010BD0A2A06D1002804DA97
:401940002D230B704042012100E00021214400F01FF8204610BDFFF7E7BF10B5431E0A44914204D011F8014B03F8014FF8E710BD03460244934202D003F8011BFAE7704770
:40198000034613F8012B002AFBD1181A01387047F0B58BB003460F466D461A4C04F1200E2E4620686168083403C674453546F7D1217920683171911E222930604FF0000082
:4019C00001D938701CE07D1EB3FBF2F402FB14330AAE334413F8283C411C05F8013F23460CB10846F0E77C543A18C11A8B4206DAF95C1478FC5402F801190133F5E73846F6
:401A00000BB0F0BD6E1A00000000000020000000520000004C0000002020000000000000400000001400000054000000C84900401900405100403000000001400010001440
:401A40000140000800400140000A004C014000021050014010000000605200408C0C0048060000500140940C0048100043003031323334353637383961626364656667687D
:401A8000696A6B6C6D6E6F707172737475767778797A0000F8B500BFF8BC08BC9E4670474D000000E9090000F8B500BFF8BC08BC9E46704729000000C81A0000C880FF1F7D
:401AC0009800000088000000000000000808000000090E001F1712001F1004FFFFFFFF007F800000030000000000E02EC05D00001800000000366E0100000000000000003E
:401B00000000000000000000000000000000000000000000000000006C1A00000000000000000000000000000000000000000000000000000000000000000000000000001F
:401B4000000000000000000000000000000000000000000000000000F880FF1F000000000000000000000000000000000000000000000000000000000000000000000000CF
:401B80000000000000000000000000000000000000000000000000000000000000000000000000000000000000000000000000000000000000000000000000000000000025
:401BC00000000000000000000000000000000000000000000000000000000000000000000000000000000000000000000000000000000000000000000000000000000000E5
:401C000000000000000000000000000000000000000000000000000000000000000000000000000000000000000000000000000000000000000000000000000000000000A4
:401C40000000000000000000000000000000000000000000000000000000000000000000000000000000000000000000000000000000000000000000000000000000000064
:020000040003F7
:0200000480007A
:4000000008520040015B0040026400402600014029010140280201403D0301403E040140420501403D06014046070140320801404B090140320A0140420B0140340C01406D
:40004000440D0140110E0140290F01402514014044150140381601404C170140251801404E190140341A0140481B01400C400140144101400F4201400E430140094501409F
:4000800009460140044701401648014024490140194C0140064D014005500140045101400110084009401080185A19C9781479102F848207870F2A013201580459045F018D
:4000C0008110821083208401850889018A018E028F0290029140938097089A089B049D04A102A408A701A804A920AB10AD80AE04AF40B21FB7FFB808BE04BF40D804D90445
:40010000DF0101080208040205080606070809080A400D080E46110212261501176419081D0C1F04240229082C022D082E0A2F08322A362B376439413B083C203D433E44F5
:40014000810882408908C0F6C2FCC4FFCAF2CCF7CEFBE00507020B0118012603310132013302340256025735580459045B0C5C095F01810D8201830287018B018F0196017E
:40018000970299089B059F01A504A709AB01AF01B201B303B50CB808BB08BE04D804D904DC30DF010001010409080A400B080E081102122E13101508181019081E18210837
:4001C00022102505260829582D042E482F0431083250362A38A53D123E045E2066206C026D106E046FC97490760277087F028A089308964499049A089E029F48A412A50153
:40020000A62AA708B202C00CC24EC42FCA7ECCEECEEFD620D820DE10E202EA04EE020055010502AA030A060407080A550B050E950F04120516551A251B051F0622062B05AF
:400240002E082F053003320C3430350C36C0370339083AAA3BA03F04580459045C335F01810186038701880389028D02900391019402960199019E03A501AA03AB01AC0370
:40028000AD01B001B202B301B502B920BF10D203D302D804D904DB04DF0100150180050406080AA40D400E400F20100212401402160418A019D01A041F0920042244271491
:4002C00029502D042E482F043250362238953A403D2A3E80462047046D206E206F02831886808C1290109230931894A5950896C0981099049A0C9B019D509E20A080A105B8
:40030000A390A632A702AC10B501B710C06FC2BEC4C9CA7CCCACCEFFE218E408EE020001020608010A120C010E020F0113021401160218021A011B041C011E022001220AB8
:4003400028012A0230083204330134033504361037023A205401580459045B0C5C225F018004840487018A048B018E0492049A029D04A201A402A804AC04AF06B001B20416
:40038000B301B504B602B702BE40BF04D407D804D90CDB04DD90DF010124020203400442070409210D200E22109113101501171018811A401B041C401D201E2220202250F4
:4003C000240227142B012C012E4032403601371038243C4059825A185D406520670C7B027F02814082108C018D088E40902491049210931A94019588964098909A089B0164
:40040000A080A101A382A6A2A880AA80B002B224C0DFC2EAC45FCA08CCA8CE16D61FDE18E080EA95031107210F15131917151B152302270129152B2A2F113330350C37036B
:400440003BA8580459045C105F0180018103860588018E019001930495019603980199039E01A001A102A401A801AC01B002B303B401B504B604B908BE10D608D808D90844
:40048000DB04DC99DD90DF0100180280038204A005040A950C480D011102120A1308162019101A011B42200821082414250426A027202B402C042D802E042F803118330247
:4004C0003422370438023D093E80594063027B0189408C108D108E8490029101929094A49606986099049A209B099C049E809F24A018A101A20AA404A54CA6A0A703B08052
:40050000B240B404C0EFC2BFC42FCAF1CCE7CED1D608D808DE08E080E450E820EA150011030206020A080B940E040F2010111301160F170118111B011C111F1820112354CF
:4005400024112701281129552BAA2C112F5531303210330335C0360F370C3BAA3E40580859045C195F01850887018F0291029B08AF04B108B301B502B704D804D904DC4043
:40058000DF0100180101030204A0062009890A040C080E82114012821328144018121A102190224A230824082751282429012A802F01318032213304371139613D803F0809
:4005C0007B0189018A088F41948495609606986099059A209C849E809F24A018A101A201A304A58CA6CAA802AD01AF40B504B621C0EFC2BFC41FCA1FCCAFCE5DDE08E218FB
:40060000E408E810EA0C030207010B010F01130117011B012301270129012B022F0131033B02580459045C105F0183088520860287108A028B048F04920295359602970A12
:400640009A029B029E029F04A202A304A602A701AA02AD10AE01AF25B002B10CB201B330B503BB22BE01D804D904DC14DF01000402040304048006200708080209010A2687
:400680000B020C080E821002110912881312144019011B04202021052210250129012A842C042D012E042F0130043180321034203705396A3A103C043D023E803F10582013
:4006C0005A2085088A208B219604978098409B089C829E309F22A008A580A62AA984AB02AE01B102B301C0E6C2BFC41FCAFBCCEECEFFE480EC200404060312081401160417
:400700003001320234083604580459045B045C055F01D804D904DF010320062007090A100B800C4814A01A121B2228A02A202C403040310234A03620370138203B013D08A1
:400740003E203F015A445B2260026104621280188104830988408E48C0E4C2ACC430CA87CCB9CEE5D60FD80FE080140132013E045608580459045B045D905F01800581022E
:4007800082028502880789028C078D02930499029A07A002A205A301A407A702A803AA04AD02B001B104B202B404B501B702D804D904DF0102220480068807400810090856
:4007C0000B080C10114713101511170418201D011E201F2026A2274428102C102E802F80322236203701388039553A083B103D423E083F10588062408010830486108B308C
:400800008D018E8290809318954098809A089B019E409F40A109A384A622B201B648B701C0D5C246C47FCAD2CCA5CEFFD608D808E010E2C0E640E810EA60EE045804590458
:400840005F0182028604871888088E018F049401970199019B029F10A218A302A604A708B003B110B210B303B404B504B608B708BE10C060C102C5D2C621C705C81FC9FF6A
:40088000CAFFCBFFCDA0CF04D018D280D804D904DA04DB04DC99DD99DF01E040E2C0E440E540E6C0E8C0EAC0ECC0EEC000040240030A048006080740080109010A200C0117
:4008C0000E200F0410A0162019801A081B0B200C22892A062D402F043080320833203630374038043B403D023E283F104110482449025080511452045A407340832085017B
:4009000086208E0290809220931E9509960898809A089B019D82A109A384A6A2A701A940AA22AB40B010C0DFC274C42CCA33CC3ECEEAD004D204D608E040E280E412E604CE
:40094000E801EE80030207020B020F02130117021B0227022B02350237013F10580459045B045C405F018005820A86028A018E01920496019A019E08A201A604AA05AE01B6
:40098000B00CB403BA22D804D904DC01DF01000401800241030404A00504082009040A010B880C4A1010112113401502163018041A041B0125402704284029042D042F28C8
:4009C000300A3410371938A039023C283EE13F025C805D045E205F02668167287E207F108501860888028A208B4090A09101931095029606986499049A449B019C029D801A
:400A00009F04A018A114A220A540A840B004B240B310C0EFC2BFC41FCA63CCE3CEFDD6F0D8F0E280E410E604EC80020406040A050E02120116041A011E04220826042805A0
:400A40002A0A2E01340C36033AA0580459045C015F0182248304860487048A158B058E048F0892089415962A97059A169B069E159F04A615A704A905AA15AB0AB00CB23044
:400A8000B303B403B50CBA2ABB28D804D904DC11DF01000201800204035004080605074208220A010B200E450F101292131016101714180819801A021B201C081E641F18A8
:400AC0002718284029042A802C042F20300A375438203A083C083D203E013F808280832088038A108E818F489020920193109642986699049A1C9D809F1AA008A110A20269
:400B0000A406A610A728AA02AB04B094B340C0FFC2FFC46FCA6BCC73CEF6E010E490E810EE0412201680311033023510360238103B023E80C430CCF0CE70324033083710DB
:400B400062028602941097029B109D10A220A308A602A702AB10AF08CC70D840E240EA20EE403E205080830A86208C109410968097029D10A220A702CE20D420E230E68054
:400B80008110882097029B0A9D10A380A702A880AA20B380B640E620EA20EC8003100602092021025D02C009C202C802D601850287108E029A029D02A102AB10AD20E202C2
:400BC00097109F08A902AB08044006202408282053805640862089028C408F0497029A409B0A9C20A380A702B240C0A0C820CA40D460E01011021704501157205B025C406B
:400C00005F0863086602750278808040830287208A028C118D01988099029B0A9F04A304A702AB01B080B404B704C430D4E0D6E0D8C0DC80DE20E220E630EE200E08131817
:400C400014201F803402662076207B087D20820488208D1097109A209F08B220C201C40EC601CC01D801DE07E201E408EC018F08A708AB80B402E008E808101311011A0198
:400C80001B011C1300FF01FF03C0100A02010000030000003F0100000000000009010D011301330000F8F80010000400030000F8FB000B000000000001000A151500150019
:400CC00000000000804B4B0040000000490000C980008000000000000000000000FFFF0000010000000000000000000000000000000000000000000000000000000000008D
:400D000000000000000000000000000000000000000000000000000000000000000000000000000000000000000000000000000000000000000000000000000000000000B3
:400D40000000000000000000000000000000000000000000000000000000000000000000000000000000000000000000000000000000000000000000000000000000000073
:400D80000000000000000000000000000000000000000000000000000000000000000000000000000000000000000000000000000000000000000000000000000000000033
:400DC00000000000000000000000000000000000000000000000000000000000000000000000000000000000000000000000000000000000000000000000000000000000F3
:0200000490006A
:0400000000004005B7
:0200000490105A
:04000000BC90ACAF55
:0200000490303A
:02000000CC77BB
:0200000490402A
:4000000000000000000000000000000000000000000000000000000000000000000000000000000000000000000000000000000000000000000000000000000000000000C0
:400040000000000000000000000000000000000000000000000000000000000000000000000000000000000000000000000000000000000000000000000000000000000080
:400080000000000000000000000000000000000000000000000000000000000000000000000000000000000000000000000000000000000000000000000000000000000040
:4000C0000000000000000000000000000000000000000000000000000000000000000000000000000000000000000000000000000000000000000000000000000000000000
:0200000490501A
:0C00000000012E16106900012E23DCE028
:00000001FF