:400000000080002011000000950700009507000008B5044B1A6803F53F5302331A6000F0D9FB00BFFA46004010B5054C237833B9044B13B10448AFF300800123237010BD6B
:400040006081FF1F00000000C01F0000084B10B51BB108490848AFF300800848036803B910BD074B002BFBD0BDE81040184700BF000000006481FF1FC01F0000C880FF1F14
:400080000000000010B500F043FE044600F056FE204600F0E3FD0D2C05D10A2000F04EFE0A2000F0DBFD10BD10B5002001F00CF9034C2070012001F007F9607010BD00BF2A
:4000C0007C81FF1F38B5044601F072FBC0B2421E0020012514E0A35CA3F13001C9B2092904D8303B05FB03002D0108E0A3F14101C9B2052903D8373B05FB03002D01013A3B
:40010000002AE8DAC0B238BDF0B583B006460D46002416E00B21012000F0C4FF2B19DB7802A800F8043D00F04DFF2B5DB34206D13D446A78084B1A70AA785A7007E0013489
:40014000E4B22746284601F033FB8442E2D30248FFF7B8FF03B0F0BDB481FF1F10B5104B1B78492B09D10F492F20FFF7CDFF0E4B18700E4800F0EEFD10BD542B0ED10949D1
:400180002F20FFF7C1FF0246094B9870074C0949204601F0E9FA204600F0DCFD10BD00BFA081FF1FA181FF1FF881FF1FB881FF1F7C81FF1FC41F000008B562B6254800F05F
:4001C00011FE254800F036FE00F05EFF00F0EAFC00F084FB00F08EFD00F024FD01F03EFA1E4801F063FA01F057F801F069F81C4801F094F81B4801F0B5F9012000F0F4FEEC
:4002000000F000F920B100F007F908B1FFF7A6FF0021084600F046FF134800F0D3FE0221002000F03FFF114C207800F069FF0521002000F037FF0E4800F0C4FE0721002086
:4002400000F030FF607800F05BFFC82000F036FCD3E700BF85000000C9030000ED020000A9000000B1020000D41F00007C81FF1FD81F0000014618B90C4B30221A705A7004
:4002800001230FE001F00F02092A05D830320748C254013BDBB204E037320448C254013BDBB209090029EDD1704700BFB481FF1F00B585B001F070F9C043C0B201F060F94C
:4002C00001F06AF9FFF7D6FF064A074901A801F04BFA01A800F0CEFC01A800F03BFD05B05DF804FBB481FF1FDC1F000030B585B0314B5A78A2F17903DBB2082B05D82E4B48
:400300001B78793BDBB2082B18D912F0800F26D0294B1A78A2F17403DBB2122B11D9A2F17D03DBB2422B0FD9C02A10D8A2F14103DBB23A2B0ED93F2A0FD910E000252C462B
:400340000DE050252C460AE050253C2407E05025192404E03225502401E0192550246E2C02D86E2D03D804E000252C4601E000252C462046FFF77EFF0021012000F092FE97
:40038000204600F0ADFEC82000F098FB0B4C22460B4901A801F0E8F901A800F06BFC2846FFF768FF2246074901A801F0DDF901A800F060FC05B030BD7C81FF1FB481FF1F4B
:4003C000E41F0000EC1F000010B511E000F038FC044600F0B3FC094B1A68511C196014701A68074B9A4203D3A3F18002034B1A6000F02CFC10F0200FE8D110BDCC80FF1F51
:400400007C82FF1F034B18685B68C01A18BF0120704700BFCC80FF1F10494B685A1C4A601B780F498A4202D380390C4A51600D2B01D00A2B09D1094A936800211970094B81
:4004400093601B7843B90846704704498A68501C886013700020704701207047CC80FF1F7C82FF1FA081FF1FFEE700BFF0B40022174611E050F82760F3B226F0FF0608E03C
:4004800001EB420511F812406D78A5550132013BDBB2002BF4D10137292FEBD9F0BC704708B50A46002101F056F908BD38B517222D4B1A8018232D4A13704D222C490A801E
:4004C00002310B7002310A802A4A1370EF21023211800232137040F2AF4102321180023213700222244B1A7008224FF040231A70032103F500731970204B1B78DBB22049F1
:400500000B70204B1A8041F25122023B1A80002419250CE01C4B1B7803F0010343EA440404F003044FF4F07001F0CEF8013D0DB1032CEFD115B90320FFF796FF134B4FF4AD
:4005400080721A8007221A70002211490A704820023108701A700222033B1A700D4A137843F01F03137038BD8040004082400040844000408A400040004300400801004929
:40058000A146004022420040254200400440004006400040A2430040F8B51F4B1B78DBB21E4E3478E4B21E4F3D78EDB203F007011C4A11701B090132137044F0030333705B
:4005C00045F003033B70E022174B1A708023174A1370042190321170402215490A7002310A70202201F295110A7090206831087060202031087003310A7022210D4A117029
:40060000123213700A2000F06FFA3D7034704422094B1A70F8BD00BFCF010049F8460040F94600406E5800400D5100403D51004001590040465B00407658004008B501F0A8
:400640007FF808BD38B572B63C4A137843F00403137000240CE03A4D630019194A0011462A44084691882858FFF71AFF0134E4B2072CF0D900240BE03149A30018194200C4
:4006800088180622416B006BFFF7D8FF0134E4B2002CF1D02B494FF09040FFF7E7FE04212948FFF7FDFE042228492948FFF7C6FF284A137843F0020313701032137843F076
:4006C00002031370244C237843F040032370A2F58632513A137843F01003137008221F491F48FFF7ABFF0A221E491F48FFF7A6FF05221E491E48FFF7A1FF0A221D491E4880
:40070000FFF79CFF08221D491D48FFF797FF1D4A137843F0080313701B4D61232B70FFF7C5FE81232B700122184B1A70FFF734FF0E2221461648FFF781FF38BDE84600406E
:40074000F41F0000A800004800760040880B00480876004003500140A0430040580B004802510040600B0048C05100406C0B0048CB510040740B004810510040800B0048D8
:4007800022510040224300400048004004000840B043004008B500F0A7FF03680C2B00D1FEE7FEE708B5094B1A681044084BC31A802B02DC054B186005E000F095FF0C234A
:4007C00003604FF0FF32104608BD00BFD880FF1F9082FF1F08B5104E104D16E029686B68AC68002204E051F8040B43F8040B0432A242F8D1E868002203E0002143F8041B65
:4008000004328242F9D11035013E002EE6D100F071FFFFF7D1FCFEE701000000DC20000008B5114A114B1A60114A136843F40073136000230AE0032B03D80E4A52F82310BA
:4008400000E00D490D4A42F8231001332F2BF2D90B4B1A780B4B1A70084A0B4B1A60FFF7F1FE00F049F808BD0004FA050CED00E014ED00E000000000950700000080FF1F69
:40088000BC760040C080FF1F08ED00E0084A137843F060031370A2F5A652133A137843F0080313701032137843F008031370704777580040054B1A7802F0FC021A701A7833
:4008C00000F0030010431870704700BF5E58004008B50320FFF7EEFF08BD00BF08B5054B1B7823B90122034B1A70FFF7F1FFFFF7CDFF08BD8081FF1F0B4A7F231370802159
:40090000517007E0DA0002F1804202F5F042013BDBB21370002BF5D1DB0003F1804303F5F04300221A707047DC80FF1F172815D831B103010A495A5C42F020025A5405E07E
:40094000030107495A5C02F0DF025A540001044A835C43F00103835400207047012070471070004017280CD80001074BC1180A7942F004020A71C25C42F00102C254002033
:4009800070470120704700BF1070004017280BD80001064A835C03F0F103490001F00E011943815400207047012070471070004041F6FF73994201D14FF4005141F6FF7374
:4009C0009A4201D14FF40052172808D8C00000F1804000F5EC408180C280002070470120704700BF172805D8034B03EB0010417200207047012070471070004017281BD896
:400A000010B4C00000F1804404F5EC44D201D2B201F07F01114321709DF804201201D2B203F00F03134363709DF8083003F00F03A3700020E07001E00120704710BC704798
:400A400010B500F049FE0A4B5B78182B0BD9084A1478013B5370E30003F1804303F5F0431B78137000E0FF2400F03AFE204610BDDC80FF1F10F0800F0CD111F4704F0BD18F
:400A8000C00000F1804000F5F04001808270C37000207047012070470120704710F0800F08D1C00000F1804000F5F0408180C280002070470120704701BE704710B50446FE
:400AC00005E0084B186800F0FFFDA4F50044B4F5004FF6D8034B586800FB04F000F0F4FD10BD00BFE480FF1F08B5034B1B7A00FB03F000F0E9FD08BDE480FF1F054A13783E
:400B000043F0080313701032137843F008031370704700BFA8430040054B1A7802F0FD021A701A7800F0020010431870704700BF2C580040014B1870704700BF835B004067
:400B4000064B1B78C3F3810303F19243063393F83831DBB2024A1370704700BF2C5800400B46004008B5064B1A7802F0F3021A701A7800F00C0010431870FFF7E1FF08BD25
:400B80002C58004008B50023054A1370013213700420FFF7E7FF0220FFF7BEFF08BD00BF2C58004008B5074B1B7823B9FFF7EAFF0122044B1A70FFF7A1FFD020FFF7BAFF5E
:400BC00008BD00BF8181FF1F7222074B1A702022023B1A700622623B1A70472210331A700022AF3B1A7070478965004010B500F073FD04460A4A137843F020031370023A75
:400C0000137843F010031370A2F20112137843F01003137000F0B0F8204600F061FD10BD9965004008B5054B1B7823B9FFF7CCFF0122024B1A70FFF7D9FF08BD8281FF1F23
:400C4000014B1878704700BF4A650040024B187800F07F00704700BF67650040034B1B7813F0040FFAD1024B18707047666400404665004038B5074B1B782BB938BDFFF781
:400C8000EDFF0134A4B201E005460024285D0028F5D138BD8281FF1F7222074B1A702022043B1A700622593B1A70472210331A700022B73B1A7070478865004010B500F0B6
:400CC0000BFD04460A4A137843F020031370043A137843F010031370A2F58072137843F01003137000F056F8204600F0F9FC10BD9865004008B5054B1B7823B9FFF7CCFFAB
:400D00000122024B1A70FFF7D9FF08BD8481FF1F084B1B78DBB213F0200F06D0064A1078C0B213F01E0F02D17047002070470020704700BF6465004048640040034B1B7841
:400D400013F0040FFAD1024B18707047646400404B64004038B5074B1B782BB938BDFFF7EDFF0134A4B201E005460024285D0028F5D138BD8481FF1F054A137843F002030A
:400D800013701032137843F002031370704700BFA2430040054A137843F0040313701032137843F004031370704700BFA2430040014B1B681865704708ED00E04001C0B246
:400DC000014B1870704700BF04E400E01022014B1A60704700E100E01022014B1A60704780E100E010B50446FFF7F6FF2046FFF7DFFF0720FFF7E2FFFFF7E8FF10BD00BFE6
:400E0000014B1B68D864704708ED00E04001C0B2014B1870704700BF03E400E00822014B1A60704700E100E00822014B1A60704780E100E010B50446FFF7F6FF2046FFF7B1
:400E4000DFFF0720FFF7E2FFFFF7E8FF10BD00BF10B50B4C237803F09F032370237803F0F00323702378184340F0100020700120FFF73AFE237803F0EF03237010BD00BF86
:400E80002051004038B505460E4C237843F020032370237803F0BF0323700020FFF724FE237803F0F003237023781D4345F0100525700120FFF718FE237803F0EF03237022
:400EC00038BD00BF2051004070B5354B1A7802F08002D2B21A7033490A7802F0F00242F00F020A7001310A7802F0F0020A7001310A7802F0F0020A701A7802F0DF021A7022
:400F00001A7842F040021A704FF4CA760020FFF7EBFD234D2B7843F010032B700120FFF7E3FD214B1C78E4B22B7803F0EF032B700020FFF7D9FD04F00804E4B22B7843F0A4
:400F400010032B700120FFF7CFFD2B7803F0EF032B7014B90A20FFF7C7FD013E0CB1002ED4D10F4A137803F0BF031370137803F08003DBB213700232137803F0F0031370E8
:400F80000132137803F0F00343F00F0313700132137803F0F00343F00F03137070BD00BF20510040225100402151004010B50446FFF78AFF2009FFF765FF04F00F00FFF74D
:400FC00061FF10BD38B505460078012404E0FFF7EDFF285D0134E4B20028F8D138BD00BF08B5FFF7E3FF08BD10B50446FFF76CFF2009FFF72DFF04F00F00FFF729FF10BD31
:4010000008B52820FFF75AFD0320FFF721FF0520FFF754FD0320FFF71BFF0F20FFF74EFD0320FFF715FF0120FFF748FD0220FFF70FFF0520FFF742FD0620FFF7D5FF0E20EF
:40104000FFF7D2FF2C20FFF7CFFF0820FFF7CCFF0120FFF7C9FF0C20FFF7C6FF0320FFF7C3FF0520FFF72AFD014800F07BF808BD4020000008B50C20FFF7B6FF0122014BF9
:401080001A7008BD8681FF1F08B5054B5B7823B9FFF7B6FF0122024B5A70FFF7EBFF08BD8681FF1F08B5032819D8DFE800F002070D1381F08000FFF797FF08BDA1F1400084
:4010C000C0B2FFF791FF08BDA1F16C00C0B2FFF78BFF08BDA1F12C00C0B2FFF785FF08BD38B504460309054DE85CFFF779FF04F00F04285DFFF774FF38BD00BF30200000CF
:4011000010B584B000238DF80E30092211E0144BA3FB0013DB081C4603EB83035900431ADBB2303304A9114401F80C3C2046013AD2B20928EBD80A4BA3FB0013DB0803EB12
:4011400083035900431ADBB2303304A9114401F80C3C01AB9818FFF735FF04B010BD00BFCDCCCCCC38B50546FFF7AEFE4020FFF73BFF002404E0285DFFF718FF0134E4B23A
:401180003F2CF8D9FFF7A0FE8020FFF72DFF38BD10B541F6FF734FF480420121022000F07DF9084C207041F6FF731A460121042000F092F96070044800F0ACF9002000F01C
:4011C000AFF910BD8881FF1FE512000070B52C4C2078FFF7C7FB6078FFF7C4FB294B1B78FF2B03D1FFF72CFC264B1870254D2878062302460421FFF73DFC214E341DA4B2D9
:40120000224645F6A0312878FFF748FC29783078FFF7E8FB6B78FF2B02D1FFF711FC6870184D6878072302460421FFF723FC164A92B221466878FFF731FC114C697860786E
:40124000FFF7D0FB01212078FFF770FB01216078FFF76CFB00F040FA0C4A137843F02003137000F03DFA0A4B1A7842F001021A701A7842F002021A700122064B1A6070BD1D
:401280008881FF1FF480FF1F7C82FF1F916400407264004080E200E008B5074B9B6823B9FFF776FF0122044B9A6000F0E1F8FFF78DFF024B1B7808BD8881FF1F6B650040E0
:4012C00008B500F0E3F808BDC0F10100034B33F91030034A1088181A00B270477C82FF1F8282FF1F704700BF014B1B685864704708ED00E04001C0B2014B1870704700BFED
:4013000001E400E00222014B1A60704700E100E00222014B1A60704780E100E010B50446FFF7F6FF2046FFF7DFFF0720FFF7E2FFFFF7E8FF10BD00BF08B50A280FD00C2807
:4013400002D0082806D102E04FF4805209E04FF4807206E00020FFF7AFFB002201E04FF480620021094B198042F2107303FB02F303F6C413064A82FB0302DB17C3EBE223B2
:40138000044A1360044B198008BD00BF8482FF1FAD8BDB688882FF1F8282FF1F10B500F09BF90446184A137843F0010313701032137843F00103137002F5AA52083213789E
:4013C00043F0030313701822104B1A70013B1A7842F040021A701A7802F0FC021A70C822053B1A700222A3F597530C3B1A70084A137843F0080313700A20FFF775FB20467B
:4014000000F06EF910BD00BFAB43004006590040275B004010B504460A280DD00C2802D0082804D101E0C22207E0422205E00020FFF742FBC22200E08222034B1A70204623
:40144000FFF77AFF10BD00BF0259004008B5064A137843F0060313700820FFF7DBFF0022024B1A8008BD00BF015900408082FF1F08B5054B1B7823B9FFF7E8FF0122024B77
:401480001A70FFF78BFF08BD9481FF1F024A137843F001031370704700590040F0B583B016461F460B4C012525700023019300932B460A4601462846FFF7A0FA3A46314657
:4014C0002078FFF775FA02212078FFF75FFA207803B0F0BDF680FF1FF0B583B016461F460B4D00242C700194009423460A4601462046FFF783FA3A4631462878FFF758FAC7
:4015000002212878FFF742FA287803B0F0BD00BFF780FF1F014B1B681864704708ED00E04001C0B2014B1870704700BF00E400E0014B1B689864704708ED00E04001C0B2C0
:40154000014B1870704700BF02E400E00422014B1A60704700E100E00422014B1A60704780E100E010B50446FFF7F6FF2046FFF7DFFF0720FFF7E2FFFFF7E8FF10BD00BF78
:40158000044A137803F0F703C00000F0080018431070704700510040024B1878C0F3C000704700BF01510040084A137843F0010313701032137843F00103137002F64D329D
:4015C000137843F001031370704700BFA3430040014B1870704700BF034F0040014B1880704700BF044F0040014B1880704700BF064F004008B5164A137803F00103137030
:401600000232137803F0FC031370124B1A7802F0CF021A701A7842F030021A701A7802F0F0021A701A7842F00F021A700A4A137843F0010313704FF6FF70FFF7CFFF4FF605
:40164000FF70FFF7D1FF0820FFF7C2FF08BD00BF004F00400B4F0040014F004008B5054B1B7823B9FFF7C6FF0122024B1A70FFF79BFF08BD9581FF1F014B1B68586570471C
:4016800008ED00E04001C0B2014B1870704700BF05E400E02022014B1A60704700E100E02022014B1A60704780E100E010B50446FFF7F6FF2046FFF7DFFF0720FFF7E2FFDD
:4016C000FFF7E8FF10BD00BF0230800803D000BF01380046FCD17047EFF3108072B6704780F31088704700BF014B1868704700BF5881FF1F0E4B70B51E460E4C0025E41AC8
:40170000A410A54204D056F8253098470135F8E700F0D2FC084B094C1E46E41AA4100025A54204D056F8253098470135F8E770BDC4200000C4200000C4200000CC200000EB
:4017400010B5431E0A44914204D011F8014B03F8014FF8E710BD03460244934202D003F8011BFAE7704700000EB400B54FF402719CB0ADF814106FF00041049107914FF6C9
:40178000FF711DAB02900690084853F8042BADF81610006802A9019300F06CF8029B00221A701CB05DF804EB03B070475881FF1F034613F8012B002AFBD1181A01387047E7
:4017C0002DE9F0478E6882469E420C46914698463ED88A8912F4906F3AD02568096902236F1A656905EB450595FBF3F57B1C43449D4238BF1D4653050FD5294600F040FB65
:40180000064698B13A462169FFF79AFFA38923F4906343F08003A38113E02A4600F08EFB064670B92169504600F0DEFA0C23CAF80030A3894FF0FF3043F04003A381BDE837
:40184000F08726613E44266046466561ED1BA560464528BF464649463246206800F0A8FAA36800209B1BA36023681E442660BDE8F08700002DE9F04F9DB003938B8980465F
:401880001C060D4616460DD50B695BB9402100F0F7FA2860286118B90C23C8F80030CDE040236B610023099320238DF82930DFF89CB130238DF82A3037463C4614F8013B51
:4018C0001BB9B7EB060910D003E0252BF9D02746F3E74B46324629464046FFF771FF013000F0A780099B4B4409933B78002B00F0A08000234FF0FF320493079305920693E3
:401900008DF853301A930126052221784E4800F041FA671C049B38B14B4A3C46801A06FA00F018430490EFE7D90644BF20228DF853201A0744BF2B228DF8532022782A2A66
:4019400003D0079A00210A200BE0039A111D12680391002A10DA524243F00200079204900BE027463B780134303B092B03D800FB02320121F5E701B107923B782E2B1ED1AD
:401980007B782A2B0AD1039B02371A1D1B680392002BB8BF4FF0FF33059310E0002319460593781C0A2407463A780130303A092A03D804FB01210123F5E703B1059103222F
:4019C0003978224800F0E6F940B14023CBEB000003FA00F0049B013718430490397806221B487E1C8DF8281000F0D4F988B1194B33B9039B073323F007030833039314E0AD
:401A000003AB00932A46144B04A94046AFF3008007E003AB00932A460F4B04A9404600F093F8B0F1FF3F824603D0099B5344099342E7AB895B0601D4099801E04FF0FF30CD
:401A40001DB0BDE8F08F00BF82200000882000008C20000000000000C11700002DE9F04791461F460A698B6806469342B8BF1346C9F8003091F843200C46DDF8208012B1A1
:401A80000133C9F800302368990642BFD9F800300233C9F80030256815F0060510D104F1190A07E00123524639463046C04701301AD00135E368D9F800209B1A9D42F1DB8D
:401AC00094F843302268003318BF012392060FD5E118302081F843005A1C94F845102244023382F8431003E04FF0FF30BDE8F08704F1430239463046C0470130F4D02268CD
:401B0000D9F80050E36802F00602042A08BF5D1B2269A3680CBF25EAE57500259342C4BF9B1AED184FF000091A344D4509D00123224639463046C0470130D5D009F101096E
:401B4000F3E70020BDE8F0872DE9F04317460A7E85B06E2A984606460C460C9B01F1430E00F0AE8011D8632A22D009D8002A00F0BB80582A40F0CA8081F84520834955E057
:401B8000642A1ED0692A1CD0C0E0732A00F0B08009D86F2A2ED0702A40F0B8800A6842F020020A603EE0752A24D0782A3AD0ADE01A6801F14205111D1960136884F842306E
:401BC000A8E021681A6811F0800F02D0111D196008E011F0400F02F10401196002D0B2F9003000E01368002B3CDA2D225B4284F8432037E021681A6811F0800F02D0111DDA
:401C0000196007E011F0400F02F10401196001D0138800E01368227E5C496F2A14BF0A2208221BE078225A4984F845202268186812F0800F00F104051D6003D1550601D585
:401C4000038800E00368D00744BF42F0200222601BB9226822F0200222601022002084F8430001E049490A226568002DA56008DB206820F0040020602BB9002D7DD1754602
:401C80000CE0002B79D07546B3FBF2F002FB1033CB5C05F8013D03460028F5D1082A0BD12368DA0708D5236962689A42DEBF302305F8013C05F1FF35C5EB0E0323612EE070
:401CC00008681A6810F0800F496903D0101D1860136808E010F0400F02F104001860136801D0198000E0196000232361754616E01A68111D1960156800216268284600F093
:401D000049F808B1401B6060636804E004F1420584F8422001232361002384F84330CDF800803B4603AA21463046FFF797FE013002D14FF0FF3026E023692A4639463046C7
:401D4000C0470130F5D023689B0710D5002504F1190907E001234A4639463046C0470130E7D00135E368039A9B1A9D42F2DBE068039B9842B8BF184605E00B7804F14205E1
:401D800084F842308AE705B0BDE8F08393200000A420000010B5C9B202449042034605D01C7801308C42F8D1184610BD002010BD884210B501EB020301D8421E0BE0984218
:401DC000FBD28118D21AD34204D013F8014D01F8014DF8E710BD994204D011F8014B02F8014FF8E710BD000038B50546002944D051F8043C0C1F002BB8BFE41800F0D4F8DF
:401E00001E4A1368114613B96360146030E0A3420DD92268A018834201BF18685B681218226063600C6023E0A24203D813465A68002AF9D118681918A1420BD12168014496
:401E400058188242196013D110685268014419605A600DE002D90C232B6009E021686018824201BF106852680918216062605C602846BDE8384000F098B838BD9C81FF1FEA
:401E800070B5CD1C25F0030508350C2D38BF0C25002D064601DBA94202D90C23336046E000F082F8234B1C681A462146A1B10B685B1B0ED40B2B03D90B60CC18CD501EE09A
:401EC0008C420BBF63684B681360636018BF0C4615E00C464968E9E7174C23681BB9304600F052F820602946304600F04DF8431C18D0C41C24F00304A0420DD1256030469C
:401F000000F053F804F10B00231D20F00700C31A0ED05A42E25070BD211A304600F034F80130EBD10C233360304600F03EF8002070BD00BF9C81FF1F9881FF1FF8B50746C9
:401F400015460E4621B91146BDE8F840FFF798BF1AB9FFF749FF2846F8BD00F027F885420ED929463846FFF78BFF044650B131462A46FFF7E5FB31463846FFF735FF01E0F1
:401F80003046F8BD2046F8BD38B5064C0023054608462360FEF706FC431C02D1236803B12B6038BD8C82FF1F7047704751F8040C0028BEBF091851F8043CC0180438704768
:401FC0000000000054657374476574616C3D25750D000000583A0000593A00004D2F25732F0D00004C2F25732F0D0000522F25732F0D0000004F00400C00405100403000BB
:40200000F0510040100000000140001000140140000800400140000A004C0140000200500140200060520040500B0048060000003031323334353637383941424344454659
:40204000000E0808080E0000000A0A0404040000000E0A0E08080000000E0A0C0A0A0000000E080C080E0000000E080E020E0000000E080E020E00000004040400040000EE
:402080004300232D302B2000686C4C006566674546470030313233343536373839414243444546003031323334353637383961626364656600000000F8B500BFF8BC08BC06
:4020C0009E4670474D00000021080000F8B500BFF8BC08BC9E46704729000000F0200000C880FF1F98000000300100000000000000000000FC81FF1FFC81FF1FA081FF1F73
:402100009082FF1F7F800000030000000000E02EC05D00001800000000366E01FFFFFFFF000000000000000000000000000000000000000000000000000000000000000089
:4021400080200000000000000000000000000000000000000000000000000000000000000000000000000000000000000000000000000000000000000000000000000000BF
:40218000F880FF1F00000000000000000000000000000000000000000000000000000000000000000000000000000000000000000000000000000000000000000000000089
:4021C00000000000000000000000000000000000000000000000000000000000000000000000000000000000000000000000000000000000000000000000000000000000DF
:40220000000000000000000000000000000000000000000000000000000000000000000000000000000000000000000000000000000000000000000000000000000000009E
:40224000000000000000000000000000000000000000000000000000000000000000000000000000000000000000000000000000000000000000000000000000000000005E
:40228000000000000000000000000000000000000000000000000000000000000000000000000000000000000000000000000000000000000000000000000000000000001E
:020000040003F7
:0200000480007A
:40000000024F004003520040015B0040036400400465004012000140350101402F0201403E03014017040140440501401B0601404707014045080140480901403A0A014074
:40004000410B0140040C0140060D0140020F014037140140501501404B160140511701404118014042190140621A0140591B01400C4001400F4101400F420140064301409D
:40008000024401400345014004460140044701400748014003490140034C0140084D01400C5001400351014001300A4B004001400C4027848101840F860F84388738887287
:4000C0008972580459045F0183018402A601A802B001B402B701B820BE10D602D739D804D904DB0CDF010102040A0502060407200A010B100C100D400E810F1210501180EB
:400100001204152017051E801F102540270128502B012C102E013301344035023640371038023A043B103D803E023F105F2067206D406E0A6F04760277087F02C078C2F53F
:40014000C47FCACBCCB1CEB7D620D840DE10E08002040308044006800710082009430A100C020D491010114512201601170218081B201C041F4122022304240125012740B5
:4001800029512A082C802D412E40310134FF3540373E39803A083E103F4052035302580459045B045C015F01D804D904DF0102400310040206A20704082109080C010D0872
:4001C0000E8A0F96101012801550164417191C201D10240125202680274028102A402C112D102E02300131083310351036803709380239803E803F166C066F0289208C01EE
:400200008D408F409140940A95A097109A029B0D9C109E049F10A245A702C0FCC2FEC4FCCAFACCF7CEF9E210E6812C0132013E045401580459045B045D205F01830287012A
:400240008A018C02AF04B002B201B301B504B702BE01D804D904DF0100120301040205800718082109040C410D480F8010401340170519081C101D0C1F06240225042610C9
:40028000271428402A802D402E062F04310433113440371438023A203F8644104620470458825918810182408310870288018A148B018C218E1291C09304940295209B0905
:4002C0009C309E209F10A002A341A508B010C0FBC2BEC439CAF9CC77CED5D60FE004E8040101080309010E0118021F01270128032F013203370138083E043F40540158043A
:4003000059045B045D105F019301AB01B501BF10D804D904DF0103050545062107080A280B400C400D440E200F88104011081410151017211D082304264028402A802B088E
:400340002D402E2A31043206331034023540371439283A023D103E853FC040024150420458105A205E8A5F1066086710860187088D049180926499059A029B159D809E805C
:40038000A003A104A210A340A880AD10B002B340B510C0F3C2FEC47CCAFDCCF7CEF7D6F0EA02EE07028003030403063408030A1C0B0C0E150F08110C130315011628170E71
:4003C00019101A801E40202A221425012620270629102C032D102E043238340F351036C0370F3A283B883E404053410642024401460C470E481449FF4AFF4BFF4C624DA03F
:400400004EF04F41500C580459045A045C225D025F016640670269106A306B106D106E106F12D608D804D904DB04DD90DF0100040103030204820514089409100E151002CC
:400440001540161017011D941F1025282608270928912B022D102E402F103006320435043711380439013D803E124408458047084D804E0854045740584063018540861055
:400480008C809140921893109484984199029A429C809D149E109F01A002A110AB40AE20B004B540C0FDC2E7C4B1CA7BCCE3CEB3D070D230D608D808E010EA62EE04030158
:4004C0000F02110415061906210831083306350139083F05580459045C405F018203842C861188308A0C8F01930194099501961099019C14A01CA222A410A701AC40B101B6
:40050000B260B61FB808BF01C025C106C5B0C60CC70EC816C9FFCAFFCBFFCEF0CF44D00CD804D904DA04DC02DD02DF01E6C0EA40EB020004010204010515088109100A01E2
:400540000E100F02100211101580161217011C011E10210122202310274029012C212D1231143208330135943721388039803A013B403C043D603E013F8047204E084F4221
:400580005404574080028180880189108A048C208D42950298409A41A110AA01B240C07CC2ABC4B3CAF1CCF7CEF9D020D230E0C0E420EC8038803E4058045F011E0282010A
:4005C00089018D109840E4108840E080010404010508091C0BA10C010F041323140115BF19181DA71F182110251C27A228012B402F4031803201331F3538374039023B2897
:400600003E043F4054185604580459045B045C205D205F01C003C504C9FFCA07CBFFCC40CD20CEF0CF05D008D804D904DA04DD01DF01E040E1A8E240E320008A034407482D
:4006400008040A440C410D400E041051120C134814201502168017041B0820082114220A2301280829812A042C102EC030A833023440370439643B023C023E043F404508BA
:400680004E2056015A026082630481C0844C850488848A018C028D018F01918692049304970198399CC09E01A061A108A302A622A708AC80AE01B104B310C05FC2DEC43F70
:4006C000CA5FCC5FCEDFD040D601D80DE008E204E402E604E810EA08EE0804100518072008090A100B060C401203141415181723181C19181A221B251C801F29242C2611DF
:4007000028302A0C2B022D162F21301F3260333C3480350738083B283E104021410346B047EC483849FF4AFF4BFF4EF04F44500C580459045A045C115D015F0166C06A40D2
:400740006B028A188E06960198029A1CA201A610A802AA0CAC18AE06B21EB401BA08BE10D418D604D804D904DB04DC01DD10DF010010020104100631080109100A400B10BC
:400780000E820F2A114212301320172819101B041C101E8825102728282029042B402D402E2030513304376839203C103E0846014768560857115A015D805E806110634107
:4007C00079027B40800883088420874088028D0191E092449304981099049B049D809E099F28A043A108A342A607A704AB02AF08B040B540B744C0E3C2F6C46FCA33CC7FFD
:40080000CE64D070D601D80DE202E401E604EA04EE02000A021118141A091C011E06241F281F341836075602571358045B045C025D205F01804186F3870688C389088CFF53
:400840008D7F90F3920C9301941C951896E3980F99399AF09B449C82A008A167A318A404A501A780A80CA939AB42AD10B0C0B180B21CB340B42CB51FB60FB720B908BAA0F4
:40088000BB20BF40D602D710D804D904DB04DC11DD10DF010056040208400A280B800D100E0510881308171419101A181B861E0520202251282029502B802FC03008321136
:4008C00038643A405A805F02680469446D106E406F1470987140730876097720830687208A088D0493119482951096459A409C089D809E109F10A128A340AB08AC04B10849
:40090000B404C01FC2CFC46ECA0FCC07CE0ED688E210E480EC40EE200014022A0302049F0C8013011402164518091A321D01249F3018310332073480350336603E40405259
:40094000410442034401450E460C480549FF4AFF4BFF4C624DA04EF04F41500C580459045A045C915D015F016640670269106A306B106D106E106F12804182208304840CC1
:4009800088048C088F0490D3920C94DF95019AD39B039CC3A01CA2C3A40FA6D0A882B0C0B104B20FB420B502B61CB701BA08BF01C006C640C9FFCA07CBFFCC40CD20CEF039
:4009C000CF05D008D401D804D90DDA04DB0DDC02DD02DF01E040E1A8E240E3200008014204020609072008200A200C020D280E011104141015201640181519021A201C22D4
:400A00001E882102222025012680270431023280348036A037043B013C023F824045421049044B804C404F10508056105C80644065027E0880808204841886408701881248
:400A400089808A408C018D018E019040916492119391949698209A099B209C489D849E10A004A128A208A340A680AE80AF02B031B208C0FDC2F6C474CC69CE91D00FD228C6
:400A8000D610DE20E270E6C0E810EA20EE801280168030403328344037023B423E808A80C430CCF0CE70090432805A01660881048A018E0897429F02A728C210CC10D640DC
:400AC000D880E6801280534059048740974299049F02A680A728A904C410D420D640E210E82097409F02A720AB01AF08EE607E01DE048A019602E0041B042720C608C80109
:400B00004402AB04AF20D0042408870297409F02A720C820E640AF60B404EE5008409C02C20212808E80B040B402C408E202E808EA010017010108030A070C150D01100720
:400B400011011A071B011C071D0100FF010F100A8004000040000000181800000060E00080004084840084000004000000080004000000004000400B0B0000000001000095
:400B8000007F7F0000000000000100000000000000000000000000000000000000000000000000000000000000000000000000000000000000000000000000000000000036
:400BC00000000000000000000000000000000000000000000000000000000000000000000000000000000000000000000000000000000000000000000000000000000000F5
:400C000000000000000000000000000000000000000000000000000000000000000000000000000000000000000000000000000000000000000000000000000000000000B4
:400C40000000000000000000000000000000000000000000000000000000000000000000000000000000000000000000000000000000000000000000000000000000000074
:400C80000000000000000000000000000000000000000000000000000000000000000000000000000000000000000000000000000000000000000000000000000000000034
:0200000490006A
:0400000000004005B7
:0200000490105A
:04000000BC90ACAF55
:0200000490303A
:02000000CAA490
:0200000490402A
:4000000000000000000000000000000000000000000000000000000000000000000000000000000000000000000000000000000000000000000000000000000000000000C0
:400040000000000000000000000000000000000000000000000000000000000000000000000000000000000000000000000000000000000000000000000000000000000080
:400080000000000000000000000000000000000000000000000000000000000000000000000000000000000000000000000000000000000000000000000000000000000040
:4000C0000000000000000000000000000000000000000000000000000000000000000000000000000000000000000000000000000000000000000000000000000000000000
:0200000490501A
:0C00000000012E15606900012E252B0D5B
:00000001FF