:400000000080002011000000190600001906000008B5044B1A6803F53F5302331A6000F003FB00BFFA46004010B5054C237833B9044B13B10448AFF300800123237010BD3B
:400040005881FF1F00000000E0120000084B10B51BB108490848AFF300800848036803B910BD074B002BFBD0BDE81040184700BF000000005C81FF1FE0120000C880FF1FFE
:4000800000000000704700BF08B500F0AFFC00F0C1FC00F097FF00F079FE01F083F80023024A1370024A137008BD00BF0A82FF1FB981FF1F08B54FF47A7000F0F3FB01203C
:4000C00000F0BCFC4FF47A7000F0ECFB012000F0C1FC4FF47A7000F0E5FB012000F0C6FC4FF47A7000F0DEFB012000F0CBFC4FF47A7000F0D7FB012000F0D0FC08BD00BF98
:4001000008B562B66422224B1A70FFF7BDFF214800F0CEFF204801F085F8002000F0E2FD002000F0E5FD002001F04AF8002001F053F800F0BBFD0128FBD0184B187800F0B0
:40014000D1FD174B187800F0D3FDFFF7B3FF012001F036F8012001F03FF80021084600F03FFF0E4D287800F069FF0021012000F037FF0B4C207800F061FF0A4B187800F062
:40018000ABF8287800F0AEFD207800F0B1FDE4E7BA81FF1FC1010000850000000A82FF1FB981FF1F0682FF1F02460023012003E002FB00F0C0B201338B42F9DB704700BFFF
:4001C00010B500240B4B1C7010E0A0B200F026FC094B1B78984208DD21460220FFF7E4FFC0B2044A1378184310700134072CECDD10BD00BF0682FF1FBA81FF1F00231FE0D4
:40020000234AD25C012A1AD1224AD15C224A11701BB9FF22214B1A7014E0012B03D1F0221E4B1A700EE0022B03D1E1221B4B1A7008E0032B06D1FF22184B1A7002E00133B0
:40024000032BDDDD072320E0114AD25C012A1BD1104AD15C114A1170072B03D1FF220E4B1A707047062B03D1F0220B4B1A707047052B03D1E122084B1A707047042B06D159
:40028000FF22054B1A707047013B032BDCDC70471C82FF1FCC80FF1F0A82FF1FB981FF1F10B5002411E021460220FFF77DFFC0B2074B1B7830EA030303D10122054B1A5589
:4002C00002E00022034B1A550134072CEBDD10BD1882FF1F1C82FF1F08B5034B1870FFF7DFFFFFF78BFF08BD1882FF1FFEE700BFF0B40022174611E050F82760F3B226F026
:40030000FF0608E001EB420511F812406D78A5550132013BDBB2002BF4D10137242FEBD9F0BC704708B50A46002100F0D0FF08BD38B517222E4B1A8018232E4A13704D2136
:400340000232118002321370EF21023211800232137040F2AF41023211800232137040F65F1102321180023213700222224B1A7008224FF040231A70032103F5007319702C
:400380001E4B1B78DBB21E490B701E4B1A8041F25122023B1A80002419250CE01A4B1B7803F0010343EA440404F003044FF4F07000F046FF013D0DB1032CEFD115B90320F1
:4003C000FFF794FF114B4FF480721A8007221A7000220F490A704820023108701A700222033B1A700B4A137843F01F03137038BD8040004082400040004300400801004995
:40040000A146004022420040254200400440004006400040A2430040F8B5204B1B78DBB21F4E3478E4B21F4F3D78EDB203F007011D4A11701B090132137044F003033370D8
:4004400045F003033B70FF22184B1A7080222F331A7041F2100220331A80502271331A704023134A137002321370202302F295121370F02188321170033213704FF4817293
:400480000C4B1A80012212331A700A2000F020FA3D7034704422084B1A70F8BDCF010049F8460040F94600406E5800400D51004001590040465B00407658004008B500F0EC
:4004C000FBFE08BD38B572B600240CE03B4D630019194A0011462A44084691882858FFF721FF0134E4B2072CF0D900240BE03349A3001819420088180622416B006BFFF7B3
:40050000DDFF0134E4B2002CF1D02D494FF09040FFF7EEFE04212B48FFF704FF04222A492A48FFF7CBFF2A4A137843F0020313701032137843F002031370264C237843F0E2
:4005400040032370A2F58632513A137843F010031370082220492148FFF7B0FF082220492048FFF7ABFF05221F492048FFF7A6FF0A221F491F48FFF7A1FF08221E491F4820
:40058000FFF79CFF0A221E491E48FFF797FF1E4A137843F0080313701C4D61232B70FFF7C7FE81232B700122194B1A70FFF734FF0E2221461748FFF781FF38BDE41200005E
:4005C0009400004800760040C80800480876004003500140A0430040900800480251004098080048C2510040A0080048CB510040A808004810510040B40800482251004092
:40060000BC08004830510040224300400048004004000840B043004008B500F021FE03680C2B00D1FEE7FEE708B5104E104D16E029686B68AC68002204E051F8040B43F8B9
:40064000040B0432A242F8D1E868002203E0002143F8041B04328242F9D11035013E002EE6D100F003FEFFF74BFDFEE7010000009813000008B5114A114B1A60114A136807
:4006800043F40073136000230AE0032B03D80E4A52F8231000E00D490D4A42F8231001332F2BF2D90B4B1A780B4B1A70084A0B4B1A60FFF707FF00F013F808BD0004FA0536
:4006C0000CED00E014ED00E000000000190600000080FF1FBC760040C080FF1F08ED00E00B4A7F2313708021517007E0DA0002F1804202F5F042013BDBB21370002BF5D126
:40070000DB0003F1804303F5F04300221A707047D480FF1F172815D831B103010A495A5C42F020025A5405E0030107495A5C02F0DF025A540001044A835C43F0010383545E
:4007400000207047012070471070004017280CD80001074BC1180A7942F004020A71C25C42F00102C254002070470120704700BF1070004017280BD80001064A835C03F0A9
:40078000F103490001F00E011943815400207047012070471070004041F6FF73994201D14FF4005141F6FF739A4201D14FF40052172808D8C00000F1804000F5EC408180D4
:4007C000C280002070470120704700BF172805D8034B03EB0010417200207047012070471070004017281BD810B4C00000F1804404F5EC44D201D2B201F07F01114321707E
:400800009DF804201201D2B203F00F03134363709DF8083003F00F03A3700020E07001E00120704710BC704710B500F011FD0A4B5B78182B0BD9084A1478013B5370E300D7
:4008400003F1804303F5F0431B78137000E0FF2400F002FD204610BDD480FF1F10F0800F0CD111F4704F0BD1C00000F1804000F5F04001808270C3700020704701207047F2
:400880000120704710F0800F08D1C00000F1804000F5F0408180C280002070470120704701BE704710B5044605E0084B186800F0C7FCA4F50044B4F5004FF6D8034B5868CF
:4008C00000FB04F000F0BCFC10BD00BFDC80FF1F08B5034B1B7A00FB03F000F0B1FC08BDDC80FF1F10B541F6FF734FF480420121022000F091F9084C207041F6FF731A46D3
:400900000121102000F0A6F96070044800F0C0F9042000F0C3F910BD7481FF1F390A000070B52C4C2078FFF711FF6078FFF70EFF294B1B78FF2B03D1FFF776FF264B18709F
:40094000254D2878062302461021FFF787FF214E341DA4B2224645F6A0312878FFF792FF29783078FFF732FF6B78FF2B02D1FFF75BFF6870184D6878072302461021FFF740
:400980006DFF164A92B221466878FFF77BFF114C69786078FFF71AFF01212078FFF7BAFE01216078FFF7B6FE00F052FC0C4A137843F02003137000F04FFC0A4B1A7842F0F3
:4009C00001021A701A7842F002021A701022064B1A6070BD7481FF1FEC80FF1F2482FF1F976400407464004080E200E008B5074B5B6923B9FFF776FF0122044B5A6100F0C1
:400A0000F5F8FFF78DFF024B1B7808BD7481FF1F6864004008B500F0F7F808BDC0F10700034B33F91030034A1088181A00B270472482FF1F3682FF1F704700BF044A137847
:400A400003F0FE0300F0010018431070704700BF30510040044A137803F0FD03400000F0020018431070704730510040044A137803F0FB03800000F004001843107070475E
:400A800030510040044A137803F0F703C00000F0080018431070704730510040044A137803F0EF03000100F010001843107070473051004008B50A280FD00C2802D008288E
:400AC00006D102E04FF4805209E04FF4807206E00020FFF7E5FE002201E04FF480620021094B198042F2107303FB02F303F6C413064A82FB0302DB17C3EBE223044A136043
:400B0000044B198008BD00BF3482FF1FAD8BDB683C82FF1F3682FF1F10B500F099FB0446184A137843F0010313701032137843F00103137002F5AA520832137843F0030396
:400B400013701822104B1A70013B1A7842F040021A701A7802F0FC021A70C822053B1A700222A3F597530C3B1A70084A137843F0080313700A20FFF7ABFE204600F06CFBAC
:400B800010BD00BFAB43004006590040275B004010B504460A280DD00C2802D0082804D101E0C22207E0422205E00020FFF778FEC22200E08222034B1A702046FFF77AFF5B
:400BC00010BD00BF0259004008B5064A137843F0060313700820FFF7DBFF0022024B1A8008BD00BF015900403882FF1F08B5054B1B7823B9FFF7E8FF0122024B1A70FFF737
:400C00008BFF08BD8C81FF1F024A137843F001031370704700590040F0B583B016461F460B4C012525700023019300932B460A4601462846FFF7D6FD3A4631462078FFF7A0
:400C4000ABFD02212078FFF795FD207803B0F0BDEE80FF1FF0B583B016461F460B4D00242C700194009423460A4601462046FFF7B9FD3A4631462878FFF78EFD022128783E
:400C8000FFF778FD287803B0F0BD00BFEF80FF1F014B1B681865704708ED00E04001C0B2014B1870704700BF04E400E0024B1878C0F34010704700BF31510040024A1378F1
:400CC00043F080031370704774650040014B1870704700BF04650040014B1870704700BF44650040014B1870704700BF24650040014B1870704700BF34650040014B1870BB
:400D0000704700BF84650040014B1878704700BF64650040014B1878704700BF5465004008B501E0FFF7F6FFFFF7EEFF10F0100FF8D108BD10B5134A137803F0C00343F0BF
:400D400009031370104C237843F001032370FF20FFF7BCFFFF20FFF7BFFF0020FFF7C2FF0020FFF7C5FF0020FFF7C8FF00F070FA237843F01003237000F06EFAFFF7D0FF07
:400D800010BD00BF746500409465004008B5054B1B7823B9FFF7CEFF0122024B1A70FFF78DFF08BD8D81FF1F10B50B4C237803F09F032370237803F0F003237023781843C0
:400DC00040F0100020700120FFF782FD237803F0EF03237010BD00BF2051004038B505460E4C237843F020032370237803F0BF0323700020FFF76CFD237803F0F0032370B1
:400E000023781D4345F0100525700120FFF760FD237803F0EF03237038BD00BF2051004070B5354B1A7802F08002D2B21A7033490A7802F0F00242F00F020A7001310A78E0
:400E400002F0F0020A7001310A7802F0F0020A701A7802F0DF021A701A7842F040021A704FF4CA760020FFF733FD234D2B7843F010032B700120FFF72BFD214B1C78E4B2F1
:400E80002B7803F0EF032B700020FFF721FD04F00804E4B22B7843F010032B700120FFF717FD2B7803F0EF032B7014B90A20FFF70FFD013E0CB1002ED4D10F4A137803F0D4
:400EC000BF031370137803F08003DBB213700232137803F0F00313700132137803F0F00343F00F0313700132137803F0F00343F00F03137070BD00BF20510040225100404C
:400F00002151004010B50446FFF78AFF2009FFF765FF04F00F00FFF761FF10BD08B5FFF7F1FF08BD10B50446FFF77AFF2009FFF73BFF04F00F00FFF737FF10BD08B5282088
:400F4000FFF7B0FC0320FFF72FFF0520FFF7AAFC0320FFF729FF0F20FFF7A4FC0320FFF723FF0120FFF79EFC0220FFF71DFF0520FFF798FC0620FFF7D5FF0E20FFF7D2FF0D
:400F80002C20FFF7CFFF0820FFF7CCFF0120FFF7C9FF0C20FFF7C6FF0320FFF7C3FF0520FFF780FC014800F053F808BD3013000008B50C20FFF7B6FF0122014B1A7008BD22
:400FC0008E81FF1F08B5054B5B7823B9FFF7B6FF0122024B5A70FFF7EBFF08BD8E81FF1F08B5032819D8DFE800F002070D1381F08000FFF797FF08BDA1F14000C0B2FFF71C
:4010000091FF08BDA1F16C00C0B2FFF78BFF08BDA1F12C00C0B2FFF785FF08BD38B504460309054DE85CFFF779FF04F00F04285DFFF774FF38BD00BF2013000010B5044605
:40104000000AFFF7EBFFE0B2FFF7E8FF10BD00BF38B50546FFF7E4FE4020FFF763FF002404E0285DFFF74EFF0134E4B23F2CF8D9FFF7D6FE8020FFF755FF38BD014B1B6874
:401080005865704708ED00E04001C0B2014B1870704700BF05E400E02022014B1A60704700E100E02022014B1A60704780E100E010B50446FFF7F6FF2046FFF7DFFF072046
:4010C000FFF7E2FFFFF7E8FF10BD00BF084A137843F0010313701032137843F00103137002F64D32137843F001031370704700BFA3430040014B1870704700BF034F00405E
:40110000014B1880704700BF044F0040014B1880704700BF064F004008B51F4A137803F0010313701D4B1A7802F0FC021A701A7802F0F3021A701A7842F00C021A701A7843
:4011400002F07F021A701A7842F080021A701A78D2B21A7009331A7802F0CF021A701A7842F030021A701A7802F0F0021A701A7842F00F021A700A4A137843F0010313706F
:401180004FF6FF70FFF7BCFF4FF6FF70FFF7BEFF0420FFF7AFFF08BD004F0040024F0040014F004008B5054B1B7823B9FFF7B4FF0122024B1A70FFF789FF08BD9081FF1F95
:4011C000044A137803F0FB03800000F0040018431070704710510040044A137803F07F03C001C0B218431070704700BF10510040014B1B689864704708ED00E04001C0B201
:40120000014B1870704700BF02E400E00422014B1A60704700E100E00422014B1A60704780E100E010B50446FFF7F6FF2046FFF7DFFF0720FFF7E2FFFFF7E8FF10BD00BFBB
:401240000230800803D000BF01380046FCD17047EFF3108072B6704780F31088704700BF014B1868704700BF5081FF1F0E4B70B51E460E4C0025E41AA410A54204D056F800
:40128000253098470135F8E700F074F8084B094C1E46E41AA4100025A54204D056F8253098470135F8E770BD8013000080130000801300008813000010B5431E0A4491428C
:4012C00004D011F8014B03F8014FF8E710BD03460244934202D003F8011BFAE77047000000000000004F00401800405100403000F05100401000000001400010001401400A
:40130000000800400140000A004C0140000200500140200060520040880800480600000030313233343536373839414243444546000E0808080E0000000A0A040404000014
:40134000000E0A0E08080000000E0A0C0A0A0000000E080C080E0000000E080E020E0000000E080E020E0000000404040004000043000000F8B500BFF8BC08BC9E4670478D
:401380004D00000075060000F8B500BFF8BC08BC9E46704729000000A8130000C880FF1F90000000E80000000000000000B4EBFFEBD2B4007F800000030000000000E02E05
:4013C000C05D00001800000000366E01FFFFFFFF00000000000000000000000000000000000000000000000000000000000000007013000000000000000000000000000094
:40140000000000000000000000000000000000000000000000000000000000000000000000000000000000000000000000000000F080FF1F0000000000000000000000001E
:40144000000000000000000000000000000000000000000000000000000000000000000000000000000000000000000000000000000000000000000000000000000000006C
:40148000000000000000000000000000000000000000000000000000000000000000000000000000000000000000000000000000000000000000000000000000000000002C
:4014C00000000000000000000000000000000000000000000000000000000000000000000000000000000000000000000000000000000000000000000000000000000000EC
:4015000000000000000000000000000000000000000000000000000000000000000000000000000000000000000000000000000000000000000000000000000000000000AB
:020000040003F7
:0200000480007A
:40000000044F004003520040015B00400364004002650040560001403101014028020140380301402D040140400501401206014045070140330801403F090140040A01408B
:40004000060B0140321401403515014012160140361701404418014045190140031A01400A1B01400A40014019410140174201400743014006460140034701400A4801402F
:4000800007490140054C01400F4D01400D5001400451014001800A720D20164B0059019A09202784830F87078972840F8838072008130A6C0B200CCA0E3412C81303141379
:4000C000152C16E4171119101A802109231024032514260429302A352B0C2D1C2F2230F0311F340F35203A223F104062410345EB46C0480B49FF4AFF4BFF4EF04F44500C40
:40010000580459045A045C115D015F0166C06A406B02860288688A058C468E09920694689603A810AA21B018B207B460B822BA08BE10C002C640C9FFCA07CBFFCC40CD20FD
:40014000CEF0CF05D008D804D904DA04DC01DD01DF01E040E1A8E240E32000400120044005200610071009180A400E600F801030120414081604184019201B011D281E60BA
:4001800020082102220129282B412F08310A3310368A38203A043D013E103F0440084108452049284B01503055105614C0E3C23EC446CA2FCCD7CEE6D026D204010903065C
:4001C0000402060D070F09020B0D0C0F110F140E150F1601180F1D0F20062209260F29072B082C0F30083101320233083404350436013702580459045F018601B201D401BC
:40020000D604D804D904DB04DD10DF01000802020309062007010A100B040E1812891501174819041A101D201EA01F8024082504278229042B082F08328A3340368E390137
:400240003A013B043D013E103F0458915A08638064016701800483408650920293019501961097049890A68AA708AC84C0A7C266C4BBCA26CCDBCEE3D60FD8010040014052
:4002800002800420061007020A080B100C040F201102120214101508162018011B081C021D04208022402304240829102A042E012F0130FF31013340353E39203A803E0140
:4002C0003F1452035302580459045B045C415F01D804D904DF0100880101038A0624084009840A940B080C800E100F041124121E13821501178018401A0121012204230C3E
:4003000028412A202B082F08308032CA33103682370838403A103B093D29680269508312880289018F20921293019501960897049E209F08A404A68AA708A920AF80B5042F
:40034000B782C06FC2EFC49FCA2DCCDFCEEFE22AE640EA50EE40580459045F0188049E01A602A804B001B202B404B820BE10D602D736D804D904DB0CDF010110021203849C
:400380000602070809900A100E100F081106120113601484178019101A801B0E2A102B862E022F88320A3480360A39803A013E103F405B046110684469046B427180720CBE
:4003C000794088048A0A8B888D408E1091509212950496849A019B289F02A110A444A580A60AA788AA01AB08AE01B001C0CFC267C4DFCAADCCD3CE39D602D804DE08E80C0E
:40040000EC20EE045401580459045B0D5F01800A8251840186268C148E49A49FA89FAC80B018B280B407B660BE40C023C106C204C401C6C0C7E0C828C9FFCAFFCBFFCC6289
:40044000CDA0CEF0CF41D00CD602D712D804D904DA04DB04DC01DD11DF01E640E702E910EA30EB10ED10EE10EF1200420320048005140D2010021114144016081709184119
:400480001A141B2029142C502F083010312033013510370838803A283D203E084005410142104B10511052025A085D8068026914708073247E088A288B098C408D1093106F
:4004C0009A409D81A120A208A920AE40AF10C0EDC240C477CAE6CC65CE6ED00FD204D612DE20E020E4B0EE04B902BF01D904DF01250285828A088D01E480E65000010707CC
:40050000110417011A081E072A0C2F08300131023204330834083504360237013E104060410245D046214705481E49FF4AFF4BFF4DA04F04501852805407580459045A04FA
:400540005B045C335D335F01604062C06440654066C068C06AC06CC06EC0D804D904DF01038004020580074809A00E100F481208150816201A441B8822992A802D802E20DE
:400580002F02320937483B083E103F48412049024A0851A0530459025A6472808E808F0890029108921093409B089E20A306AC04B002C0D8C273C422CA38CC53CE72D0044E
:4005C000D204D60FE202E810EC02580459045F01870291019F04A201B102B304B501B601BF10D608D804D904DB04DD90DF010210038004020580062007080AB00E100F480F
:40060000120A130A18021B8020082104220A234029842A102B862E202F8232193340350437083A083B403E103F485A4060026B0182408B0192929A089B4AA306A60AA780B0
:40064000B480B501B640B780C0FCC27CC40FCABFCC4FCE7AD608D808E620070412041304140117012101260327022A04300432023304350336013E013F0454185604580D24
:4006800059045B045C905D105F01804184F38518860C89088C828D7F900F92F09304953C96F3974198C39B039C1C9D3C9EE39F42A008A110A404A80CA967AB18ACFFAD04F9
:4006C000AF80B0C0B180B22CB320B40FB540B61CB71FB920BA28BB80BF04D804D904DC11DF010046080209800A340D010E200F8010C01140121413241520170818041926CB
:400700001B401E201F4120082180220525082708284029602F50318432113602370839403A543C084508462049804B805D026501662067027E088C028D0490409120921483
:4007400093049404950296089A409B209D81A080A20AA401B514B708C00DC23FC46FCACDCCCFCE4ED680D8B0DE20E8503F1059045F0123048704880189409D40A401B310B1
:40078000E050E830EC02110816803120330837183B823E80C430CCF0CE70314049404B80500857205A025B405C1460086601801083108601872097829F18A104A520A7080C
:4007C000CC10D4E0D6E0D8C0E220E6D017081B043F086680868087408B088D2097829F08A104A520A708AA01AC08B40CB740C420C610CE80D680E250EA6063049604A1047C
:40080000AB01B204D840EE201B0427208F20C608C801E6084402AB04D0042408661081048B0496049704A104C820D880E0200A04861096049E10B404C240E2405220611052
:400840009C02D404D8021440740488408D108E209D10A004A620AC04B402C404DE04E00AE201E80800130101080309010A130C030D01100B11011A091B011C031D0100FF59
:40088000010F040C100A000040400000800000000000000000FFFF00A05050004000005000A0005050000000840000FCFC00280000000000007F7F00000000006000007F6F
:4008C0001F000000000000000001000000000000000000000000000000000000000000000000000000000000000000000000000000000000000000000000000000000000D8
:4009000000000000000000000000000000000000000000000000000000000000000000000000000000000000000000000000000000000000000000000000000000000000B7
:400940000000000000000000000000000000000000000000000000000000000000000000000000000000000000000000000000000000000000000000000000000000000077
:400980000000000000000000000000000000000000000000000000000000000000000000000000000000000000000000000000000000000000000000000000000000000037
:4009C00000000000000000000000000000000000000000000000000000000000000000000000000000000000000000000000000000000000000000000000000000000000F7
:0200000490006A
:0400000000004007B5
:0200000490105A
:04000000BC90ACAF55
:0200000490303A
:02000000028E6E
:0200000490402A
:4000000000000000000000000000000000000000000000000000000000000000000000000000000000000000000000000000000000000000000000000000000000000000C0
:400040000000000000000000000000000000000000000000000000000000000000000000000000000000000000000000000000000000000000000000000000000000000080
:400080000000000000000000000000000000000000000000000000000000000000000000000000000000000000000000000000000000000000000000000000000000000040
:4000C0000000000000000000000000000000000000000000000000000000000000000000000000000000000000000000000000000000000000000000000000000000000000
:0200000490501A
:0C00000000012E16106900012E2012F7DE
:00000001FF