:400000000080002011000000810600008106000008B5044B1A6803F53F5302331A6000F037FB00BFFA46004010B5054C237833B9044B13B10448AFF300800123237010BD37
:400040005881FF1F0000000078130000084B10B51BB108490848AFF300800848036803B910BD074B002BFBD0BDE81040184700BF000000005C81FF1F78130000C880FF1FCC
:400080000000000008B500F0E5FC00F0F7FC00F0DBFF00F0AFFE01F0F9F80023024A1370024A137008BD00BFD281FF1FC281FF1F08B5012000F0F6FC4FF47A7000F026FC70
:4000C000012000F0FBFC4FF47A7000F01FFC012000F000FD4FF47A7000F018FC012000F005FD4FF47A7000F011FC012000F00AFD08BD00BF02460023012003E002FB00F04C
:40010000C0B201338B42F9DB704700BF70B506460D46002413E0E1B2E8B200F0A3FF21460220FFF7E7FFC0B230EA060303D1012000F0D0FF02E0002000F0CCFF0134072C95
:40014000E9DD70BD08B562B66422264B1A70FFF799FF0024244B1C70012000F0A3FC234801F01AF8204600F0F1FD204600F0F4FD204601F099F8204601F0A2F800F0CAFD50
:400180000128FBD01A4B187800F0E0FD194B187800F0E2FDFFF78CFF012001F085F8012001F08EF8144C207800F0F0F800212078FFF7ACFF0021012000F054FF0C4D287876
:4001C00000F07EFF0A21012000F04CFF094C207800F076FF287800F0B9FD207800F0BCFDE0E700BFC381FF1FC181FF1FFD010000D281FF1FC281FF1FCE81FF1F10B50024C4
:400200000B4B1C7010E0A0B200F03CFC094B1B78984208DD21460220FFF76CFFC0B2044A1378184310700134072CECDD10BD00BFCE81FF1FC381FF1F032329E0414AD25C48
:40024000012A24D10021404A518013B96421117102E000213C4A11713C4AD15C3C4A11701BB9FF223B4B1A707047012B03D1F022384B1A707047022B03D1E122354B1A70AA
:400280007047032B5DD1FF22324B1A707047013B002BD3DA04232BE02A4AD25C012A26D10021294A5180072B02D1C821117102E00021254A1171254AD15C264A1170072BBA
:4002C00003D1FF22224B1A707047062B03D1F0221F4B1A707047052B03D1E1221C4B1A707047042B2DD1FF22194B1A7070470133072BD1DD144B5B884FF6FF72934205D041
:40030000114A127912B101330F4A53800E4B5B88B3F5967F15D90C4B1B7993B1642B07D10B4B1B78FF2B0CD00233094A13707047C82B06D1074B1B78FF2B02D00233054A57
:4003400013707047E481FF1F7481FF1FCC80FF1FD281FF1FC281FF1F38B5054600240FE021460220FFF7C6FEC0B230EA050303D10122054B1A5502E00022034B1A550134A3
:40038000072CEDDD38BD00BFE481FF1F08B5094B834304D000F00903092B03D101E0802000E00120044B1870FFF7D6FFFFF744FF08BD00BFC0D8A700E081FF1FFEE700BF17
:4003C000F0B40022174611E050F82760F3B226F0FF0608E001EB420511F812406D78A5550132013BDBB2002BF4D10137212FEBD9F0BC704708B50A46002100F0B4FF08BDD4
:4004000038B513222A4B1A8018232A4A137040F2AF41023211800232137047F22F52264B1A80192502331D70022203F276231A7008224FF040231A70032103F5007319704C
:400440001E4B1B78DBB21E490B701E4B1A8041F25122023B1A8000240CE01B4B1B7803F0010343EA440404F003044FF4F07000F033FF013D0DB1032CEFD115B90320FFF78A
:400480009DFF124B4FF480721A8007221A7000220F490A704820023108701A700222033B1A700C4A137843F00703137038BD00BF8040004082400040884000400801004993
:4004C000A146004022420040254200400440004006400040A2430040F8B5164B1B78DBB2154E3478E4B2154F3D78EDB203F00701134A11701B090132137044F00303337040
:4005000045F003033B70FF220E4B1A7040230E4A137002321370F0220C4B1A70202203331A700A2000F008FA3D7034704422084B1A70F8BDCF010049F8460040F94600406C
:400540006E5800400D51004001590040205B00407658004008B500F0FBFE08BD38B572B600240CE0314D630019194A0011462A44084691882858FFF73DFF0134E4B2072CAB
:40058000F0D92B494FF09040FFF71AFF04212948FFF730FF042228492848FFF7DBFF284A137843F0020313701032137843F002031370244C237843F040032370A2F58632AB
:4005C000513A137843F01003137008221E491F48FFF7C0FF08221E491E48FFF7BBFF0A221D491E48FFF7B6FF08221D491D48FFF7B1FF0A221C491D48FFF7ACFF1C4A137802
:4006000043F0080313701B4D61232B70FFF7F8FE81232B700122184B1A70FFF75DFF0E2221461648FFF796FF38BD00BF7C13000088000048007600409806004808760040F8
:4006400003500140A0430040680600480251004070060048C2510040780600481051004084060048225100408C06004830510040224300400048004004000840B043004036
:4006800008B500F039FE03680C2B00D1FEE7FEE708B5104E104D16E029686B68AC68002204E051F8040B43F8040B0432A242F8D1E868002203E0002143F8041B04328242DE
:4006C000F9D11035013E002EE6D100F01BFEFFF739FDFEE7010000002414000008B5114A114B1A60114A136843F40073136000230AE0032B03D80E4A52F8231000E00D4972
:400700000D4A42F8231001332F2BF2D90B4B1A780B4B1A70084A0B4B1A60FFF71FFF00F013F808BD0004FA050CED00E014ED00E000000000810600000080FF1FBC7600408A
:40074000C080FF1F08ED00E00B4A7F2313708021517007E0DA0002F1804202F5F042013BDBB21370002BF5D1DB0003F1804303F5F04300221A707047D480FF1F172815D8D0
:4007800031B103010A495A5C42F020025A5405E0030107495A5C02F0DF025A540001044A835C43F00103835400207047012070471070004017280CD80001074BC1180A795B
:4007C00042F004020A71C25C42F00102C254002070470120704700BF1070004017280BD80001064A835C03F0F103490001F00E01194381540020704701207047107000408D
:4008000041F6FF73994201D14FF4005141F6FF739A4201D14FF40052172808D8C00000F1804000F5EC408180C280002070470120704700BF172805D8034B03EB0010417265
:4008400000207047012070471070004017281BD810B4C00000F1804404F5EC44D201D2B201F07F01114321709DF804201201D2B203F00F03134363709DF8083003F00F0378
:40088000A3700020E07001E00120704710BC704710B500F029FD0A4B5B78182B0BD9084A1478013B5370E30003F1804303F5F0431B78137000E0FF2400F01AFD204610BD5A
:4008C000D480FF1F10F0800F0CD111F4704F0BD1C00000F1804000F5F04001808270C37000207047012070470120704710F0800F08D1C00000F1804000F5F0408180C28076
:40090000002070470120704701BE704710B5044605E0084B186800F0DFFCA4F50044B4F5004FF6D8034B586800FB04F000F0D4FC10BD00BFDC80FF1F08B5034B1B7A00FBFF
:4009400003F000F0C9FC08BDDC80FF1F10B541F6FF734FF480420121022000F091F9084C207041F6FF731A460121102000F0A6F96070044800F0C0F9002000F0C3F910BD33
:400980007C81FF1FA10A000070B52C4C2078FFF711FF6078FFF70EFF294B1B78FF2B03D1FFF776FF264B1870254D2878062302461021FFF787FF214E341DA4B2224645F609
:4009C000A0312878FFF792FF29783078FFF732FF6B78FF2B02D1FFF75BFF6870184D6878072302461021FFF76DFF164A92B221466878FFF77BFF114C69786078FFF71AFFBD
:400A000001212078FFF7BAFE01216078FFF7B6FE00F06AFC0C4A137843F02003137000F067FC0A4B1A7842F001021A701A7842F002021A700122064B1A6070BD7C81FF1F19
:400A4000EC80FF1FEC81FF1F976500407664004080E200E008B5074B5B6923B9FFF776FF0122044B5A6100F0F5F8FFF78DFF024B1B7808BD7C81FF1F6764004008B500F0AB
:400A8000F7F808BDC0F10700034B33F91030034A1088181A00B27047EC81FF1FFE81FF1F704700BF044A137803F0FE0300F0010018431070704700BF30510040044A137849
:400AC00003F0FD03400000F0020018431070704730510040044A137803F0FB03800000F0040018431070704730510040044A137803F0F703C00000F00800184310707047DD
:400B000030510040044A137803F0EF03000100F010001843107070473051004008B50A280FD00C2802D0082806D102E04FF4805209E04FF4807206E00020FFF7E5FE0022F1
:400B400001E04FF480620021094B198042F2107303FB02F303F6C413064A82FB0302DB17C3EBE223044A1360044B198008BD00BFFC81FF1FAD8BDB680482FF1FFE81FF1FEC
:400B800010B500F0B1FB0446184A137843F0010313701032137843F00103137002F5AA520832137843F0030313701822104B1A70013B1A7842F040021A701A7802F0FC027B
:400BC0001A70C822053B1A700222A3F597530C3B1A70084A137843F0080313700A20FFF7ABFE204600F084FB10BD00BFAB43004006590040275B004010B504460A280DD0CB
:400C00000C2802D0082804D101E0C22207E0422205E00020FFF778FEC22200E08222034B1A702046FFF77AFF10BD00BF0259004008B5064A137843F0060313700820FFF777
:400C4000DBFF0022024B1A8008BD00BF015900400082FF1F08B5054B1B7823B9FFF7E8FF0122024B1A70FFF78BFF08BD9481FF1F024A137843F00103137070470059004027
:400C8000F0B583B016461F460B4C012525700023019300932B460A4601462846FFF7D6FD3A4631462078FFF7ABFD02212078FFF795FD207803B0F0BDEE80FF1FF0B583B034
:400CC00016461F460B4D00242C700194009423460A4601462046FFF7B9FD3A4631462878FFF78EFD02212878FFF778FD287803B0F0BD00BFEF80FF1F014B1B68186470474C
:400D000008ED00E04001C0B2014B1870704700BF00E400E0024B1878C0F38010704700BF31510040024A137843F080031370704774640040014B1870704700BF04640040F4
:400D4000014B1870704700BF44640040014B1870704700BF24640040014B1870704700BF34640040014B1870704700BF84640040014B1878704700BF64640040014B187865
:400D8000704700BF5464004008B501E0FFF7F6FFFFF7EEFF10F0100FF8D108BD10B5134A137803F0C00343F009031370104C237843F001032370FF20FFF7BCFFFF20FFF7E1
:400DC000BFFF0020FFF7C2FF0020FFF7C5FF0020FFF7C8FF00F088FA237843F01003237000F086FAFFF7D0FF10BD00BF746400409464004008B5054B1B7823B9FFF7CEFF71
:400E00000122024B1A70FFF78DFF08BD9581FF1F10B50B4C237803F09F032370237803F0F00323702378184340F0100020700120FFF782FD237803F0EF03237010BD00BF4F
:400E40002051004038B505460E4C237843F020032370237803F0BF0323700020FFF76CFD237803F0F003237023781D4345F0100525700120FFF760FD237803F0EF032370D4
:400E800038BD00BF2051004070B5354B1A7802F08002D2B21A7033490A7802F0F00242F00F020A7001310A7802F0F0020A7001310A7802F0F0020A701A7802F0DF021A7062
:400EC0001A7842F040021A704FF4CA760020FFF733FD234D2B7843F010032B700120FFF72BFD214B1C78E4B22B7803F0EF032B700020FFF721FD04F00804E4B22B7843F00D
:400F000010032B700120FFF717FD2B7803F0EF032B7014B90A20FFF70FFD013E0CB1002ED4D10F4A137803F0BF031370137803F08003DBB213700232137803F0F003137098
:400F40000132137803F0F00343F00F0313700132137803F0F00343F00F03137070BD00BF20510040225100402151004010B50446FFF78AFF2009FFF765FF04F00F00FFF78D
:400F800061FF10BD38B505460078012404E0FFF7EDFF285D0134E4B20028F8D138BD00BF08B5FFF7E3FF08BD10B50446FFF76CFF2009FFF72DFF04F00F00FFF729FF10BD71
:400FC00008B52820FFF7A2FC0320FFF721FF0520FFF79CFC0320FFF71BFF0F20FFF796FC0320FFF715FF0120FFF790FC0220FFF70FFF0520FFF78AFC0620FFF7D5FF0E20CD
:40100000FFF7D2FF2C20FFF7CFFF0820FFF7CCFF0120FFF7C9FF0C20FFF7C6FF0320FFF7C3FF0520FFF772FC014800F085F808BDBC13000008B50C20FFF7B6FF0122014B79
:401040001A7008BD9681FF1F08B5054B5B7823B9FFF7B6FF0122024B5A70FFF7EBFF08BD9681FF1F08B5032819D8DFE800F002070D1381F08000FFF797FF08BDA1F14000A4
:40108000C0B2FFF791FF08BDA1F16C00C0B2FFF78BFF08BDA1F12C00C0B2FFF785FF08BD38B504460309054DE85CFFF779FF04F00F04285DFFF774FF38BD00BFAC130000A0
:4010C00010B50446000AFFF7EBFFE0B2FFF7E8FF10BD00BF10B584B000238DF80E30092211E0144BA3FB0013DB081C4603EB83035900431ADBB2303304A9114401F80C3C4F
:401100002046013AD2B20928EBD80A4BA3FB0013DB0803EB83035900431ADBB2303304A9114401F80C3C01AB9818FFF72BFF04B010BD00BFCDCCCCCC38B50546FFF7A4FE93
:401140004020FFF731FF002404E0285DFFF70EFF0134E4B23F2CF8D9FFF796FE8020FFF723FF38BD014B1B689864704708ED00E04001C0B2014B1870704700BF02E400E001
:401180000422014B1A60704700E100E00422014B1A60704780E100E010B50446FFF7F6FF2046FFF7DFFF0720FFF7E2FFFFF7E8FF10BD00BF084A137843F001031370103273
:4011C000137843F00103137002F64D32137843F001031370704700BFA3430040014B1870704700BF034F0040014B1880704700BF044F0040014B1880704700BF064F00409A
:4012000008B51F4A137803F0010313701D4B1A7802F0FC021A701A7802F0F3021A701A7842F00C021A701A7802F07F021A701A7842F080021A701A78D2B21A7009331A78E3
:4012400002F0CF021A701A7842F030021A701A7802F0F0021A701A7842F00F021A700A4A137843F0010313704FF6FF70FFF7BCFF4FF6FF70FFF7BEFF0420FFF7AFFF08BD50
:40128000004F0040024F0040014F004008B5054B1B7823B9FFF7B4FF0122024B1A70FFF789FF08BD9881FF1F044A137803F0FB03800000F004001843107070471051004074
:4012C000044A137803F07F03C001C0B218431070704700BF105100400230800803D000BF01380046FCD17047EFF3108072B6704780F31088704700BF014B1868704700BF18
:401300005081FF1F0E4B70B51E460E4C0025E41AA410A54204D056F8253098470135F8E700F06EF8084B094C1E46E41AA4100025A54204D056F8253098470135F8E770BDA1
:401340000C1400000C1400000C1400001414000010B5431E0A44914204D011F8014B03F8014FF8E710BD03460244934202D003F8011BFAE77047000000000000004F00400A
:401380000C00405100403000F0510040100000000140001000140140000800400140000A004C0140000200500140200030313233343536373839414243444546000E080856
:4013C000080E0000000A0A0404040000000E0A0E08080000000E0A0C0A0A0000000E080C080E0000000E080E020E0000000E080E020E000000040404000400004300000056
:40140000F8B500BFF8BC08BC9E4670474D000000DD060000F8B500BFF8BC08BC9E4670472900000038140000C880FF1F90000000B000000000000000000000000064DCFF24
:40144000FFDC64007F800000030000000000E02EC05D00001800000000366E01FFFFFFFF000000000000000000000000000000000000000000000000000000000000000047
:40148000FC1300000000000000000000000000000000000000000000000000000000000000000000000000000000000000000000000000000000000000000000000000001D
:4014C000F080FF1F0000000000000000000000000000000000000000000000000000000000000000000000000000000000000000000000000000000000000000000000005E
:4015000000000000000000000000000000000000000000000000000000000000000000000000000000000000000000000000000000000000000000000000000000000000AB
:40154000000000000000000000000000000000000000000000000000000000000000000000000000000000000000000000000000000000000000000000000000000000006B
:40158000000000000000000000000000000000000000000000000000000000000000000000000000000000000000000000000000000000000000000000000000000000002B
:4015C00000000000000000000000000000000000000000000000000000000000000000000000000000000000000000000000000000000000000000000000000000000000EB
:020000040003F7
:0200000480007A
:40000000024F004005520040015B00400164004001650040060001401C010140250201403003014034040140410501402D06014045070140060801402B090140010B01401E
:4000400017140140471501402E1601404817014007190140021B01400B40014014410140114201400C4301400646014007470140054801400F4901400A4C0140054D0140E0
:40008000095001400351014001800A93005C019A0828090861082784840F8707580459045F01D804D904DF0100640454081009080B010C500D080F011001140116012810ED
:4000C0002C102F08304031083308340138543A013C743F01C0E7C2E7C481CA62CC8ACEFF010F040F050F080F090F0C0B0D010E040F0E160F18011A0E1C0F250D27022B0FF9
:400100002C062D092E092F06300431083202330234013501360837045608580459045B045D905F01D804D904DF0100640454081009080B010C500D080F0110011401160126
:400140001C801D441F2024082604274228102C112F0830403108330838543A013C743F015E80664087028E048F40944497019C11A240A410A508AE40C0E7C2E7C481CA72B0
:40018000CC0ACEFFD610D810E25006010A080B060C01120217051A042608270A2804300831083202330134043504360137023E014030410645D146204705481B49FF4AFF20
:4001C0004BFF4DA04F04501852805407580459045A045B045C115D115F01604062C06440654066C068C06AC06CC06EC0D804D904DF010090010804440A400B080C100D084A
:400200000F011020120814011508181019501B0120802208230A29082C102E203308340138103C643F01401045084620490A4B205020531C58085952724084088701881032
:4002400089048A108D04944497019A409C11A410A508A904AB20B040B140B404C0A7C2EAC4A6CA62CC82CEF4D002D204D60FE280EA90EE2009040A080D04100C12101304A8
:4002800014141608170319011A01220226102A042C013101321C3302340335043E043F10520353025804590C5B045C095F019F01A201A404A804AE02B002B204B401B70193
:4002C000B808BE04D401D804D904DB0CDF0100640708081109080B010E080F60100A11091508164017A0184419041A401E081F042280230125012610279029803010318804
:400300003604371238443A103B013DA03F605B805C80648066026B026C086D406E1079407D408303850489088C44944497019A409B209C11A104A410A508A610AF2AC04779
:40034000C27FC4FFCA08CCEECE3FD618DE18E001E208E808EC02EE04580459045F01D804D904DF010180030405900720080409020D081028114014041540168028042C0457
:400380002E803020311A3590370139603A013C013D40800181088304880889108A808DC08E01C0E3C22CC4D7CA34CCB7CE9DE040E208E460E808EC02EE04E64007010B0258
:4003C0001601320135013702580459045F018A018B018E019D01A401AB01B001B501BE01BF10D804D904DB04DF0100040102030804040522061007010A400B100C100D0834
:400400000E401050120814401520168017041B081D0122502610282029022A102C102D222E803040325834203648384039143C043D203E406DA06E806F05782079207B081C
:4004400081208302861088028D01904491149240931096A0981099029B029C02A108A208A550A708AB08AF80C0FEC27CC47ECAF7CC7ECE7EE020E810080116032E04320416
:4004800034023601580459045C025F0182028304860487088A018B018C408E80901092209608980199089C029F02A004A104A408A710A820A901AA10AC80AD02AE40B2FF88
:4004C000B31FB908BE04BF04D602D739D804D904DB0CDF010064010202C003080510080109800AA40E2010021115140219081D101E201F802108220829092A402B082C10EE
:400500002F0830113188321034013688386039053B103C445A106104680269157010718072047940800481018E10904491409250950199049B029C119F08A280A412A5D8B9
:40054000AC01AE10B010B180B202B304B501C04FC22FC48FCA6FCCDFCE5FD604D802DE08E802EA908D109D10AD02AF21B004E040EC80E440E81012201680334236803B0247
:400580003E8077407F02C430CC70CE605220578058015A805C085F406308660887408E408F0497029F40A680AE20D4E0D6E0D8C0E640EC4002101B043F0853208B20970278
:4005C0009F40A680AA08AB80B009B620C010C610CE80D420EEA06008718081809F40A680AB01AE10D840DC20E680E840EE201B0424208C10C608C801E6024402862092019E
:40060000A240AB04AE41D0042408A680B008B740C8200D0110807B0187018901A480A880AE80B404C220C410DC80E610E820EE10062051205E8192019C029E20A240C00406
:40064000D404D6058D20A520B402E402E80800030101080109010A030B010C0110051A05003F040C100A00000000000000FFFF00050F0A000A000000840002FFFD0029001D
:4006800000000000007F7F00000000006000007F1F00000000000000000100000000000000000000000000000000000000000000000000000000000000000000000000003D
:4006C00000000000000000000000000000000000000000000000000000000000000000000000000000000000000000000000000000000000000000000000000000000000FA
:4007000000000000000000000000000000000000000000000000000000000000000000000000000000000000000000000000000000000000000000000000000000000000B9
:400740000000000000000000000000000000000000000000000000000000000000000000000000000000000000000000000000000000000000000000000000000000000079
:400780000000000000000000000000000000000000000000000000000000000000000000000000000000000000000000000000000000000000000000000000000000000039
:0200000490006A
:0400000000004007B5
:0200000490105A
:04000000BC90ACAF55
:0200000490303A
:02000000816518
:0200000490402A
:4000000000000000000000000000000000000000000000000000000000000000000000000000000000000000000000000000000000000000000000000000000000000000C0
:400040000000000000000000000000000000000000000000000000000000000000000000000000000000000000000000000000000000000000000000000000000000000080
:400080000000000000000000000000000000000000000000000000000000000000000000000000000000000000000000000000000000000000000000000000000000000040
:4000C0000000000000000000000000000000000000000000000000000000000000000000000000000000000000000000000000000000000000000000000000000000000000
:0200000490501A
:0C00000000012E16106900012E1F91CE89
:00000001FF